{
  "contractName": "Fixed192x64Math",
  "abi": [
    {
      "constant": true,
      "inputs": [],
      "name": "LN2",
      "outputs": [
        {
          "name": "",
          "type": "uint256"
        }
      ],
      "payable": false,
      "stateMutability": "view",
      "type": "function"
    },
    {
      "constant": true,
      "inputs": [],
      "name": "LOG2_E",
      "outputs": [
        {
          "name": "",
          "type": "uint256"
        }
      ],
      "payable": false,
      "stateMutability": "view",
      "type": "function"
    },
    {
      "constant": true,
      "inputs": [],
      "name": "ONE",
      "outputs": [
        {
          "name": "",
          "type": "uint256"
        }
      ],
      "payable": false,
      "stateMutability": "view",
      "type": "function"
    },
    {
      "constant": true,
      "inputs": [
        {
          "name": "x",
          "type": "int256"
        }
      ],
      "name": "exp",
      "outputs": [
        {
          "name": "",
          "type": "uint256"
        }
      ],
      "payable": false,
      "stateMutability": "pure",
      "type": "function"
    },
    {
      "constant": true,
      "inputs": [
        {
          "name": "x",
          "type": "int256"
        },
        {
          "name": "estimationMode",
          "type": "Fixed192x64Math.EstimationMode"
        }
      ],
      "name": "pow2",
      "outputs": [
        {
          "name": "",
          "type": "uint256"
        }
      ],
      "payable": false,
      "stateMutability": "pure",
      "type": "function"
    },
    {
      "constant": true,
      "inputs": [
        {
          "name": "x",
          "type": "int256"
        }
      ],
      "name": "pow2Bounds",
      "outputs": [
        {
          "name": "lower",
          "type": "uint256"
        },
        {
          "name": "upper",
          "type": "uint256"
        }
      ],
      "payable": false,
      "stateMutability": "pure",
      "type": "function"
    },
    {
      "constant": true,
      "inputs": [
        {
          "name": "x",
          "type": "uint256"
        }
      ],
      "name": "ln",
      "outputs": [
        {
          "name": "",
          "type": "int256"
        }
      ],
      "payable": false,
      "stateMutability": "pure",
      "type": "function"
    },
    {
      "constant": true,
      "inputs": [
        {
          "name": "x",
          "type": "uint256"
        },
        {
          "name": "estimationMode",
          "type": "Fixed192x64Math.EstimationMode"
        }
      ],
      "name": "binaryLog",
      "outputs": [
        {
          "name": "",
          "type": "int256"
        }
      ],
      "payable": false,
      "stateMutability": "pure",
      "type": "function"
    },
    {
      "constant": true,
      "inputs": [
        {
          "name": "x",
          "type": "uint256"
        }
      ],
      "name": "log2Bounds",
      "outputs": [
        {
          "name": "lower",
          "type": "int256"
        },
        {
          "name": "upper",
          "type": "int256"
        }
      ],
      "payable": false,
      "stateMutability": "pure",
      "type": "function"
    },
    {
      "constant": true,
      "inputs": [
        {
          "name": "x",
          "type": "uint256"
        }
      ],
      "name": "floorLog2",
      "outputs": [
        {
          "name": "lo",
          "type": "int256"
        }
      ],
      "payable": false,
      "stateMutability": "pure",
      "type": "function"
    },
    {
      "constant": true,
      "inputs": [
        {
          "name": "nums",
          "type": "int256[]"
        }
      ],
      "name": "max",
      "outputs": [
        {
          "name": "maxNum",
          "type": "int256"
        }
      ],
      "payable": false,
      "stateMutability": "pure",
      "type": "function"
    }
  ],
  "bytecode": "0x610f64610030600b82828239805160001a6073146000811461002057610022565bfe5b5030600052607381538281f3fe73000000000000000000000000000000000000000030146080604052600436106100d0576000357c01000000000000000000000000000000000000000000000000000000009004806324d4e90a1161009857806324d4e90a146101f857806345b8bafc1461023a578063c12662271461027c578063c2ee3a08146102c5578063ccc13814146102e3578063e46751e3146103af576100d0565b806302780677146100d5578063137bf798146100f35780631427f168146101425780631d5801231461018b57806324902e24146101da575b600080fd5b6100dd6103f1565b6040518082815260200191505060405180910390f35b61012c6004803603604081101561010957600080fd5b8101908080359060200190929190803560ff1690602001909291905050506103fd565b6040518082815260200191505060405180910390f35b61016e6004803603602081101561015857600080fd5b81019080803590602001909291905050506104a4565b604051808381526020018281526020019250505060405180910390f35b6101c4600480360360408110156101a157600080fd5b8101908080359060200190929190803560ff16906020019092919050505061059f565b6040518082815260200191505060405180910390f35b6101e2610646565b6040518082815260200191505060405180910390f35b6102246004803603602081101561020e57600080fd5b8101908080359060200190929190505050610653565b6040518082815260200191505060405180910390f35b6102666004803603602081101561025057600080fd5b810190808035906020019092919050505061069e565b6040518082815260200191505060405180910390f35b6102a86004803603602081101561029257600080fd5b810190808035906020019092919050505061077a565b604051808381526020018281526020019250505060405180910390f35b6102cd610e06565b6040518082815260200191505060405180910390f35b610399600480360360208110156102f957600080fd5b810190808035906020019064010000000081111561031657600080fd5b82018360208201111561032857600080fd5b8035906020019184602083028401116401000000008311171561034a57600080fd5b919080806020026020016040519081016040528093929190818152602001838360200280828437600081840152601f19601f820116905080830192505050505050509192919290505050610e13565b6040518082815260200191505060405180910390f35b6103db600480360360208110156103c557600080fd5b8101908080359060200190929190505050610ea3565b6040518082815260200191505060405180910390f35b67b17217f7d1cf79ac81565b600080600061040b856104a4565b915091506000600281111561041c57fe5b84600281111561042857fe5b141561043857819250505061049e565b6001600281111561044557fe5b84600281111561045157fe5b141561046157809250505061049e565b60028081111561046d57fe5b84600281111561047957fe5b14156104995781600283830381151561048e57fe5b05019250505061049e565b600080fd5b92915050565b6000806000831115156104b657600080fd5b6104bf8361069e565b91506000808312156104dc5782600003849060020a0290506104eb565b8284908060020a820491505090505b68010000000000000000830292506000600190505b60408113151561058f57680100000000000000008214156105205761058f565b6801000000000000000082830281151561053657fe5b0491506801000000000000000060020282101515610582578068010000000000000000600082121561056457fe5b908060020a82049150508401935060028281151561057e57fe5b0491505b8080600101915050610500565b5082600484019250925050915091565b60008060006105ad8561077a565b91509150600060028111156105be57fe5b8460028111156105ca57fe5b14156105da578192505050610640565b600160028111156105e757fe5b8460028111156105f357fe5b1415610603578092505050610640565b60028081111561060f57fe5b84600281111561061b57fe5b141561063b5781600283830381151561063057fe5b040192505050610640565b600080fd5b92915050565b680171547652b82fe17781565b6000806000610661846104a4565b91509150680171547652b82fe1776801000000000000000083600285850381151561068857fe5b05010281151561069457fe5b0592505050919050565b60007fffffffffffffffffffffffffffffffffffffffffffffffffffffffffffffffc09050600060c19050600060018383019060008212600003808260020a82851804189250505090505b816001840112156107735760008112801561071557506801000000000000000081600003859060020a02105b8061074057506000811215801561073f5750680100000000000000008185908060020a8204915050105b5b1561074d57809150610751565b8092505b60018383019060008212600003808260020a82851804189250505090506106e9565b5050919050565b60008068bfffffffffffffffff831315151561079557600080fd5b7fffffffffffffffffffffffffffffffffffffffffffffffc000000000000000008312156107d0576000600181915080905091509150610e01565b6000806000851215156108105768010000000000000000858115156107f157fe5b059150680100000000000000008581151561080857fe5b07905061083e565b6001680100000000000000006001870181151561082957fe5b05039150816801000000000000000002850390505b6000811215151561084b57fe5b60006040680100000000000000009060020a02905060008290508067b17217f7d1cf79ab02820191506801000000000000000083820281151561088a57fe5b05905060028167f5fdeffc162c7543029060008212600003808260020a82851804189250505082019150680100000000000000008382028115156108ca57fe5b05905060048167e35846b82505fc59029060008212600003808260020a828518041892505050820191506801000000000000000083820281151561090a57fe5b059050600681679d955b7dd273b94e029060008212600003808260020a828518041892505050820191506801000000000000000083820281151561094a57fe5b05905060098167aec3ff3c53398883029060008212600003808260020a828518041892505050820191506801000000000000000083820281151561098a57fe5b059050600c8167a184897c363c3b7a029060008212600003808260020a82851804189250505082019150680100000000000000008382028115156109ca57fe5b05905060108167ffe5fe2c45863435029060008212600003808260020a8285180418925050508201915068010000000000000000838202811515610a0a57fe5b05905060138167b160111d2e411fec029060008212600003808260020a8285180418925050508201915068010000000000000000838202811515610a4a57fe5b05905060178167da929e9caf3e1ed2029060008212600003808260020a8285180418925050508201915068010000000000000000838202811515610a8a57fe5b059050601b8167f267a8ac5c764fb7029060008212600003808260020a8285180418925050508201915068010000000000000000838202811515610aca57fe5b059050601f8167f465639a8dd92607029060008212600003808260020a8285180418925050508201915068010000000000000000838202811515610b0a57fe5b05905060238167e1deb287e14c2f15029060008212600003808260020a8285180418925050508201915068010000000000000000838202811515610b4a57fe5b05905060278167c0b0c98b3687cb14029060008212600003808260020a8285180418925050508201915068010000000000000000838202811515610b8a57fe5b059050602b816798a4b26ac3c54b9f029060008212600003808260020a8285180418925050508201915068010000000000000000838202811515610bca57fe5b05905060308167e1b7421d82010f33029060008212600003808260020a8285180418925050508201915068010000000000000000838202811515610c0a57fe5b059050603481679c744d73cfc59c91029060008212600003808260020a8285180418925050508201915068010000000000000000838202811515610c4a57fe5b05905060398167cc2225a0e12d3eab029060008212600003808260020a8285180418925050508201915068010000000000000000838202811515610c8a57fe5b059050603e8167fb8bb5eda1b4aeb9029060008212600003808260020a82851804189250505090508082019150680100000000000000006008029050604084039350600084121515610daa5760008461010003836000821215610ce957fe5b9060008212600003808260020a8285180418925050501415610d755783826000821215610d1257fe5b9060020a02955083816000821215610d2657fe5b9060020a02905085818701101515610d42578086019450610d66565b7fffffffffffffffffffffffffffffffffffffffffffffffffffffffffffffffff94505b85859550955050505050610e01565b7fffffffffffffffffffffffffffffffffffffffffffffffffffffffffffffffff808191508090509550955050505050610e01565b600184600003826000821215610dbc57fe5b9060008212600003808260020a82851804189250505001905083600003826000821215610de557fe5b908060020a820491505095508086019450858595509550505050505b915091565b6801000000000000000081565b6000808251111515610e2457600080fd5b7f8000000000000000000000000000000000000000000000000000000000000000905060008090505b8251811015610e9d57818382815181101515610e6557fe5b906020019060200201511315610e90578281815181101515610e8357fe5b9060200190602002015191505b8080600101915050610e4d565b50919050565b600068851591f9dd5b9b40d78213151515610ebd57600080fd5b7fffffffffffffffffffffffffffffffffffffffffffffffd3a37a020b8c21950d82131515610eef5760009050610f33565b600080610f1967b17217f7d1cf79ac680100000000000000008602811515610f1357fe5b0561077a565b91509150816002838303811515610f2c57fe5b0401925050505b91905056fea165627a7a7230582057fd0e71876d228f529f064a180e829f013a5dda7b85dd430e6b0879dcb813fb0029",
  "source": "pragma solidity >=0.4.24 ^0.5.1;\n\n\n/// @title Fixed192x64Math library - Allows calculation of logarithmic and exponential functions\n/// @author Alan Lu - <alan.lu@gnosis.pm>\n/// @author Stefan George - <stefan@gnosis.pm>\nlibrary Fixed192x64Math {\n\n    enum EstimationMode { LowerBound, UpperBound, Midpoint }\n\n    /*\n     *  Constants\n     */\n    // This is equal to 1 in our calculations\n    uint public constant ONE =  0x10000000000000000;\n    uint public constant LN2 = 0xb17217f7d1cf79ac;\n    uint public constant LOG2_E = 0x171547652b82fe177;\n\n    /*\n     *  Public functions\n     */\n    /// @dev Returns natural exponential function value of given x\n    /// @param x x\n    /// @return e**x\n    function exp(int x)\n        public\n        pure\n        returns (uint)\n    {\n        // revert if x is > MAX_POWER, where\n        // MAX_POWER = int(mp.floor(mp.log(mpf(2**256 - 1) / ONE) * ONE))\n        require(x <= 2454971259878909886679);\n        // return 0 if exp(x) is tiny, using\n        // MIN_POWER = int(mp.floor(mp.log(mpf(1) / ONE) * ONE))\n        if (x <= -818323753292969962227)\n            return 0;\n\n        // Transform so that e^x -> 2^x\n        (uint lower, uint upper) = pow2Bounds(x * int(ONE) / int(LN2));\n        return (upper - lower) / 2 + lower;\n    }\n\n    /// @dev Returns estimate of 2**x given x\n    /// @param x exponent in fixed point\n    /// @param estimationMode whether to return a lower bound, upper bound, or a midpoint\n    /// @return estimate of 2**x in fixed point\n    function pow2(int x, EstimationMode estimationMode)\n        public\n        pure\n        returns (uint)\n    {\n        (uint lower, uint upper) = pow2Bounds(x);\n        if(estimationMode == EstimationMode.LowerBound) {\n            return lower;\n        }\n        if(estimationMode == EstimationMode.UpperBound) {\n            return upper;\n        }\n        if(estimationMode == EstimationMode.Midpoint) {\n            return (upper - lower) / 2 + lower;\n        }\n        revert();\n    }\n\n    /// @dev Returns bounds for value of 2**x given x\n    /// @param x exponent in fixed point\n    /// @return {\n    ///   \"lower\": \"lower bound of 2**x in fixed point\",\n    ///   \"upper\": \"upper bound of 2**x in fixed point\"\n    /// }\n    function pow2Bounds(int x)\n        public\n        pure\n        returns (uint lower, uint upper)\n    {\n        // revert if x is > MAX_POWER, where\n        // MAX_POWER = int(mp.floor(mp.log(mpf(2**256 - 1) / ONE, 2) * ONE))\n        require(x <= 3541774862152233910271);\n        // return 0 if exp(x) is tiny, using\n        // MIN_POWER = int(mp.floor(mp.log(mpf(1) / ONE, 2) * ONE))\n        if (x < -1180591620717411303424)\n            return (0, 1);\n\n        // 2^x = 2^(floor(x)) * 2^(x-floor(x))\n        //       ^^^^^^^^^^^^^^ is a bit shift of ceil(x)\n        // so Taylor expand on z = x-floor(x), z in [0, 1)\n        int shift;\n        int z;\n        if (x >= 0) {\n            shift = x / int(ONE);\n            z = x % int(ONE);\n        }\n        else {\n            shift = (x+1) / int(ONE) - 1;\n            z = x - (int(ONE) * shift);\n        }\n        assert(z >= 0);\n        // 2^x = 1 + (ln 2) x + (ln 2)^2/2! x^2 + ...\n        //\n        // Can generate the z coefficients using mpmath and the following lines\n        // >>> from mpmath import mp\n        // >>> mp.dps = 100\n        // >>> coeffs = [mp.log(2)**i / mp.factorial(i) for i in range(1, 21)]\n        // >>> shifts = [64 - int(mp.log(c, 2)) for c in coeffs]\n        // >>> print('\\n'.join(hex(int(c * (1 << s))) + ', ' + str(s) for c, s in zip(coeffs, shifts)))\n        int result = int(ONE) << 64;\n        int zpow = z;\n        result += 0xb17217f7d1cf79ab * zpow;\n        zpow = zpow * z / int(ONE);\n        result += 0xf5fdeffc162c7543 * zpow >> (66 - 64);\n        zpow = zpow * z / int(ONE);\n        result += 0xe35846b82505fc59 * zpow >> (68 - 64);\n        zpow = zpow * z / int(ONE);\n        result += 0x9d955b7dd273b94e * zpow >> (70 - 64);\n        zpow = zpow * z / int(ONE);\n        result += 0xaec3ff3c53398883 * zpow >> (73 - 64);\n        zpow = zpow * z / int(ONE);\n        result += 0xa184897c363c3b7a * zpow >> (76 - 64);\n        zpow = zpow * z / int(ONE);\n        result += 0xffe5fe2c45863435 * zpow >> (80 - 64);\n        zpow = zpow * z / int(ONE);\n        result += 0xb160111d2e411fec * zpow >> (83 - 64);\n        zpow = zpow * z / int(ONE);\n        result += 0xda929e9caf3e1ed2 * zpow >> (87 - 64);\n        zpow = zpow * z / int(ONE);\n        result += 0xf267a8ac5c764fb7 * zpow >> (91 - 64);\n        zpow = zpow * z / int(ONE);\n        result += 0xf465639a8dd92607 * zpow >> (95 - 64);\n        zpow = zpow * z / int(ONE);\n        result += 0xe1deb287e14c2f15 * zpow >> (99 - 64);\n        zpow = zpow * z / int(ONE);\n        result += 0xc0b0c98b3687cb14 * zpow >> (103 - 64);\n        zpow = zpow * z / int(ONE);\n        result += 0x98a4b26ac3c54b9f * zpow >> (107 - 64);\n        zpow = zpow * z / int(ONE);\n        result += 0xe1b7421d82010f33 * zpow >> (112 - 64);\n        zpow = zpow * z / int(ONE);\n        result += 0x9c744d73cfc59c91 * zpow >> (116 - 64);\n        zpow = zpow * z / int(ONE);\n        result += 0xcc2225a0e12d3eab * zpow >> (121 - 64);\n        zpow = zpow * z / int(ONE);\n        zpow = 0xfb8bb5eda1b4aeb9 * zpow >> (126 - 64);\n        result += zpow;\n        zpow = int(8 * ONE);\n\n        shift -= 64;\n        if (shift >= 0) {\n            if (result >> (256-shift) == 0) {\n                lower = uint(result) << shift;\n                zpow <<= shift; // todo: is this safe?\n                if (lower + uint(zpow) >= lower)\n                    upper = lower + uint(zpow);\n                else\n                    upper = 2**256-1;\n                return (lower, upper);\n            }\n            else\n                return (2**256-1, 2**256-1);\n        }\n        zpow = (zpow >> (-shift)) + 1;\n        lower = uint(result) >> (-shift);\n        upper = lower + uint(zpow);\n        return (lower, upper);\n    }\n\n    /// @dev Returns natural logarithm value of given x\n    /// @param x x\n    /// @return ln(x)\n    function ln(uint x)\n        public\n        pure\n        returns (int)\n    {\n        (int lower, int upper) = log2Bounds(x);\n        return ((upper - lower) / 2 + lower) * int(ONE) / int(LOG2_E);\n    }\n\n    /// @dev Returns estimate of binaryLog(x) given x\n    /// @param x logarithm argument in fixed point\n    /// @param estimationMode whether to return a lower bound, upper bound, or a midpoint\n    /// @return estimate of binaryLog(x) in fixed point\n    function binaryLog(uint x, EstimationMode estimationMode)\n        public\n        pure\n        returns (int)\n    {\n        (int lower, int upper) = log2Bounds(x);\n        if(estimationMode == EstimationMode.LowerBound) {\n            return lower;\n        }\n        if(estimationMode == EstimationMode.UpperBound) {\n            return upper;\n        }\n        if(estimationMode == EstimationMode.Midpoint) {\n            return (upper - lower) / 2 + lower;\n        }\n        revert();\n    }\n\n    /// @dev Returns bounds for value of binaryLog(x) given x\n    /// @param x logarithm argument in fixed point\n    /// @return {\n    ///   \"lower\": \"lower bound of binaryLog(x) in fixed point\",\n    ///   \"upper\": \"upper bound of binaryLog(x) in fixed point\"\n    /// }\n    function log2Bounds(uint x)\n        public\n        pure\n        returns (int lower, int upper)\n    {\n        require(x > 0);\n        // compute ⌊log₂x⌋\n        lower = floorLog2(x);\n\n        uint y;\n        if (lower < 0)\n            y = x << uint(-lower);\n        else\n            y = x >> uint(lower);\n\n        lower *= int(ONE);\n\n        // y = x * 2^(-⌊log₂x⌋)\n        // so 1 <= y < 2\n        // and log₂x = ⌊log₂x⌋ + log₂y\n        for (int m = 1; m <= 64; m++) {\n            if(y == ONE) {\n                break;\n            }\n            y = y * y / ONE;\n            if(y >= 2 * ONE) {\n                lower += int(ONE >> m);\n                y /= 2;\n            }\n        }\n\n        return (lower, lower + 4);\n    }\n\n    /// @dev Returns base 2 logarithm value of given x\n    /// @param x x\n    /// @return logarithmic value\n    function floorLog2(uint x)\n        public\n        pure\n        returns (int lo)\n    {\n        lo = -64;\n        int hi = 193;\n        // I use a shift here instead of / 2 because it floors instead of rounding towards 0\n        int mid = (hi + lo) >> 1;\n        while((lo + 1) < hi) {\n            if (mid < 0 && x << uint(-mid) < ONE || mid >= 0 && x >> uint(mid) < ONE)\n                hi = mid;\n            else\n                lo = mid;\n            mid = (hi + lo) >> 1;\n        }\n    }\n\n    /// @dev Returns maximum of an array\n    /// @param nums Numbers to look through\n    /// @return Maximum number\n    function max(int[] memory nums)\n        public\n        pure\n        returns (int maxNum)\n    {\n        require(nums.length > 0);\n        maxNum = -2**255;\n        for (uint i = 0; i < nums.length; i++)\n            if (nums[i] > maxNum)\n                maxNum = nums[i];\n    }\n}\n",
  "sourcePath": "/Users/alex/alice/impact-signalling/contracts/Fixed192x64Math.sol",
  "compiler": {
    "name": "solc",
    "version": "0.5.2+commit.1df8f40c.Emscripten.clang"
  },
  "schemaVersion": "3.0.10",
  "updatedAt": "2019-11-23T10:14:19.638Z",
  "devdoc": {
    "author": "Alan Lu - <alan.lu@gnosis.pm>Stefan George - <stefan@gnosis.pm>",
    "methods": {
      "binaryLog(uint256,Fixed192x64Math.EstimationMode)": {
        "details": "Returns estimate of binaryLog(x) given x",
        "params": {
          "estimationMode": "whether to return a lower bound, upper bound, or a midpoint",
          "x": "logarithm argument in fixed point"
        },
        "return": "estimate of binaryLog(x) in fixed point"
      },
      "exp(int256)": {
        "details": "Returns natural exponential function value of given x",
        "params": {
          "x": "x"
        },
        "return": "e**x"
      },
      "floorLog2(uint256)": {
        "details": "Returns base 2 logarithm value of given x",
        "params": {
          "x": "x"
        },
        "return": "logarithmic value"
      },
      "ln(uint256)": {
        "details": "Returns natural logarithm value of given x",
        "params": {
          "x": "x"
        },
        "return": "ln(x)"
      },
      "log2Bounds(uint256)": {
        "details": "Returns bounds for value of binaryLog(x) given x",
        "params": {
          "x": "logarithm argument in fixed point"
        },
        "return": "{   \"lower\": \"lower bound of binaryLog(x) in fixed point\",   \"upper\": \"upper bound of binaryLog(x) in fixed point\" }"
      },
      "max(int256[])": {
        "details": "Returns maximum of an array",
        "params": {
          "nums": "Numbers to look through"
        },
        "return": "Maximum number"
      },
      "pow2(int256,Fixed192x64Math.EstimationMode)": {
        "details": "Returns estimate of 2**x given x",
        "params": {
          "estimationMode": "whether to return a lower bound, upper bound, or a midpoint",
          "x": "exponent in fixed point"
        },
        "return": "estimate of 2**x in fixed point"
      },
      "pow2Bounds(int256)": {
        "details": "Returns bounds for value of 2**x given x",
        "params": {
          "x": "exponent in fixed point"
        },
        "return": "{   \"lower\": \"lower bound of 2**x in fixed point\",   \"upper\": \"upper bound of 2**x in fixed point\" }"
      }
    },
    "title": "Fixed192x64Math library - Allows calculation of logarithmic and exponential functions"
  },
  "userdoc": {
    "methods": {}
  }
}