{
  "contractName": "LMSRMarketMaker",
  "abi": [
    {
      "constant": true,
      "inputs": [
        {
          "name": "interfaceId",
          "type": "bytes4"
        }
      ],
      "name": "supportsInterface",
      "outputs": [
        {
          "name": "",
          "type": "bool"
        }
      ],
      "payable": false,
      "stateMutability": "view",
      "type": "function"
    },
    {
      "constant": false,
      "inputs": [],
      "name": "resume",
      "outputs": [],
      "payable": false,
      "stateMutability": "nonpayable",
      "type": "function"
    },
    {
      "constant": true,
      "inputs": [],
      "name": "pmSystem",
      "outputs": [
        {
          "name": "",
          "type": "address"
        }
      ],
      "payable": false,
      "stateMutability": "view",
      "type": "function"
    },
    {
      "constant": false,
      "inputs": [
        {
          "name": "outcomeTokenAmounts",
          "type": "int256[]"
        },
        {
          "name": "collateralLimit",
          "type": "int256"
        }
      ],
      "name": "trade",
      "outputs": [
        {
          "name": "netCost",
          "type": "int256"
        }
      ],
      "payable": false,
      "stateMutability": "nonpayable",
      "type": "function"
    },
    {
      "constant": true,
      "inputs": [
        {
          "name": "i",
          "type": "uint256"
        }
      ],
      "name": "generateAtomicPositionId",
      "outputs": [
        {
          "name": "",
          "type": "uint256"
        }
      ],
      "payable": false,
      "stateMutability": "view",
      "type": "function"
    },
    {
      "constant": false,
      "inputs": [],
      "name": "close",
      "outputs": [],
      "payable": false,
      "stateMutability": "nonpayable",
      "type": "function"
    },
    {
      "constant": false,
      "inputs": [],
      "name": "withdrawFees",
      "outputs": [
        {
          "name": "fees",
          "type": "uint256"
        }
      ],
      "payable": false,
      "stateMutability": "nonpayable",
      "type": "function"
    },
    {
      "constant": false,
      "inputs": [],
      "name": "renounceOwnership",
      "outputs": [],
      "payable": false,
      "stateMutability": "nonpayable",
      "type": "function"
    },
    {
      "constant": false,
      "inputs": [],
      "name": "pause",
      "outputs": [],
      "payable": false,
      "stateMutability": "nonpayable",
      "type": "function"
    },
    {
      "constant": false,
      "inputs": [
        {
          "name": "fundingChange",
          "type": "int256"
        }
      ],
      "name": "changeFunding",
      "outputs": [],
      "payable": false,
      "stateMutability": "nonpayable",
      "type": "function"
    },
    {
      "constant": true,
      "inputs": [],
      "name": "owner",
      "outputs": [
        {
          "name": "",
          "type": "address"
        }
      ],
      "payable": false,
      "stateMutability": "view",
      "type": "function"
    },
    {
      "constant": true,
      "inputs": [],
      "name": "isOwner",
      "outputs": [
        {
          "name": "",
          "type": "bool"
        }
      ],
      "payable": false,
      "stateMutability": "view",
      "type": "function"
    },
    {
      "constant": true,
      "inputs": [],
      "name": "whitelist",
      "outputs": [
        {
          "name": "",
          "type": "address"
        }
      ],
      "payable": false,
      "stateMutability": "view",
      "type": "function"
    },
    {
      "constant": true,
      "inputs": [
        {
          "name": "outcomeTokenCost",
          "type": "uint256"
        }
      ],
      "name": "calcMarketFee",
      "outputs": [
        {
          "name": "",
          "type": "uint256"
        }
      ],
      "payable": false,
      "stateMutability": "view",
      "type": "function"
    },
    {
      "constant": true,
      "inputs": [],
      "name": "collateralToken",
      "outputs": [
        {
          "name": "",
          "type": "address"
        }
      ],
      "payable": false,
      "stateMutability": "view",
      "type": "function"
    },
    {
      "constant": false,
      "inputs": [
        {
          "name": "_operator",
          "type": "address"
        },
        {
          "name": "",
          "type": "address"
        },
        {
          "name": "",
          "type": "uint256[]"
        },
        {
          "name": "",
          "type": "uint256[]"
        },
        {
          "name": "",
          "type": "bytes"
        }
      ],
      "name": "onERC1155BatchReceived",
      "outputs": [
        {
          "name": "",
          "type": "bytes4"
        }
      ],
      "payable": false,
      "stateMutability": "nonpayable",
      "type": "function"
    },
    {
      "constant": true,
      "inputs": [],
      "name": "stage",
      "outputs": [
        {
          "name": "",
          "type": "uint8"
        }
      ],
      "payable": false,
      "stateMutability": "view",
      "type": "function"
    },
    {
      "constant": true,
      "inputs": [],
      "name": "funding",
      "outputs": [
        {
          "name": "",
          "type": "uint256"
        }
      ],
      "payable": false,
      "stateMutability": "view",
      "type": "function"
    },
    {
      "constant": true,
      "inputs": [
        {
          "name": "",
          "type": "uint256"
        }
      ],
      "name": "conditionIds",
      "outputs": [
        {
          "name": "",
          "type": "bytes32"
        }
      ],
      "payable": false,
      "stateMutability": "view",
      "type": "function"
    },
    {
      "constant": true,
      "inputs": [],
      "name": "atomicOutcomeSlotCount",
      "outputs": [
        {
          "name": "",
          "type": "uint256"
        }
      ],
      "payable": false,
      "stateMutability": "view",
      "type": "function"
    },
    {
      "constant": true,
      "inputs": [],
      "name": "fee",
      "outputs": [
        {
          "name": "",
          "type": "uint64"
        }
      ],
      "payable": false,
      "stateMutability": "view",
      "type": "function"
    },
    {
      "constant": false,
      "inputs": [
        {
          "name": "_fee",
          "type": "uint64"
        }
      ],
      "name": "changeFee",
      "outputs": [],
      "payable": false,
      "stateMutability": "nonpayable",
      "type": "function"
    },
    {
      "constant": false,
      "inputs": [
        {
          "name": "operator",
          "type": "address"
        },
        {
          "name": "",
          "type": "address"
        },
        {
          "name": "",
          "type": "uint256"
        },
        {
          "name": "",
          "type": "uint256"
        },
        {
          "name": "",
          "type": "bytes"
        }
      ],
      "name": "onERC1155Received",
      "outputs": [
        {
          "name": "",
          "type": "bytes4"
        }
      ],
      "payable": false,
      "stateMutability": "nonpayable",
      "type": "function"
    },
    {
      "constant": false,
      "inputs": [
        {
          "name": "newOwner",
          "type": "address"
        }
      ],
      "name": "transferOwnership",
      "outputs": [],
      "payable": false,
      "stateMutability": "nonpayable",
      "type": "function"
    },
    {
      "constant": true,
      "inputs": [],
      "name": "FEE_RANGE",
      "outputs": [
        {
          "name": "",
          "type": "uint64"
        }
      ],
      "payable": false,
      "stateMutability": "view",
      "type": "function"
    },
    {
      "anonymous": false,
      "inputs": [
        {
          "indexed": false,
          "name": "initialFunding",
          "type": "uint256"
        }
      ],
      "name": "AMMCreated",
      "type": "event"
    },
    {
      "anonymous": false,
      "inputs": [],
      "name": "AMMPaused",
      "type": "event"
    },
    {
      "anonymous": false,
      "inputs": [],
      "name": "AMMResumed",
      "type": "event"
    },
    {
      "anonymous": false,
      "inputs": [],
      "name": "AMMClosed",
      "type": "event"
    },
    {
      "anonymous": false,
      "inputs": [
        {
          "indexed": false,
          "name": "fundingChange",
          "type": "int256"
        }
      ],
      "name": "AMMFundingChanged",
      "type": "event"
    },
    {
      "anonymous": false,
      "inputs": [
        {
          "indexed": false,
          "name": "newFee",
          "type": "uint64"
        }
      ],
      "name": "AMMFeeChanged",
      "type": "event"
    },
    {
      "anonymous": false,
      "inputs": [
        {
          "indexed": false,
          "name": "fees",
          "type": "uint256"
        }
      ],
      "name": "AMMFeeWithdrawal",
      "type": "event"
    },
    {
      "anonymous": false,
      "inputs": [
        {
          "indexed": true,
          "name": "transactor",
          "type": "address"
        },
        {
          "indexed": false,
          "name": "outcomeTokenAmounts",
          "type": "int256[]"
        },
        {
          "indexed": false,
          "name": "outcomeTokenNetCost",
          "type": "int256"
        },
        {
          "indexed": false,
          "name": "marketFees",
          "type": "uint256"
        }
      ],
      "name": "AMMOutcomeTokenTrade",
      "type": "event"
    },
    {
      "anonymous": false,
      "inputs": [
        {
          "indexed": false,
          "name": "priceBuyYes",
          "type": "int256"
        },
        {
          "indexed": false,
          "name": "priceSellYes",
          "type": "int256"
        },
        {
          "indexed": false,
          "name": "priceBuyNo",
          "type": "int256"
        },
        {
          "indexed": false,
          "name": "priceSellNo",
          "type": "int256"
        },
        {
          "indexed": false,
          "name": "timestamp",
          "type": "uint256"
        }
      ],
      "name": "AMMPriceChanged",
      "type": "event"
    },
    {
      "anonymous": false,
      "inputs": [
        {
          "indexed": true,
          "name": "previousOwner",
          "type": "address"
        },
        {
          "indexed": true,
          "name": "newOwner",
          "type": "address"
        }
      ],
      "name": "OwnershipTransferred",
      "type": "event"
    },
    {
      "constant": true,
      "inputs": [
        {
          "name": "outcomeTokenAmounts",
          "type": "int256[]"
        }
      ],
      "name": "calcNetCost",
      "outputs": [
        {
          "name": "netCost",
          "type": "int256"
        }
      ],
      "payable": false,
      "stateMutability": "view",
      "type": "function"
    },
    {
      "constant": true,
      "inputs": [
        {
          "name": "outcomeTokenIndex",
          "type": "uint8"
        }
      ],
      "name": "calcMarginalPrice",
      "outputs": [
        {
          "name": "price",
          "type": "uint256"
        }
      ],
      "payable": false,
      "stateMutability": "view",
      "type": "function"
    }
  ],
  "bytecode": "0x6080604052336000806101000a81548173ffffffffffffffffffffffffffffffffffffffff021916908373ffffffffffffffffffffffffffffffffffffffff1602179055506000809054906101000a900473ffffffffffffffffffffffffffffffffffffffff1673ffffffffffffffffffffffffffffffffffffffff16600073ffffffffffffffffffffffffffffffffffffffff167f8be0079c531659141344cd1fd0a4f28419497f9722a3daafe3b4186f6b6457e060405160405180910390a3620000fd6301ffc9a77c01000000000000000000000000000000000000000000000000000000000262000199640100000000026401000000009004565b62000193600073ffffffffffffffffffffffffffffffffffffffff1663bc197c8190507c010000000000000000000000000000000000000000000000000000000002600073ffffffffffffffffffffffffffffffffffffffff1663f23a6e6190507c0100000000000000000000000000000000000000000000000000000000021862000199640100000000026401000000009004565b620002c0565b63ffffffff7c010000000000000000000000000000000000000000000000000000000002817bffffffffffffffffffffffffffffffffffffffffffffffffffffffff19161415151562000254576040517f08c379a000000000000000000000000000000000000000000000000000000000815260040180806020018281038252601c8152602001807f4552433136353a20696e76616c696420696e746572666163652069640000000081525060200191505060405180910390fd5b6001806000837bffffffffffffffffffffffffffffffffffffffffffffffffffffffff19167bffffffffffffffffffffffffffffffffffffffffffffffffffffffff1916815260200190815260200160002060006101000a81548160ff02191690831515021790555050565b613d0c80620002d06000396000f3fe608060405234801561001057600080fd5b50600436106101c6576000357c01000000000000000000000000000000000000000000000000000000009004806393e59dc111610116578063d8c55af7116100b4578063e7f337891161008e578063e7f33789146108ea578063f23a6e6114610922578063f2fde38b14610a41578063fbde47f614610a85576101c6565b8063d8c55af714610858578063dd83bad21461089a578063ddca3f43146108b8576101c6565b8063b20f8e7f116100f0578063b20f8e7f14610614578063bc197c8114610659578063c040e6b81461080e578063cb4c86b71461083a576101c6565b806393e59dc11461053e578063b001150914610588578063b2016bd4146105ca576101c6565b8063476343ee116101835780638456cb591161015d5780638456cb591461049a57806387f39a5c146104a45780638da5cb5b146104d25780638f32d59b1461051c576101c6565b8063476343ee146103a6578063715018a6146103c4578063782d085b146103ce576101c6565b806301ffc9a7146101cb578063046f7da21461023057806305be8b2c1461023a57806315bd76111461028457806315c8c9eb1461035a57806343d726d61461039c575b600080fd5b610216600480360360208110156101e157600080fd5b8101908080357bffffffffffffffffffffffffffffffffffffffffffffffffffffffff19169060200190929190505050610ab7565b604051808215151515815260200191505060405180910390f35b610238610b1f565b005b610242610c23565b604051808273ffffffffffffffffffffffffffffffffffffffff1673ffffffffffffffffffffffffffffffffffffffff16815260200191505060405180910390f35b6103446004803603604081101561029a57600080fd5b81019080803590602001906401000000008111156102b757600080fd5b8201836020820111156102c957600080fd5b803590602001918460208302840111640100000000831117156102eb57600080fd5b919080806020026020016040519081016040528093929190818152602001838360200280828437600081840152601f19601f82011690508083019250505050505050919291929080359060200190929190505050610c49565b6040518082815260200191505060405180910390f35b6103866004803603602081101561037057600080fd5b8101908080359060200190929190505050611812565b6040518082815260200191505060405180910390f35b6103a4611835565b005b6103ae611c0f565b6040518082815260200191505060405180910390f35b6103cc611ed1565b005b610484600480360360208110156103e457600080fd5b810190808035906020019064010000000081111561040157600080fd5b82018360208201111561041357600080fd5b8035906020019184602083028401116401000000008311171561043557600080fd5b919080806020026020016040519081016040528093929190818152602001838360200280828437600081840152601f19601f82011690508083019250505050505050919291929050505061200c565b6040518082815260200191505060405180910390f35b6104a2612432565b005b6104d0600480360360208110156104ba57600080fd5b8101908080359060200190929190505050612536565b005b6104da612ab2565b604051808273ffffffffffffffffffffffffffffffffffffffff1673ffffffffffffffffffffffffffffffffffffffff16815260200191505060405180910390f35b610524612adb565b604051808215151515815260200191505060405180910390f35b610546612b32565b604051808273ffffffffffffffffffffffffffffffffffffffff1673ffffffffffffffffffffffffffffffffffffffff16815260200191505060405180910390f35b6105b46004803603602081101561059e57600080fd5b8101908080359060200190929190505050612b58565b6040518082815260200191505060405180910390f35b6105d2612ba1565b604051808273ffffffffffffffffffffffffffffffffffffffff1673ffffffffffffffffffffffffffffffffffffffff16815260200191505060405180910390f35b6106436004803603602081101561062a57600080fd5b81019080803560ff169060200190929190505050612bc7565b6040518082815260200191505060405180910390f35b6107ba600480360360a081101561066f57600080fd5b81019080803573ffffffffffffffffffffffffffffffffffffffff169060200190929190803573ffffffffffffffffffffffffffffffffffffffff169060200190929190803590602001906401000000008111156106cc57600080fd5b8201836020820111156106de57600080fd5b8035906020019184602083028401116401000000008311171561070057600080fd5b90919293919293908035906020019064010000000081111561072157600080fd5b82018360208201111561073357600080fd5b8035906020019184602083028401116401000000008311171561075557600080fd5b90919293919293908035906020019064010000000081111561077657600080fd5b82018360208201111561078857600080fd5b803590602001918460018302840111640100000000831117156107aa57600080fd5b9091929391929390505050612e64565b60405180827bffffffffffffffffffffffffffffffffffffffffffffffffffffffff19167bffffffffffffffffffffffffffffffffffffffffffffffffffffffff1916815260200191505060405180910390f35b610816612ef5565b6040518082600281111561082657fe5b60ff16815260200191505060405180910390f35b610842612f08565b6040518082815260200191505060405180910390f35b6108846004803603602081101561086e57600080fd5b8101908080359060200190929190505050612f0e565b6040518082815260200191505060405180910390f35b6108a2612f31565b6040518082815260200191505060405180910390f35b6108c0612f37565b604051808267ffffffffffffffff1667ffffffffffffffff16815260200191505060405180910390f35b6109206004803603602081101561090057600080fd5b81019080803567ffffffffffffffff169060200190929190505050612f51565b005b6109ed600480360360a081101561093857600080fd5b81019080803573ffffffffffffffffffffffffffffffffffffffff169060200190929190803573ffffffffffffffffffffffffffffffffffffffff1690602001909291908035906020019092919080359060200190929190803590602001906401000000008111156109a957600080fd5b8201836020820111156109bb57600080fd5b803590602001918460018302840111640100000000831117156109dd57600080fd5b9091929391929390505050613090565b60405180827bffffffffffffffffffffffffffffffffffffffffffffffffffffffff19167bffffffffffffffffffffffffffffffffffffffffffffffffffffffff1916815260200191505060405180910390f35b610a8360048036036020811015610a5757600080fd5b81019080803573ffffffffffffffffffffffffffffffffffffffff16906020019092919050505061311f565b005b610a8d6131a7565b604051808267ffffffffffffffff1667ffffffffffffffff16815260200191505060405180910390f35b600060016000837bffffffffffffffffffffffffffffffffffffffffffffffffffffffff19167bffffffffffffffffffffffffffffffffffffffffffffffffffffffff1916815260200190815260200160002060009054906101000a900460ff169050919050565b610b27612adb565b1515610b9b576040517f08c379a00000000000000000000000000000000000000000000000000000000081526004018080602001828103825260208152602001807f4f776e61626c653a2063616c6c6572206973206e6f7420746865206f776e657281525060200191505060405180910390fd5b6001806002811115610ba957fe5b600860009054906101000a900460ff166002811115610bc457fe5b141515610bd057600080fd5b6000600860006101000a81548160ff02191690836002811115610bef57fe5b02179055507fb0cf596e1402e50b88a6d1097918e48922e4a2878ece11d7bb51b5d81cf6c17860405160405180910390a150565b600260009054906101000a900473ffffffffffffffffffffffffffffffffffffffff1681565b600080806002811115610c5857fe5b600860009054906101000a900460ff166002811115610c7357fe5b141515610c7f57600080fd5b600073ffffffffffffffffffffffffffffffffffffffff16600860019054906101000a900473ffffffffffffffffffffffffffffffffffffffff1673ffffffffffffffffffffffffffffffffffffffff161480610dce5750600860019054906101000a900473ffffffffffffffffffffffffffffffffffffffff1673ffffffffffffffffffffffffffffffffffffffff16633af32abf336040518263ffffffff167c0100000000000000000000000000000000000000000000000000000000028152600401808273ffffffffffffffffffffffffffffffffffffffff1673ffffffffffffffffffffffffffffffffffffffff16815260200191505060206040518083038186803b158015610d9257600080fd5b505afa158015610da6573d6000803e3d6000fd5b505050506040513d6020811015610dbc57600080fd5b81019080805190602001909291905050505b1515610e25576040517f08c379a000000000000000000000000000000000000000000000000000000000815260040180806020018281038252602d815260200180613c91602d913960400191505060405180910390fd5b6005548451141515610e3657600080fd5b6000610e418561200c565b9050600080821215610e6057610e5982600003612b58565b9050610e6c565b610e6982612b58565b90505b60008112151515610e7c57600080fd5b610e8f81836131b390919063ffffffff16565b935060008514158015610ea25750848413155b80610ead5750600085145b1515610eb857600080fd5b600082131561113457600360009054906101000a900473ffffffffffffffffffffffffffffffffffffffff1673ffffffffffffffffffffffffffffffffffffffff166323b872dd3330876040518463ffffffff167c0100000000000000000000000000000000000000000000000000000000028152600401808473ffffffffffffffffffffffffffffffffffffffff1673ffffffffffffffffffffffffffffffffffffffff1681526020018373ffffffffffffffffffffffffffffffffffffffff1673ffffffffffffffffffffffffffffffffffffffff1681526020018281526020019350505050602060405180830381600087803b158015610fba57600080fd5b505af1158015610fce573d6000803e3d6000fd5b505050506040513d6020811015610fe457600080fd5b8101908080519060200190929190505050801561111f5750600360009054906101000a900473ffffffffffffffffffffffffffffffffffffffff1673ffffffffffffffffffffffffffffffffffffffff1663095ea7b3600260009054906101000a900473ffffffffffffffffffffffffffffffffffffffff16846040518363ffffffff167c0100000000000000000000000000000000000000000000000000000000028152600401808373ffffffffffffffffffffffffffffffffffffffff1673ffffffffffffffffffffffffffffffffffffffff16815260200182815260200192505050602060405180830381600087803b1580156110e357600080fd5b505af11580156110f7573d6000803e3d6000fd5b505050506040513d602081101561110d57600080fd5b81019080805190602001909291905050505b151561112a57600080fd5b611133826131ef565b5b60008090505b600554811015611432576000878281518110151561115457fe5b9060200190602002015114151561142557600061117082611812565b90506000888381518110151561118257fe5b9060200190602002015112156112de57600260009054906101000a900473ffffffffffffffffffffffffffffffffffffffff1673ffffffffffffffffffffffffffffffffffffffff1663f242432a3330848c878151811015156111e157fe5b906020019060200201516000036040518563ffffffff167c0100000000000000000000000000000000000000000000000000000000028152600401808573ffffffffffffffffffffffffffffffffffffffff1673ffffffffffffffffffffffffffffffffffffffff1681526020018473ffffffffffffffffffffffffffffffffffffffff1673ffffffffffffffffffffffffffffffffffffffff1681526020018381526020018281526020018060200182810382526000815260200160200195505050505050600060405180830381600087803b1580156112c157600080fd5b505af11580156112d5573d6000803e3d6000fd5b50505050611423565b600260009054906101000a900473ffffffffffffffffffffffffffffffffffffffff1673ffffffffffffffffffffffffffffffffffffffff1663f242432a3033848c8781518110151561132d57fe5b906020019060200201516040518563ffffffff167c0100000000000000000000000000000000000000000000000000000000028152600401808573ffffffffffffffffffffffffffffffffffffffff1673ffffffffffffffffffffffffffffffffffffffff1681526020018473ffffffffffffffffffffffffffffffffffffffff1673ffffffffffffffffffffffffffffffffffffffff1681526020018381526020018281526020018060200182810382526000815260200160200195505050505050600060405180830381600087803b15801561140a57600080fd5b505af115801561141e573d6000803e3d6000fd5b505050505b505b808060010191505061113a565b5060008212156115615761144882600003613419565b600084121561156057600360009054906101000a900473ffffffffffffffffffffffffffffffffffffffff1673ffffffffffffffffffffffffffffffffffffffff1663a9059cbb33866000036040518363ffffffff167c0100000000000000000000000000000000000000000000000000000000028152600401808373ffffffffffffffffffffffffffffffffffffffff1673ffffffffffffffffffffffffffffffffffffffff16815260200182815260200192505050602060405180830381600087803b15801561151957600080fd5b505af115801561152d573d6000803e3d6000fd5b505050506040513d602081101561154357600080fd5b8101908080519060200190929190505050151561155f57600080fd5b5b5b3373ffffffffffffffffffffffffffffffffffffffff167fda7ff5556ce7ecfcf06296f03426e8c02a7305b85cfd88816a32f7f4969051778784846040518080602001848152602001838152602001828103825285818151815260200191508051906020019060200280838360005b838110156115eb5780820151818401526020810190506115d0565b5050505090500194505050505060405180910390a2606060026040519080825280602002602001820160405280156116325781602001602082028038833980820191505090505b509050670de0b6b3a764000081600081518110151561164d57fe5b9060200190602002018181525050600081600181518110151561166c57fe5b906020019060200201818152505060006116858261200c565b90507ffffffffffffffffffffffffffffffffffffffffffffffffff21f494c589c00008260008151811015156116b757fe5b906020019060200201818152505060008260018151811015156116d657fe5b906020019060200201818152505060006116ef8361200c565b9050600083600081518110151561170257fe5b9060200190602002018181525050670de0b6b3a764000083600181518110151561172857fe5b906020019060200201818152505060006117418461200c565b9050600084600081518110151561175457fe5b90602001906020020181815250507ffffffffffffffffffffffffffffffffffffffffffffffffff21f494c589c000084600181518110151561179257fe5b906020019060200201818152505060006117ab8561200c565b90507f728be0a3b52a4e813602d313f081be0c767bd532ebadde4aa06ff2e3aa2676bc8484848442604051808681526020018581526020018481526020018381526020018281526020019550505050505060405180910390a1505050505050505092915050565b6000600b8281548110151561182357fe5b90600052602060002001549050919050565b61183d612adb565b15156118b1576040517f08c379a00000000000000000000000000000000000000000000000000000000081526004018080602001828103825260208152602001807f4f776e61626c653a2063616c6c6572206973206e6f7420746865206f776e657281525060200191505060405180910390fd5b600060028111156118be57fe5b600860009054906101000a900460ff1660028111156118d957fe5b148061190a5750600160028111156118ed57fe5b600860009054906101000a900460ff16600281111561190857fe5b145b1515611961576040517f08c379a0000000000000000000000000000000000000000000000000000000008152600401808060200182810382526023815260200180613cbe6023913960400191505060405180910390fd5b60008090505b600554811015611bbc57600061197c82611812565b9050600260009054906101000a900473ffffffffffffffffffffffffffffffffffffffff1673ffffffffffffffffffffffffffffffffffffffff1663f242432a306119c5612ab2565b84600260009054906101000a900473ffffffffffffffffffffffffffffffffffffffff1673ffffffffffffffffffffffffffffffffffffffff1662fdd58e30886040518363ffffffff167c0100000000000000000000000000000000000000000000000000000000028152600401808373ffffffffffffffffffffffffffffffffffffffff1673ffffffffffffffffffffffffffffffffffffffff1681526020018281526020019250505060206040518083038186803b158015611a8857600080fd5b505afa158015611a9c573d6000803e3d6000fd5b505050506040513d6020811015611ab257600080fd5b81019080805190602001909291905050506040518563ffffffff167c0100000000000000000000000000000000000000000000000000000000028152600401808573ffffffffffffffffffffffffffffffffffffffff1673ffffffffffffffffffffffffffffffffffffffff1681526020018473ffffffffffffffffffffffffffffffffffffffff1673ffffffffffffffffffffffffffffffffffffffff1681526020018381526020018281526020018060200182810382526000815260200160200195505050505050600060405180830381600087803b158015611b9657600080fd5b505af1158015611baa573d6000803e3d6000fd5b50505050508080600101915050611967565b506002600860006101000a81548160ff02191690836002811115611bdc57fe5b02179055507f6e18b1b14477b5922c6efa82206ed0e3b73c2500e8d1528c9a6e17554ea1255460405160405180910390a1565b6000611c19612adb565b1515611c8d576040517f08c379a00000000000000000000000000000000000000000000000000000000081526004018080602001828103825260208152602001807f4f776e61626c653a2063616c6c6572206973206e6f7420746865206f776e657281525060200191505060405180910390fd5b600360009054906101000a900473ffffffffffffffffffffffffffffffffffffffff1673ffffffffffffffffffffffffffffffffffffffff166370a08231306040518263ffffffff167c0100000000000000000000000000000000000000000000000000000000028152600401808273ffffffffffffffffffffffffffffffffffffffff1673ffffffffffffffffffffffffffffffffffffffff16815260200191505060206040518083038186803b158015611d4857600080fd5b505afa158015611d5c573d6000803e3d6000fd5b505050506040513d6020811015611d7257600080fd5b81019080805190602001909291905050509050600360009054906101000a900473ffffffffffffffffffffffffffffffffffffffff1673ffffffffffffffffffffffffffffffffffffffff1663a9059cbb611dcb612ab2565b836040518363ffffffff167c0100000000000000000000000000000000000000000000000000000000028152600401808373ffffffffffffffffffffffffffffffffffffffff1673ffffffffffffffffffffffffffffffffffffffff16815260200182815260200192505050602060405180830381600087803b158015611e5157600080fd5b505af1158015611e65573d6000803e3d6000fd5b505050506040513d6020811015611e7b57600080fd5b81019080805190602001909291905050501515611e9757600080fd5b7fce1d35d26fbf6b3cc5cd924de10b5a52b08e484129ea7d93abc48d739fffe5b9816040518082815260200191505060405180910390a190565b611ed9612adb565b1515611f4d576040517f08c379a00000000000000000000000000000000000000000000000000000000081526004018080602001828103825260208152602001807f4f776e61626c653a2063616c6c6572206973206e6f7420746865206f776e657281525060200191505060405180910390fd5b600073ffffffffffffffffffffffffffffffffffffffff166000809054906101000a900473ffffffffffffffffffffffffffffffffffffffff1673ffffffffffffffffffffffffffffffffffffffff167f8be0079c531659141344cd1fd0a4f28419497f9722a3daafe3b4186f6b6457e060405160405180910390a360008060006101000a81548173ffffffffffffffffffffffffffffffffffffffff021916908373ffffffffffffffffffffffffffffffffffffffff160217905550565b6000600554825114151561201f57600080fd5b60606005546040519080825280602002602001820160405280156120525781602001602082028038833980820191505090505b50905060008090505b6005548110156121d2576000600260009054906101000a900473ffffffffffffffffffffffffffffffffffffffff1673ffffffffffffffffffffffffffffffffffffffff1662fdd58e306120ae85611812565b6040518363ffffffff167c0100000000000000000000000000000000000000000000000000000000028152600401808373ffffffffffffffffffffffffffffffffffffffff1673ffffffffffffffffffffffffffffffffffffffff1681526020018281526020019250505060206040518083038186803b15801561213157600080fd5b505afa158015612145573d6000803e3d6000fd5b505050506040513d602081101561215b57600080fd5b810190808051906020019092919050505090506000811215151561217e57600080fd5b6121a881868481518110151561219057fe5b9060200190602002015161363d90919063ffffffff16565b83838151811015156121b657fe5b906020019060200201818152505050808060010191505061205b565b50600073__Fixed192x64Math_______________________63137bf798680100000000000000006005540260016040518363ffffffff167c01000000000000000000000000000000000000000000000000000000000281526004018083815260200182600281111561224057fe5b60ff1681526020019250505060206040518083038186803b15801561226457600080fd5b505af4158015612278573d6000803e3d6000fd5b505050506040513d602081101561228e57600080fd5b810190808051906020019092919050505090506000806122b2838560006001613679565b509150915073__Fixed192x64Math_______________________63137bf7988360016040518363ffffffff167c01000000000000000000000000000000000000000000000000000000000281526004018083815260200182600281111561231557fe5b60ff1681526020019250505060206040518083038186803b15801561233957600080fd5b505af415801561234d573d6000803e3d6000fd5b505050506040513d602081101561236357600080fd5b8101908080519060200190929190505050945061238981866131b390919063ffffffff16565b94506123c6600754846123ae680100000000000000008961392290919063ffffffff16565b8115156123b757fe5b0561392290919063ffffffff16565b94506000851315806123ed5750846801000000000000000080878115156123e957fe5b0502145b1561240e57680100000000000000008581151561240657fe5b059450612429565b6001680100000000000000008681151561242457fe5b050194505b50505050919050565b61243a612adb565b15156124ae576040517f08c379a00000000000000000000000000000000000000000000000000000000081526004018080602001828103825260208152602001807f4f776e61626c653a2063616c6c6572206973206e6f7420746865206f776e657281525060200191505060405180910390fd5b60008060028111156124bc57fe5b600860009054906101000a900460ff1660028111156124d757fe5b1415156124e357600080fd5b6001600860006101000a81548160ff0219169083600281111561250257fe5b02179055507fbb11914e7a395f00cf0920fe85f50088bd8d7681529fb0bd3c27ccb45a8bcd8f60405160405180910390a150565b61253e612adb565b15156125b2576040517f08c379a00000000000000000000000000000000000000000000000000000000081526004018080602001828103825260208152602001807f4f776e61626c653a2063616c6c6572206973206e6f7420746865206f776e657281525060200191505060405180910390fd5b60018060028111156125c057fe5b600860009054906101000a900460ff1660028111156125db57fe5b1415156125e757600080fd5b60008214151515612660576040517f08c379a000000000000000000000000000000000000000000000000000000000815260040180806020018281038252601f8152602001807f66756e64696e67206368616e6765206d757374206265206e6f6e2d7a65726f0081525060200191505060405180910390fd5b600082131561292e57600360009054906101000a900473ffffffffffffffffffffffffffffffffffffffff1673ffffffffffffffffffffffffffffffffffffffff166323b872dd3330856040518463ffffffff167c0100000000000000000000000000000000000000000000000000000000028152600401808473ffffffffffffffffffffffffffffffffffffffff1673ffffffffffffffffffffffffffffffffffffffff1681526020018373ffffffffffffffffffffffffffffffffffffffff1673ffffffffffffffffffffffffffffffffffffffff1681526020018281526020019350505050602060405180830381600087803b15801561276257600080fd5b505af1158015612776573d6000803e3d6000fd5b505050506040513d602081101561278c57600080fd5b810190808051906020019092919050505080156128c75750600360009054906101000a900473ffffffffffffffffffffffffffffffffffffffff1673ffffffffffffffffffffffffffffffffffffffff1663095ea7b3600260009054906101000a900473ffffffffffffffffffffffffffffffffffffffff16846040518363ffffffff167c0100000000000000000000000000000000000000000000000000000000028152600401808373ffffffffffffffffffffffffffffffffffffffff1673ffffffffffffffffffffffffffffffffffffffff16815260200182815260200192505050602060405180830381600087803b15801561288b57600080fd5b505af115801561289f573d6000803e3d6000fd5b505050506040513d60208110156128b557600080fd5b81019080805190602001909291905050505b15156128d257600080fd5b6128db826131ef565b6128f08260075461399690919063ffffffff16565b6007819055507fc55e9a33fb8b1de5318b5c7b96a32937e54006c82000b2c468ed1fb9f73f6799826040518082815260200191505060405180910390a15b6000821215612aae5761294382600003613419565b61295b82600003600754613a2090919063ffffffff16565b600781905550600360009054906101000a900473ffffffffffffffffffffffffffffffffffffffff1673ffffffffffffffffffffffffffffffffffffffff1663a9059cbb6129a7612ab2565b846000036040518363ffffffff167c0100000000000000000000000000000000000000000000000000000000028152600401808373ffffffffffffffffffffffffffffffffffffffff1673ffffffffffffffffffffffffffffffffffffffff16815260200182815260200192505050602060405180830381600087803b158015612a3057600080fd5b505af1158015612a44573d6000803e3d6000fd5b505050506040513d6020811015612a5a57600080fd5b81019080805190602001909291905050501515612a7657600080fd5b7fc55e9a33fb8b1de5318b5c7b96a32937e54006c82000b2c468ed1fb9f73f6799826040518082815260200191505060405180910390a15b5050565b60008060009054906101000a900473ffffffffffffffffffffffffffffffffffffffff16905090565b60008060009054906101000a900473ffffffffffffffffffffffffffffffffffffffff1673ffffffffffffffffffffffffffffffffffffffff163373ffffffffffffffffffffffffffffffffffffffff1614905090565b600860019054906101000a900473ffffffffffffffffffffffffffffffffffffffff1681565b6000670de0b6b3a764000067ffffffffffffffff16600660009054906101000a900467ffffffffffffffff1667ffffffffffffffff168302811515612b9957fe5b049050919050565b600360009054906101000a900473ffffffffffffffffffffffffffffffffffffffff1681565b60006060600554604051908082528060200260200182016040528015612bfc5781602001602082028038833980820191505090505b50905060008090505b600554811015612d56576000600260009054906101000a900473ffffffffffffffffffffffffffffffffffffffff1673ffffffffffffffffffffffffffffffffffffffff1662fdd58e30612c5885611812565b6040518363ffffffff167c0100000000000000000000000000000000000000000000000000000000028152600401808373ffffffffffffffffffffffffffffffffffffffff1673ffffffffffffffffffffffffffffffffffffffff1681526020018281526020019250505060206040518083038186803b158015612cdb57600080fd5b505afa158015612cef573d6000803e3d6000fd5b505050506040513d6020811015612d0557600080fd5b8101908080519060200190929190505050600003905060008113151515612d2b57600080fd5b808383815181101515612d3a57fe5b9060200190602002018181525050508080600101915050612c05565b50600073__Fixed192x64Math_______________________63137bf7986801000000000000000084510260026040518363ffffffff167c010000000000000000000000000000000000000000000000000000000002815260040180838152602001826002811115612dc357fe5b60ff1681526020019250505060206040518083038186803b158015612de757600080fd5b505af4158015612dfb573d6000803e3d6000fd5b505050506040513d6020811015612e1157600080fd5b81019080805190602001909291905050509050600080612e348385886002613679565b92505091506801000000000000000082811515612e4d57fe5b0481811515612e5857fe5b04945050505050919050565b60003073ffffffffffffffffffffffffffffffffffffffff168973ffffffffffffffffffffffffffffffffffffffff161415612ec55763bc197c817c0100000000000000000000000000000000000000000000000000000000029050612ee9565b60007c01000000000000000000000000000000000000000000000000000000000290505b98975050505050505050565b600860009054906101000a900460ff1681565b60075481565b600481815481101515612f1d57fe5b906000526020600020016000915090505481565b60055481565b600660009054906101000a900467ffffffffffffffff1681565b612f59612adb565b1515612fcd576040517f08c379a00000000000000000000000000000000000000000000000000000000081526004018080602001828103825260208152602001807f4f776e61626c653a2063616c6c6572206973206e6f7420746865206f776e657281525060200191505060405180910390fd5b6001806002811115612fdb57fe5b600860009054906101000a900460ff166002811115612ff657fe5b14151561300257600080fd5b81600660006101000a81548167ffffffffffffffff021916908367ffffffffffffffff1602179055507f43acfe4f4a14c012959016586aee3b318a0a30e17bb8edae05a58d46c80b4199600660009054906101000a900467ffffffffffffffff16604051808267ffffffffffffffff1667ffffffffffffffff16815260200191505060405180910390a15050565b60003073ffffffffffffffffffffffffffffffffffffffff168773ffffffffffffffffffffffffffffffffffffffff1614156130f15763f23a6e617c0100000000000000000000000000000000000000000000000000000000029050613115565b60007c01000000000000000000000000000000000000000000000000000000000290505b9695505050505050565b613127612adb565b151561319b576040517f08c379a00000000000000000000000000000000000000000000000000000000081526004018080602001828103825260208152602001807f4f776e61626c653a2063616c6c6572206973206e6f7420746865206f776e657281525060200191505060405180910390fd5b6131a481613aab565b50565b670de0b6b3a764000081565b60008183019050600082121580156131cb5750828112155b806131e157506000821280156131e057508281125b5b15156131e957fe5b92915050565b600060016004805490500390505b60008112151561341557606061322b60098381548110151561321b57fe5b9060005260206000200154613bf1565b905060008090505b600a8381548110151561324257fe5b906000526020600020018054905081101561340557600260009054906101000a900473ffffffffffffffffffffffffffffffffffffffff1673ffffffffffffffffffffffffffffffffffffffff166372ce4275600360009054906101000a900473ffffffffffffffffffffffffffffffffffffffff16600a868154811015156132c757fe5b90600052602060002001848154811015156132de57fe5b90600052602060002001546004878154811015156132f857fe5b906000526020600020015486896040518663ffffffff167c0100000000000000000000000000000000000000000000000000000000028152600401808673ffffffffffffffffffffffffffffffffffffffff1673ffffffffffffffffffffffffffffffffffffffff16815260200185815260200184815260200180602001838152602001828103825284818151815260200191508051906020019060200280838360005b838110156133b757808201518184015260208101905061339c565b505050509050019650505050505050600060405180830381600087803b1580156133e057600080fd5b505af11580156133f4573d6000803e3d6000fd5b505050508080600101915050613233565b50508080600190039150506131fd565b5050565b60008090505b60048054905081101561363957606061345060098381548110151561344057fe5b9060005260206000200154613bf1565b905060008090505b600a8381548110151561346757fe5b906000526020600020018054905081101561362a57600260009054906101000a900473ffffffffffffffffffffffffffffffffffffffff1673ffffffffffffffffffffffffffffffffffffffff16639e7212ad600360009054906101000a900473ffffffffffffffffffffffffffffffffffffffff16600a868154811015156134ec57fe5b906000526020600020018481548110151561350357fe5b906000526020600020015460048781548110151561351d57fe5b906000526020600020015486896040518663ffffffff167c0100000000000000000000000000000000000000000000000000000000028152600401808673ffffffffffffffffffffffffffffffffffffffff1673ffffffffffffffffffffffffffffffffffffffff16815260200185815260200184815260200180602001838152602001828103825284818151815260200191508051906020019060200280838360005b838110156135dc5780820151818401526020810190506135c1565b505050509050019650505050505050600060405180830381600087803b15801561360557600080fd5b505af1158015613619573d6000803e3d6000fd5b505050508080600101915050613458565b5050808060010191505061341f565b5050565b60008183039050600082121580156136555750828113155b8061366b575060008212801561366a57508281135b5b151561367357fe5b92915050565b60008060008087121580156136915750600060075412155b151561369c57600080fd5b73__Fixed192x64Math_______________________63ccc13814876040518263ffffffff167c01000000000000000000000000000000000000000000000000000000000281526004018080602001828103825283818151815260200191508051906020019060200280838360005b8381101561372557808201518184015260208101905061370a565b505050509050019250505060206040518083038186803b15801561374857600080fd5b505af415801561375c573d6000803e3d6000fd5b505050506040513d602081101561377257600080fd5b8101908080519060200190929190505050915060075461379b888461392290919063ffffffff16565b8115156137a457fe5b0591506137c368b800000000000000008361363d90919063ffffffff16565b9150600080600090505b87518160ff1610156139165773__Fixed192x64Math_______________________631d58012361383f866007546138278e8e8860ff1681518110151561380f57fe5b9060200190602002015161392290919063ffffffff16565b81151561383057fe5b0561363d90919063ffffffff16565b886040518363ffffffff167c01000000000000000000000000000000000000000000000000000000000281526004018083815260200182600281111561388157fe5b60ff1681526020019250505060206040518083038186803b1580156138a557600080fd5b505af41580156138b9573d6000803e3d6000fd5b505050506040513d60208110156138cf57600080fd5b810190808051906020019092919050505091508660ff168160ff1614156138f4578192505b613907828661399690919063ffffffff16565b945080806001019150506137cd565b50509450945094915050565b6000808314156139355760009050613990565b81830290507fffffffffffffffffffffffffffffffffffffffffffffffffffffffffffffffff83141580613971575060ff60019060020a028214155b8015613987575081838281151561398457fe5b05145b151561398f57fe5b5b92915050565b6000808284019050838110151515613a16576040517f08c379a000000000000000000000000000000000000000000000000000000000815260040180806020018281038252601b8152602001807f536166654d6174683a206164646974696f6e206f766572666c6f77000000000081525060200191505060405180910390fd5b8091505092915050565b6000828211151515613a9a576040517f08c379a000000000000000000000000000000000000000000000000000000000815260040180806020018281038252601e8152602001807f536166654d6174683a207375627472616374696f6e206f766572666c6f77000081525060200191505060405180910390fd5b600082840390508091505092915050565b600073ffffffffffffffffffffffffffffffffffffffff168173ffffffffffffffffffffffffffffffffffffffff1614151515613b33576040517f08c379a0000000000000000000000000000000000000000000000000000000008152600401808060200182810382526026815260200180613c6b6026913960400191505060405180910390fd5b8073ffffffffffffffffffffffffffffffffffffffff166000809054906101000a900473ffffffffffffffffffffffffffffffffffffffff1673ffffffffffffffffffffffffffffffffffffffff167f8be0079c531659141344cd1fd0a4f28419497f9722a3daafe3b4186f6b6457e060405160405180910390a3806000806101000a81548173ffffffffffffffffffffffffffffffffffffffff021916908373ffffffffffffffffffffffffffffffffffffffff16021790555050565b606081604051908082528060200260200182016040528015613c225781602001602082028038833980820191505090505b50905060008090505b82811015613c64578060019060020a028282815181101515613c4957fe5b90602001906020020181815250508080600101915050613c2b565b5091905056fe4f776e61626c653a206e6577206f776e657220697320746865207a65726f20616464726573736f6e6c792077686974656c6973746564207573657273206d61792063616c6c20746869732066756e6374696f6e54686973204d61726b65742068617320616c7265616479206265656e20636c6f736564a165627a7a723058207797c7b19d5addc74af08ae2a72d9144c5dbdff663a85017b710cc814986fcef0029",
  "source": "pragma solidity ^0.5.1;\nimport { SafeMath } from \"openzeppelin-solidity/contracts/math/SafeMath.sol\";\nimport { Fixed192x64Math } from \"@gnosis.pm/util-contracts/contracts/Fixed192x64Math.sol\";\nimport { MarketMaker } from \"./MarketMaker.sol\";\n\n/// @title LMSR market maker contract - Calculates share prices based on share distribution and initial funding\n/// @author Alan Lu - <alan.lu@gnosis.pm>\ncontract LMSRMarketMaker is MarketMaker {\n    using SafeMath for uint;\n\n    /*\n     *  Constants\n     */\n    uint constant ONE = 0x10000000000000000;\n    int constant EXP_LIMIT = 3394200909562557497344;\n\n    /// @dev Calculates the net cost for executing a given trade.\n    /// @param outcomeTokenAmounts Amounts of outcome tokens to buy from the market. If an amount is negative, represents an amount to sell to the market.\n    /// @return Net cost of trade. If positive, represents amount of collateral which would be paid to the market for the trade. If negative, represents amount of collateral which would be received from the market for the trade.\n    function calcNetCost(int[] memory outcomeTokenAmounts)\n        public\n        view\n        returns (int netCost)\n    {\n        require(outcomeTokenAmounts.length == atomicOutcomeSlotCount);\n\n        int[] memory otExpNums = new int[](atomicOutcomeSlotCount);\n        for (uint i = 0; i < atomicOutcomeSlotCount; i++) {\n            int balance = int(pmSystem.balanceOf(address(this), generateAtomicPositionId(i)));\n            require(balance >= 0);\n            otExpNums[i] = outcomeTokenAmounts[i].sub(balance);\n        }\n\n        int log2N = Fixed192x64Math.binaryLog(atomicOutcomeSlotCount * ONE, Fixed192x64Math.EstimationMode.UpperBound);\n\n        (uint sum, int offset, ) = sumExpOffset(log2N, otExpNums, 0, Fixed192x64Math.EstimationMode.UpperBound);\n        netCost = Fixed192x64Math.binaryLog(sum, Fixed192x64Math.EstimationMode.UpperBound);\n        netCost = netCost.add(offset);\n        netCost = (netCost.mul(int(ONE)) / log2N).mul(int(funding));\n\n        // Integer division for negative numbers already uses ceiling,\n        // so only check boundary condition for positive numbers\n        if(netCost <= 0 || netCost / int(ONE) * int(ONE) == netCost) {\n            netCost /= int(ONE);\n        } else {\n            netCost = netCost / int(ONE) + 1;\n        }\n    }\n\n    /// @dev Returns marginal price of an outcome\n    /// @param outcomeTokenIndex Index of outcome to determine marginal price of\n    /// @return Marginal price of an outcome as a fixed point number\n    function calcMarginalPrice(uint8 outcomeTokenIndex)\n        public\n        view\n        returns (uint price)\n    {\n        int[] memory negOutcomeTokenBalances = new int[](atomicOutcomeSlotCount);\n        for (uint i = 0; i < atomicOutcomeSlotCount; i++) {\n            int negBalance = -int(pmSystem.balanceOf(address(this), generateAtomicPositionId(i)));\n            require(negBalance <= 0);\n            negOutcomeTokenBalances[i] = negBalance;\n        }\n\n        int log2N = Fixed192x64Math.binaryLog(negOutcomeTokenBalances.length * ONE, Fixed192x64Math.EstimationMode.Midpoint);\n        // The price function is exp(quantities[i]/b) / sum(exp(q/b) for q in quantities)\n        // To avoid overflow, calculate with\n        // exp(quantities[i]/b - offset) / sum(exp(q/b - offset) for q in quantities)\n        (uint sum, , uint outcomeExpTerm) = sumExpOffset(log2N, negOutcomeTokenBalances, outcomeTokenIndex, Fixed192x64Math.EstimationMode.Midpoint);\n        return outcomeExpTerm / (sum / ONE);\n    }\n\n    /*\n     *  Private functions\n     */\n    /// @dev Calculates sum(exp(q/b - offset) for q in quantities), where offset is set\n    ///      so that the sum fits in 248-256 bits\n    /// @param log2N Binary logarithm of the number of outcomes\n    /// @param otExpNums Numerators of the exponents, denoted as q in the aforementioned formula\n    /// @param outcomeIndex Index of exponential term to extract (for use by marginal price function)\n    /// @return A result structure composed of the sum, the offset used, and the summand associated with the supplied index\n    function sumExpOffset(int log2N, int[] memory otExpNums, uint8 outcomeIndex, Fixed192x64Math.EstimationMode estimationMode)\n        private\n        view\n        returns (uint sum, int offset, uint outcomeExpTerm)\n    {\n        // Naive calculation of this causes an overflow\n        // since anything above a bit over 133*ONE supplied to exp will explode\n        // as exp(133) just about fits into 192 bits of whole number data.\n\n        // The choice of this offset is subject to another limit:\n        // computing the inner sum successfully.\n        // Since the index is 8 bits, there has to be 8 bits of headroom for\n        // each summand, meaning q/b - offset <= exponential_limit,\n        // where that limit can be found with `mp.floor(mp.log((2**248 - 1) / ONE) * ONE)`\n        // That is what EXP_LIMIT is set to: it is about 127.5\n\n        // finally, if the distribution looks like [BIG, tiny, tiny...], using a\n        // BIG offset will cause the tiny quantities to go really negative\n        // causing the associated exponentials to vanish.\n\n        require(log2N >= 0 && int(funding) >= 0);\n        offset = Fixed192x64Math.max(otExpNums);\n        offset = offset.mul(log2N) / int(funding);\n        offset = offset.sub(EXP_LIMIT);\n        uint term;\n        for (uint8 i = 0; i < otExpNums.length; i++) {\n            term = Fixed192x64Math.pow2((otExpNums[i].mul(log2N) / int(funding)).sub(offset), estimationMode);\n            if (i == outcomeIndex)\n                outcomeExpTerm = term;\n            sum = sum.add(term);\n        }\n    }\n}\n",
  "sourcePath": "/Users/alex/alice/impact-signalling/contracts/LMSRMarketMaker.sol",
  "compiler": {
    "name": "solc",
    "version": "0.5.2+commit.1df8f40c.Emscripten.clang"
  },
  "schemaVersion": "3.0.10",
  "updatedAt": "2019-11-05T12:07:44.746Z",
  "devdoc": {
    "author": "Alan Lu - <alan.lu@gnosis.pm>",
    "methods": {
      "calcMarginalPrice(uint8)": {
        "details": "Returns marginal price of an outcome",
        "params": {
          "outcomeTokenIndex": "Index of outcome to determine marginal price of"
        },
        "return": "Marginal price of an outcome as a fixed point number"
      },
      "calcMarketFee(uint256)": {
        "details": "Calculates fee to be paid to market maker",
        "params": {
          "outcomeTokenCost": "Cost for buying outcome tokens"
        },
        "return": "Fee for trade"
      },
      "calcNetCost(int256[])": {
        "details": "Calculates the net cost for executing a given trade.",
        "params": {
          "outcomeTokenAmounts": "Amounts of outcome tokens to buy from the market. If an amount is negative, represents an amount to sell to the market."
        },
        "return": "Net cost of trade. If positive, represents amount of collateral which would be paid to the market for the trade. If negative, represents amount of collateral which would be received from the market for the trade."
      },
      "changeFunding(int256)": {
        "details": "Allows to fund the market with collateral tokens converting them into outcome tokens Note for the future: should combine splitPosition and mergePositions into one function, as code duplication causes things like this to happen."
      },
      "close()": {
        "details": "Allows market owner to close the markets by transferring all remaining outcome tokens to the owner"
      },
      "isOwner()": {
        "details": "Returns true if the caller is the current owner."
      },
      "owner()": {
        "details": "Returns the address of the current owner."
      },
      "renounceOwnership()": {
        "details": "Leaves the contract without owner. It will not be possible to call `onlyOwner` functions anymore. Can only be called by the current owner.     * > Note: Renouncing ownership will leave the contract without an owner, thereby removing any functionality that is only available to the owner."
      },
      "supportsInterface(bytes4)": {
        "details": "See `IERC165.supportsInterface`.     * Time complexity O(1), guaranteed to always use less than 30 000 gas."
      },
      "trade(int256[],int256)": {
        "details": "Allows to trade outcome tokens and collateral with the market maker",
        "params": {
          "collateralLimit": "If positive, this is the limit for the amount of collateral tokens which will be sent to the market to conduct the trade. If negative, this is the minimum amount of collateral tokens which will be received from the market for the trade. If zero, there is no limit.",
          "outcomeTokenAmounts": "Amounts of each atomic outcome token to buy or sell. If positive, will buy this amount of outcome token from the market. If negative, will sell this amount back to the market instead. The indices of this array range from 0 to product(all conditions' outcomeSlotCounts)-1. For example, with two conditions with three outcome slots each and one condition with two outcome slots, you will have 3*3*2=18 total atomic outcome tokens, and the indices will range from 0 to 17. The indices map to atomic outcome slots depending on the order of the conditionIds. Let's say the first condition has slots A, B, C the second has slots X, Y, and the third has slots I, J, K. We can associate each atomic outcome token with indices by this map: A&X&I == 0 B&X&I == 1 C&X&I == 2 A&Y&I == 3 B&Y&I == 4 C&Y&I == 5 A&X&J == 6 B&X&J == 7 C&X&J == 8 A&Y&J == 9 B&Y&J == 10 C&Y&J == 11 A&X&K == 12 B&X&K == 13 C&X&K == 14 A&Y&K == 15 B&Y&K == 16 C&Y&K == 17 This order is calculated via the generateAtomicPositionId function below: C&Y&I -> (2, 1, 0) -> 2 + 3 * (1 + 2 * (0 + 3 * (0 + 0)))"
        },
        "return": "If positive, the amount of collateral sent to the market. If negative, the amount of collateral received from the market. If zero, no collateral was sent or received."
      },
      "transferOwnership(address)": {
        "details": "Transfers ownership of the contract to a new account (`newOwner`). Can only be called by the current owner."
      },
      "withdrawFees()": {
        "details": "Allows market owner to withdraw fees generated by trades",
        "return": "Fee amount"
      }
    },
    "title": "LMSR market maker contract - Calculates share prices based on share distribution and initial funding"
  },
  "userdoc": {
    "methods": {}
  }
}