{
  "contractName": "LMSRMarketMakerFactory",
  "abi": [
    {
      "constant": true,
      "inputs": [],
      "name": "implementationMaster",
      "outputs": [
        {
          "name": "",
          "type": "address"
        }
      ],
      "payable": false,
      "stateMutability": "view",
      "type": "function"
    },
    {
      "inputs": [],
      "payable": false,
      "stateMutability": "nonpayable",
      "type": "constructor"
    },
    {
      "anonymous": false,
      "inputs": [
        {
          "indexed": true,
          "name": "creator",
          "type": "address"
        },
        {
          "indexed": false,
          "name": "lmsrMarketMaker",
          "type": "address"
        },
        {
          "indexed": false,
          "name": "pmSystem",
          "type": "address"
        },
        {
          "indexed": false,
          "name": "collateralToken",
          "type": "address"
        },
        {
          "indexed": false,
          "name": "conditionIds",
          "type": "bytes32[]"
        },
        {
          "indexed": false,
          "name": "fee",
          "type": "uint64"
        },
        {
          "indexed": false,
          "name": "funding",
          "type": "uint256"
        }
      ],
      "name": "LMSRMarketMakerCreation",
      "type": "event"
    },
    {
      "anonymous": false,
      "inputs": [
        {
          "indexed": true,
          "name": "previousOwner",
          "type": "address"
        },
        {
          "indexed": true,
          "name": "newOwner",
          "type": "address"
        }
      ],
      "name": "OwnershipTransferred",
      "type": "event"
    },
    {
      "anonymous": false,
      "inputs": [
        {
          "indexed": false,
          "name": "initialFunding",
          "type": "uint256"
        }
      ],
      "name": "AMMCreated",
      "type": "event"
    },
    {
      "anonymous": false,
      "inputs": [
        {
          "indexed": true,
          "name": "target",
          "type": "address"
        },
        {
          "indexed": false,
          "name": "clone",
          "type": "address"
        }
      ],
      "name": "CloneCreated",
      "type": "event"
    },
    {
      "constant": false,
      "inputs": [
        {
          "name": "consData",
          "type": "bytes"
        }
      ],
      "name": "cloneConstructor",
      "outputs": [],
      "payable": false,
      "stateMutability": "nonpayable",
      "type": "function"
    },
    {
      "constant": false,
      "inputs": [
        {
          "name": "pmSystem",
          "type": "address"
        },
        {
          "name": "collateralToken",
          "type": "address"
        },
        {
          "name": "conditionIds",
          "type": "bytes32[]"
        },
        {
          "name": "fee",
          "type": "uint64"
        },
        {
          "name": "whitelist",
          "type": "address"
        },
        {
          "name": "funding",
          "type": "uint256"
        }
      ],
      "name": "createLMSRMarketMaker",
      "outputs": [
        {
          "name": "lmsrMarketMaker",
          "type": "address"
        }
      ],
      "payable": false,
      "stateMutability": "nonpayable",
      "type": "function"
    }
  ],
  "bytecode": "0x608060405234801561001057600080fd5b5061001961007b565b604051809103906000f080158015610035573d6000803e3d6000fd5b50600c60006101000a81548173ffffffffffffffffffffffffffffffffffffffff021916908373ffffffffffffffffffffffffffffffffffffffff16021790555061008c565b604051613fdc806200248983390190565b6123ed806200009c6000396000f3fe608060405234801561001057600080fd5b506004361061005e576000357c01000000000000000000000000000000000000000000000000000000009004806312b4d20c1461006357806352e831dd146100ad5780637c8b2c0714610126575b600080fd5b61006b61025d565b604051808273ffffffffffffffffffffffffffffffffffffffff1673ffffffffffffffffffffffffffffffffffffffff16815260200191505060405180910390f35b610124600480360360208110156100c357600080fd5b81019080803590602001906401000000008111156100e057600080fd5b8201836020820111156100f257600080fd5b8035906020019184600183028401116401000000008311171561011457600080fd5b9091929391929390505050610283565b005b61021b600480360360c081101561013c57600080fd5b81019080803573ffffffffffffffffffffffffffffffffffffffff169060200190929190803573ffffffffffffffffffffffffffffffffffffffff1690602001909291908035906020019064010000000081111561019957600080fd5b8201836020820111156101ab57600080fd5b803590602001918460208302840111640100000000831117156101cd57600080fd5b9091929391929390803567ffffffffffffffff169060200190929190803573ffffffffffffffffffffffffffffffffffffffff16906020019092919080359060200190929190505050610a13565b604051808273ffffffffffffffffffffffffffffffffffffffff1673ffffffffffffffffffffffffffffffffffffffff16815260200191505060405180910390f35b600c60009054906101000a900473ffffffffffffffffffffffffffffffffffffffff1681565b6000806060600080868660a081101561029b57600080fd5b81019080803573ffffffffffffffffffffffffffffffffffffffff169060200190929190803573ffffffffffffffffffffffffffffffffffffffff169060200190929190803590602001906401000000008111156102f857600080fd5b82018360208201111561030a57600080fd5b8035906020019184602083028401116401000000008311171561032c57600080fd5b919080806020026020016040519081016040528093929190818152602001838360200280828437600081840152601f19601f820116905080830192505050505050509192919290803567ffffffffffffffff169060200190929190803573ffffffffffffffffffffffffffffffffffffffff16906020019092919050505094509450945094509450336000806101000a81548173ffffffffffffffffffffffffffffffffffffffff021916908373ffffffffffffffffffffffffffffffffffffffff1602179055506000809054906101000a900473ffffffffffffffffffffffffffffffffffffffff1673ffffffffffffffffffffffffffffffffffffffff16600073ffffffffffffffffffffffffffffffffffffffff167f8be0079c531659141344cd1fd0a4f28419497f9722a3daafe3b4186f6b6457e060405160405180910390a360018060006301ffc9a77c0100000000000000000000000000000000000000000000000000000000027bffffffffffffffffffffffffffffffffffffffffffffffffffffffff19167bffffffffffffffffffffffffffffffffffffffffffffffffffffffff1916815260200190815260200160002060006101000a81548160ff02191690831515021790555060018060008073ffffffffffffffffffffffffffffffffffffffff1663bc197c8190507c010000000000000000000000000000000000000000000000000000000002600073ffffffffffffffffffffffffffffffffffffffff1663f23a6e6190507c010000000000000000000000000000000000000000000000000000000002187bffffffffffffffffffffffffffffffffffffffffffffffffffffffff19167bffffffffffffffffffffffffffffffffffffffffffffffffffffffff1916815260200190815260200160002060006101000a81548160ff021916908315150217905550600073ffffffffffffffffffffffffffffffffffffffff168573ffffffffffffffffffffffffffffffffffffffff16141580156106385750670de0b6b3a764000067ffffffffffffffff168267ffffffffffffffff16105b151561064357600080fd5b84600260006101000a81548173ffffffffffffffffffffffffffffffffffffffff021916908373ffffffffffffffffffffffffffffffffffffffff16021790555083600360006101000a81548173ffffffffffffffffffffffffffffffffffffffff021916908373ffffffffffffffffffffffffffffffffffffffff16021790555082600490805190602001906106db9291906121e3565b5081600660006101000a81548167ffffffffffffffff021916908367ffffffffffffffff16021790555080600860016101000a81548173ffffffffffffffffffffffffffffffffffffffff021916908373ffffffffffffffffffffffffffffffffffffffff16021790555060016005819055506004805490506040519080825280602002602001820160405280156107825781602001602082028038833980820191505090505b5060099080519060200190610798929190612230565b5060008090505b6004805490508110156108cf576000600260009054906101000a900473ffffffffffffffffffffffffffffffffffffffff1673ffffffffffffffffffffffffffffffffffffffff1663d42dc0c26004848154811015156107fb57fe5b90600052602060002001546040518263ffffffff167c01000000000000000000000000000000000000000000000000000000000281526004018082815260200191505060206040518083038186803b15801561085657600080fd5b505afa15801561086a573d6000803e3d6000fd5b505050506040513d602081101561088057600080fd5b8101908080519060200190929190505050905080600560008282540292505081905550806009838154811015156108b357fe5b906000526020600020018190555050808060010191505061079f565b50600160055411151561094a576040517f08c379a00000000000000000000000000000000000000000000000000000000081526004018080602001828103825260188152602001807f636f6e646974696f6e73206d7573742062652076616c6964000000000000000081525060200191505060405180910390fd5b60048054905060405190808252806020026020018201604052801561098357816020015b606081526020019060019003908161096e5790505b50600a908051906020019061099992919061227d565b506109ad6004805490506000600102611039565b6001600860006101000a81548160ff021916908360028111156109cc57fe5b02179055507f631ac92e0a879a687b1bd27a7dcbf3ec0be307aa0a1046c0df4109be02c493076007546040518082815260200191505060405180910390a150505050505050565b6000610b47600c60009054906101000a900473ffffffffffffffffffffffffffffffffffffffff16898989898989604051602001808773ffffffffffffffffffffffffffffffffffffffff1673ffffffffffffffffffffffffffffffffffffffff1681526020018673ffffffffffffffffffffffffffffffffffffffff1673ffffffffffffffffffffffffffffffffffffffff168152602001806020018467ffffffffffffffff1667ffffffffffffffff1681526020018373ffffffffffffffffffffffffffffffffffffffff1673ffffffffffffffffffffffffffffffffffffffff1681526020018281038252868682818152602001925060200280828437600081840152601f19601f82011690508083019250505097505050505050505060405160208183030381529060405261115e565b90508673ffffffffffffffffffffffffffffffffffffffff166323b872dd3330856040518463ffffffff167c0100000000000000000000000000000000000000000000000000000000028152600401808473ffffffffffffffffffffffffffffffffffffffff1673ffffffffffffffffffffffffffffffffffffffff1681526020018373ffffffffffffffffffffffffffffffffffffffff1673ffffffffffffffffffffffffffffffffffffffff1681526020018281526020019350505050602060405180830381600087803b158015610c2057600080fd5b505af1158015610c34573d6000803e3d6000fd5b505050506040513d6020811015610c4a57600080fd5b8101908080519060200190929190505050508673ffffffffffffffffffffffffffffffffffffffff1663095ea7b382846040518363ffffffff167c0100000000000000000000000000000000000000000000000000000000028152600401808373ffffffffffffffffffffffffffffffffffffffff1673ffffffffffffffffffffffffffffffffffffffff16815260200182815260200192505050602060405180830381600087803b158015610cff57600080fd5b505af1158015610d13573d6000803e3d6000fd5b505050506040513d6020811015610d2957600080fd5b8101908080519060200190929190505050508073ffffffffffffffffffffffffffffffffffffffff166387f39a5c836040518263ffffffff167c010000000000000000000000000000000000000000000000000000000002815260040180828152602001915050600060405180830381600087803b158015610daa57600080fd5b505af1158015610dbe573d6000803e3d6000fd5b505050508073ffffffffffffffffffffffffffffffffffffffff1663046f7da26040518163ffffffff167c0100000000000000000000000000000000000000000000000000000000028152600401600060405180830381600087803b158015610e2657600080fd5b505af1158015610e3a573d6000803e3d6000fd5b505050508073ffffffffffffffffffffffffffffffffffffffff1663f2fde38b336040518263ffffffff167c0100000000000000000000000000000000000000000000000000000000028152600401808273ffffffffffffffffffffffffffffffffffffffff1673ffffffffffffffffffffffffffffffffffffffff168152602001915050600060405180830381600087803b158015610ed957600080fd5b505af1158015610eed573d6000803e3d6000fd5b505050503373ffffffffffffffffffffffffffffffffffffffff167f6867cd3ddf1a2f1ce80923be4ebe91b6cdab90ef2266e1b5c38c3e509ad0d8f8828a8a8a8a8a89604051808873ffffffffffffffffffffffffffffffffffffffff1673ffffffffffffffffffffffffffffffffffffffff1681526020018773ffffffffffffffffffffffffffffffffffffffff1673ffffffffffffffffffffffffffffffffffffffff1681526020018673ffffffffffffffffffffffffffffffffffffffff1673ffffffffffffffffffffffffffffffffffffffff168152602001806020018467ffffffffffffffff1667ffffffffffffffff1681526020018381526020018281038252868682818152602001925060200280828437600081840152601f19601f8201169050808301925050509850505050505050505060405180910390a2979650505050505050565b600082141561109e57600b611070600360009054906101000a900473ffffffffffffffffffffffffffffffffffffffff1683611439565b908060018154018082558091505090600182039060005260206000200160009091929091909150555061115a565b81806001900392505060006009838154811015156110b857fe5b90600052602060002001549050600a838154811015156110d457fe5b9060005260206000200182908060018154018082558091505090600182039060005260206000200160009091929091909150555060008090505b818110156111575761114a846111458560048881548110151561112d57fe5b90600052602060002001548560019060020a026114b1565b611039565b808060010191505061110e565b50505b5050565b60006060826040516024018080602001828103825283818151815260200191508051906020019080838360005b838110156111a657808201518184015260208101905061118b565b50505050905090810190601f1680156111d35780820380516001836020036101000a031916815260200191505b50925050506040516020818303038152906040527f52e831dd000000000000000000000000000000000000000000000000000000007bffffffffffffffffffffffffffffffffffffffffffffffffffffffff19166020820180517bffffffffffffffffffffffffffffffffffffffffffffffffffffffff83818316178352505050509050606060638251016040519080825280601f01601f1916602001820160405280156112905781602001600182028038833980820191505090505b5090507f3d3d606380380380913d393d73bebebebebebebebebebebebebebebebebebebe60208201526c010000000000000000000000003002602d8201527f5af4602a57600080fd5b602d8060366000396000f3363d3d373d3d3d363d73be60418201526c01000000000000000000000000850260608201527f5af43d82803e903d91602b57fd5bf30000000000000000000000000000000000607482015260008090505b82518110156113e557828181518110151561134c57fe5b9060200101517f010000000000000000000000000000000000000000000000000000000000000090047f01000000000000000000000000000000000000000000000000000000000000000282826063018151811015156113a857fe5b9060200101907effffffffffffffffffffffffffffffffffffffffffffffffffffffffffffff1916908160001a9053508080600101915050611335565b5080516020820181816000f094505050600073ffffffffffffffffffffffffffffffffffffffff168373ffffffffffffffffffffffffffffffffffffffff161415151561143157600080fd5b505092915050565b60008282604051602001808373ffffffffffffffffffffffffffffffffffffffff1673ffffffffffffffffffffffffffffffffffffffff166c01000000000000000000000000028152601401828152602001925050506040516020818303038152906040528051906020012060019004905092915050565b600080838360405160200180838152602001828152602001925050506040516020818303038152906040528051906020012060019004905060008060ff83908060020a8204915050141590506000805b7f30644e72e131a029b85045b68181585d97816a916871ca8d3c208c16d87cfd4780151561152b57fe5b6001850893507f30644e72e131a029b85045b68181585d97816a916871ca8d3c208c16d87cfd4780151561155b57fe5b60037f30644e72e131a029b85045b68181585d97816a916871ca8d3c208c16d87cfd4780151561158757fe5b7f30644e72e131a029b85045b68181585d97816a916871ca8d3c208c16d87cfd478015156115b157fe5b87880987090890506115c281611a28565b9150807f30644e72e131a029b85045b68181585d97816a916871ca8d3c208c16d87cfd478015156115ef57fe5b83840914151515611501578280156116135750600060028381151561161057fe5b06145b806116345750821580156116335750600160028381151561163057fe5b06145b5b1561165f57817f30644e72e131a029b85045b68181585d97816a916871ca8d3c208c16d87cfd470391505b6000886001900490506000811415156119db57600060fe82908060020a820491505014159350600280829060020a02908060020a820491505090507f30644e72e131a029b85045b68181585d97816a916871ca8d3c208c16d87cfd478015156116c457fe5b60037f30644e72e131a029b85045b68181585d97816a916871ca8d3c208c16d87cfd478015156116f057fe5b7f30644e72e131a029b85045b68181585d97816a916871ca8d3c208c16d87cfd4780151561171a57fe5b8485098409089150600061172d83611a28565b90508480156117485750600060028281151561174557fe5b06145b806117695750841580156117685750600160028281151561176557fe5b06145b5b1561179457807f30644e72e131a029b85045b68181585d97816a916871ca8d3c208c16d87cfd470390505b827f30644e72e131a029b85045b68181585d97816a916871ca8d3c208c16d87cfd478015156117bf57fe5b828309141515611837576040517f08c379a000000000000000000000000000000000000000000000000000000000815260040180806020018281038252601c8152602001807f696e76616c696420706172656e7420636f6c6c656374696f6e2049440000000081525060200191505060405180910390fd5b60006060600673ffffffffffffffffffffffffffffffffffffffff1688878686604051602001808581526020018481526020018381526020018281526020019450505050506040516020818303038152906040526040518082805190602001908083835b6020831015156118c0578051825260208201915060208101905060208303925061189b565b6001836020036101000a038019825116818451168082178552505050505050905001915050600060405180830381855afa9150503d8060008114611920576040519150601f19603f3d011682016040523d82523d6000602084013e611925565b606091505b509150915081151561199f576040517f08c379a000000000000000000000000000000000000000000000000000000000815260040180806020018281038252600c8152602001807f6563616464206661696c6564000000000000000000000000000000000000000081525060200191505060405180910390fd5b8080602001905160408110156119b457600080fd5b81019080805190602001909291908051906020019092919050505080975081995050505050505b60016002848115156119e957fe5b061415611a16577f4000000000000000000000000000000000000000000000000000000000000000851894505b84600102955050505050509392505050565b6000807f30644e72e131a029b85045b68181585d97816a916871ca8d3c208c16d87cfd47905080838409915080828309818182099050818184099250818385099350818484099250818384099050818182098281830990508281820990508281820990508281830991508282860994508285860991508282830991508282850993508284850991508282830991508282830991508282850991508282860994508285860991508282830991508282830991508282860991508282850993508284860994508285860991508282830991508282850993508284850991508282830990508281820990508281820990508281830991508282860994508285850993508284850991508282830991508282830991508282860994508285860991508282830991508282860991508282830991508282830991508282860991508282850993508284850991508282830990508281820990508281830990508281850990508281820990508281820990508281820990508281820990508281830991508282860994508285860991508282860991508282850993508284850991508282850991508282830991508282830990508281830990508281820983818209905083818209905083818209905083818209905083818309915050828183099150828286099450828585099350828485099150828286099450828585099350828486099450828585099350828486099450828586099150828286099150828283099150828285099350828485099150828283099150828286099450828585099350828485099150828285099150828286099450828585099350828486099450828585099350828485099150828283099150828285099150828286099450828586099150828286099150828285099350828486099450828585099350828486099450828585099350828485099150828285099150828283099150828286099450828585099350828485099150828285099150828283099150828286099450828586099150828283099050828182099050828183099050828186099050828182099050828182099050828182099050828182099050828183099150828285099350828486099450828585099350828486099450828586099150828286099150828283099150828283099150828283099150828286099150828285099350828485099150828285099150828283099150828286099450828586099150828286099150828285099350828486099450828586099150828283099150828285099350828486099450828586099150828285099350828486099450828585099350828485099150828285099150828286099450828585099350828485099150828285099150828283099150828283099150828286099450828586099150828283099150828283099150828286099150828285099350828486099450828586099150828286099050828182099050828182099050828183099150828285099350828485099150828286099450828585099350828486099450828585099350828486099450828585099350828485099150828285099050828185099150828283099150828283099150828282099150508181850993508184840992508183850993508184840992508183850993508184850990508181850990508181840992505080828409925080838409925080838409925080838409925080838409925080838409925080838409925080838409925080838409925080838409925080838409925080838409925080838409925080838409925080838409925080838409925080838409925080838409925080838409925080838409925080838409925080838409925080838409925080838409925080838409925080838409925080838409925080838409925080838409925080838409925080838409925080838409925080838409925080838409925080838409925080838409925080838409925080838409925080838409925080838409925080838409925080838409925080838409925080838409925080838409925080838409925080838409925080838409925080838409925080838409925080838409925080838409925080838409925080838409925080838409925080838409925080838409925080838409925080838409925080838409925080838409925080838409925080838409925080838409925080838409925080838409925080838409925080838409925080838409925080838409925080838409925080838409925080838409925080838409925080838409925080838409925080838409925080838409925080838409925080838409925080838409925080838409925080838409925080838409925080838409925080838409925080838409925080838409925080838409925080838409925080838409925080838409925080838409925080838409925080838409925080838409925080838409925080838409925080838409925080838409925080838409925080838409925080838409925080838409925080838409925080838409925080838409925080838409925080838409925080838409925080838409925080838409925080838409925080838409925080838409925080838409925080838409925080838409925080838409925080838409925080838409925080838409925080838409925080838409925080838409925080838409925080838409925080838309915050919050565b82805482825590600052602060002090810192821561221f579160200282015b8281111561221e578251825591602001919060010190612203565b5b50905061222c91906122dd565b5090565b82805482825590600052602060002090810192821561226c579160200282015b8281111561226b578251825591602001919060010190612250565b5b5090506122799190612302565b5090565b8280548282559060005260206000209081019282156122cc579160200282015b828111156122cb5782518290805190602001906122bb929190612327565b509160200191906001019061229d565b5b5090506122d99190612374565b5090565b6122ff91905b808211156122fb5760008160009055506001016122e3565b5090565b90565b61232491905b80821115612320576000816000905550600101612308565b5090565b90565b828054828255906000526020600020908101928215612363579160200282015b82811115612362578251825591602001919060010190612347565b5b50905061237091906122dd565b5090565b61239d91905b80821115612399576000818161239091906123a0565b5060010161237a565b5090565b90565b50805460008255906000526020600020908101906123be91906122dd565b5056fea165627a7a723058200deafb0b21dccea12e1569ed396c74a62eb89ba34b55af971e1806152918298e00296080604052336000806101000a81548173ffffffffffffffffffffffffffffffffffffffff021916908373ffffffffffffffffffffffffffffffffffffffff1602179055506000809054906101000a900473ffffffffffffffffffffffffffffffffffffffff1673ffffffffffffffffffffffffffffffffffffffff16600073ffffffffffffffffffffffffffffffffffffffff167f8be0079c531659141344cd1fd0a4f28419497f9722a3daafe3b4186f6b6457e060405160405180910390a3620000fd6301ffc9a77c01000000000000000000000000000000000000000000000000000000000262000199640100000000026401000000009004565b62000193600073ffffffffffffffffffffffffffffffffffffffff1663bc197c8190507c010000000000000000000000000000000000000000000000000000000002600073ffffffffffffffffffffffffffffffffffffffff1663f23a6e6190507c0100000000000000000000000000000000000000000000000000000000021862000199640100000000026401000000009004565b620002c0565b63ffffffff7c010000000000000000000000000000000000000000000000000000000002817bffffffffffffffffffffffffffffffffffffffffffffffffffffffff19161415151562000254576040517f08c379a000000000000000000000000000000000000000000000000000000000815260040180806020018281038252601c8152602001807f4552433136353a20696e76616c696420696e746572666163652069640000000081525060200191505060405180910390fd5b6001806000837bffffffffffffffffffffffffffffffffffffffffffffffffffffffff19167bffffffffffffffffffffffffffffffffffffffffffffffffffffffff1916815260200190815260200160002060006101000a81548160ff02191690831515021790555050565b613d0c80620002d06000396000f3fe608060405234801561001057600080fd5b50600436106101c6576000357c01000000000000000000000000000000000000000000000000000000009004806393e59dc111610116578063d8c55af7116100b4578063e7f337891161008e578063e7f33789146108ea578063f23a6e6114610922578063f2fde38b14610a41578063fbde47f614610a85576101c6565b8063d8c55af714610858578063dd83bad21461089a578063ddca3f43146108b8576101c6565b8063b20f8e7f116100f0578063b20f8e7f14610614578063bc197c8114610659578063c040e6b81461080e578063cb4c86b71461083a576101c6565b806393e59dc11461053e578063b001150914610588578063b2016bd4146105ca576101c6565b8063476343ee116101835780638456cb591161015d5780638456cb591461049a57806387f39a5c146104a45780638da5cb5b146104d25780638f32d59b1461051c576101c6565b8063476343ee146103a6578063715018a6146103c4578063782d085b146103ce576101c6565b806301ffc9a7146101cb578063046f7da21461023057806305be8b2c1461023a57806315bd76111461028457806315c8c9eb1461035a57806343d726d61461039c575b600080fd5b610216600480360360208110156101e157600080fd5b8101908080357bffffffffffffffffffffffffffffffffffffffffffffffffffffffff19169060200190929190505050610ab7565b604051808215151515815260200191505060405180910390f35b610238610b1f565b005b610242610c23565b604051808273ffffffffffffffffffffffffffffffffffffffff1673ffffffffffffffffffffffffffffffffffffffff16815260200191505060405180910390f35b6103446004803603604081101561029a57600080fd5b81019080803590602001906401000000008111156102b757600080fd5b8201836020820111156102c957600080fd5b803590602001918460208302840111640100000000831117156102eb57600080fd5b919080806020026020016040519081016040528093929190818152602001838360200280828437600081840152601f19601f82011690508083019250505050505050919291929080359060200190929190505050610c49565b6040518082815260200191505060405180910390f35b6103866004803603602081101561037057600080fd5b8101908080359060200190929190505050611812565b6040518082815260200191505060405180910390f35b6103a4611835565b005b6103ae611c0f565b6040518082815260200191505060405180910390f35b6103cc611ed1565b005b610484600480360360208110156103e457600080fd5b810190808035906020019064010000000081111561040157600080fd5b82018360208201111561041357600080fd5b8035906020019184602083028401116401000000008311171561043557600080fd5b919080806020026020016040519081016040528093929190818152602001838360200280828437600081840152601f19601f82011690508083019250505050505050919291929050505061200c565b6040518082815260200191505060405180910390f35b6104a2612432565b005b6104d0600480360360208110156104ba57600080fd5b8101908080359060200190929190505050612536565b005b6104da612ab2565b604051808273ffffffffffffffffffffffffffffffffffffffff1673ffffffffffffffffffffffffffffffffffffffff16815260200191505060405180910390f35b610524612adb565b604051808215151515815260200191505060405180910390f35b610546612b32565b604051808273ffffffffffffffffffffffffffffffffffffffff1673ffffffffffffffffffffffffffffffffffffffff16815260200191505060405180910390f35b6105b46004803603602081101561059e57600080fd5b8101908080359060200190929190505050612b58565b6040518082815260200191505060405180910390f35b6105d2612ba1565b604051808273ffffffffffffffffffffffffffffffffffffffff1673ffffffffffffffffffffffffffffffffffffffff16815260200191505060405180910390f35b6106436004803603602081101561062a57600080fd5b81019080803560ff169060200190929190505050612bc7565b6040518082815260200191505060405180910390f35b6107ba600480360360a081101561066f57600080fd5b81019080803573ffffffffffffffffffffffffffffffffffffffff169060200190929190803573ffffffffffffffffffffffffffffffffffffffff169060200190929190803590602001906401000000008111156106cc57600080fd5b8201836020820111156106de57600080fd5b8035906020019184602083028401116401000000008311171561070057600080fd5b90919293919293908035906020019064010000000081111561072157600080fd5b82018360208201111561073357600080fd5b8035906020019184602083028401116401000000008311171561075557600080fd5b90919293919293908035906020019064010000000081111561077657600080fd5b82018360208201111561078857600080fd5b803590602001918460018302840111640100000000831117156107aa57600080fd5b9091929391929390505050612e64565b60405180827bffffffffffffffffffffffffffffffffffffffffffffffffffffffff19167bffffffffffffffffffffffffffffffffffffffffffffffffffffffff1916815260200191505060405180910390f35b610816612ef5565b6040518082600281111561082657fe5b60ff16815260200191505060405180910390f35b610842612f08565b6040518082815260200191505060405180910390f35b6108846004803603602081101561086e57600080fd5b8101908080359060200190929190505050612f0e565b6040518082815260200191505060405180910390f35b6108a2612f31565b6040518082815260200191505060405180910390f35b6108c0612f37565b604051808267ffffffffffffffff1667ffffffffffffffff16815260200191505060405180910390f35b6109206004803603602081101561090057600080fd5b81019080803567ffffffffffffffff169060200190929190505050612f51565b005b6109ed600480360360a081101561093857600080fd5b81019080803573ffffffffffffffffffffffffffffffffffffffff169060200190929190803573ffffffffffffffffffffffffffffffffffffffff1690602001909291908035906020019092919080359060200190929190803590602001906401000000008111156109a957600080fd5b8201836020820111156109bb57600080fd5b803590602001918460018302840111640100000000831117156109dd57600080fd5b9091929391929390505050613090565b60405180827bffffffffffffffffffffffffffffffffffffffffffffffffffffffff19167bffffffffffffffffffffffffffffffffffffffffffffffffffffffff1916815260200191505060405180910390f35b610a8360048036036020811015610a5757600080fd5b81019080803573ffffffffffffffffffffffffffffffffffffffff16906020019092919050505061311f565b005b610a8d6131a7565b604051808267ffffffffffffffff1667ffffffffffffffff16815260200191505060405180910390f35b600060016000837bffffffffffffffffffffffffffffffffffffffffffffffffffffffff19167bffffffffffffffffffffffffffffffffffffffffffffffffffffffff1916815260200190815260200160002060009054906101000a900460ff169050919050565b610b27612adb565b1515610b9b576040517f08c379a00000000000000000000000000000000000000000000000000000000081526004018080602001828103825260208152602001807f4f776e61626c653a2063616c6c6572206973206e6f7420746865206f776e657281525060200191505060405180910390fd5b6001806002811115610ba957fe5b600860009054906101000a900460ff166002811115610bc457fe5b141515610bd057600080fd5b6000600860006101000a81548160ff02191690836002811115610bef57fe5b02179055507fb0cf596e1402e50b88a6d1097918e48922e4a2878ece11d7bb51b5d81cf6c17860405160405180910390a150565b600260009054906101000a900473ffffffffffffffffffffffffffffffffffffffff1681565b600080806002811115610c5857fe5b600860009054906101000a900460ff166002811115610c7357fe5b141515610c7f57600080fd5b600073ffffffffffffffffffffffffffffffffffffffff16600860019054906101000a900473ffffffffffffffffffffffffffffffffffffffff1673ffffffffffffffffffffffffffffffffffffffff161480610dce5750600860019054906101000a900473ffffffffffffffffffffffffffffffffffffffff1673ffffffffffffffffffffffffffffffffffffffff16633af32abf336040518263ffffffff167c0100000000000000000000000000000000000000000000000000000000028152600401808273ffffffffffffffffffffffffffffffffffffffff1673ffffffffffffffffffffffffffffffffffffffff16815260200191505060206040518083038186803b158015610d9257600080fd5b505afa158015610da6573d6000803e3d6000fd5b505050506040513d6020811015610dbc57600080fd5b81019080805190602001909291905050505b1515610e25576040517f08c379a000000000000000000000000000000000000000000000000000000000815260040180806020018281038252602d815260200180613c91602d913960400191505060405180910390fd5b6005548451141515610e3657600080fd5b6000610e418561200c565b9050600080821215610e6057610e5982600003612b58565b9050610e6c565b610e6982612b58565b90505b60008112151515610e7c57600080fd5b610e8f81836131b390919063ffffffff16565b935060008514158015610ea25750848413155b80610ead5750600085145b1515610eb857600080fd5b600082131561113457600360009054906101000a900473ffffffffffffffffffffffffffffffffffffffff1673ffffffffffffffffffffffffffffffffffffffff166323b872dd3330876040518463ffffffff167c0100000000000000000000000000000000000000000000000000000000028152600401808473ffffffffffffffffffffffffffffffffffffffff1673ffffffffffffffffffffffffffffffffffffffff1681526020018373ffffffffffffffffffffffffffffffffffffffff1673ffffffffffffffffffffffffffffffffffffffff1681526020018281526020019350505050602060405180830381600087803b158015610fba57600080fd5b505af1158015610fce573d6000803e3d6000fd5b505050506040513d6020811015610fe457600080fd5b8101908080519060200190929190505050801561111f5750600360009054906101000a900473ffffffffffffffffffffffffffffffffffffffff1673ffffffffffffffffffffffffffffffffffffffff1663095ea7b3600260009054906101000a900473ffffffffffffffffffffffffffffffffffffffff16846040518363ffffffff167c0100000000000000000000000000000000000000000000000000000000028152600401808373ffffffffffffffffffffffffffffffffffffffff1673ffffffffffffffffffffffffffffffffffffffff16815260200182815260200192505050602060405180830381600087803b1580156110e357600080fd5b505af11580156110f7573d6000803e3d6000fd5b505050506040513d602081101561110d57600080fd5b81019080805190602001909291905050505b151561112a57600080fd5b611133826131ef565b5b60008090505b600554811015611432576000878281518110151561115457fe5b9060200190602002015114151561142557600061117082611812565b90506000888381518110151561118257fe5b9060200190602002015112156112de57600260009054906101000a900473ffffffffffffffffffffffffffffffffffffffff1673ffffffffffffffffffffffffffffffffffffffff1663f242432a3330848c878151811015156111e157fe5b906020019060200201516000036040518563ffffffff167c0100000000000000000000000000000000000000000000000000000000028152600401808573ffffffffffffffffffffffffffffffffffffffff1673ffffffffffffffffffffffffffffffffffffffff1681526020018473ffffffffffffffffffffffffffffffffffffffff1673ffffffffffffffffffffffffffffffffffffffff1681526020018381526020018281526020018060200182810382526000815260200160200195505050505050600060405180830381600087803b1580156112c157600080fd5b505af11580156112d5573d6000803e3d6000fd5b50505050611423565b600260009054906101000a900473ffffffffffffffffffffffffffffffffffffffff1673ffffffffffffffffffffffffffffffffffffffff1663f242432a3033848c8781518110151561132d57fe5b906020019060200201516040518563ffffffff167c0100000000000000000000000000000000000000000000000000000000028152600401808573ffffffffffffffffffffffffffffffffffffffff1673ffffffffffffffffffffffffffffffffffffffff1681526020018473ffffffffffffffffffffffffffffffffffffffff1673ffffffffffffffffffffffffffffffffffffffff1681526020018381526020018281526020018060200182810382526000815260200160200195505050505050600060405180830381600087803b15801561140a57600080fd5b505af115801561141e573d6000803e3d6000fd5b505050505b505b808060010191505061113a565b5060008212156115615761144882600003613419565b600084121561156057600360009054906101000a900473ffffffffffffffffffffffffffffffffffffffff1673ffffffffffffffffffffffffffffffffffffffff1663a9059cbb33866000036040518363ffffffff167c0100000000000000000000000000000000000000000000000000000000028152600401808373ffffffffffffffffffffffffffffffffffffffff1673ffffffffffffffffffffffffffffffffffffffff16815260200182815260200192505050602060405180830381600087803b15801561151957600080fd5b505af115801561152d573d6000803e3d6000fd5b505050506040513d602081101561154357600080fd5b8101908080519060200190929190505050151561155f57600080fd5b5b5b3373ffffffffffffffffffffffffffffffffffffffff167fda7ff5556ce7ecfcf06296f03426e8c02a7305b85cfd88816a32f7f4969051778784846040518080602001848152602001838152602001828103825285818151815260200191508051906020019060200280838360005b838110156115eb5780820151818401526020810190506115d0565b5050505090500194505050505060405180910390a2606060026040519080825280602002602001820160405280156116325781602001602082028038833980820191505090505b509050670de0b6b3a764000081600081518110151561164d57fe5b9060200190602002018181525050600081600181518110151561166c57fe5b906020019060200201818152505060006116858261200c565b90507ffffffffffffffffffffffffffffffffffffffffffffffffff21f494c589c00008260008151811015156116b757fe5b906020019060200201818152505060008260018151811015156116d657fe5b906020019060200201818152505060006116ef8361200c565b9050600083600081518110151561170257fe5b9060200190602002018181525050670de0b6b3a764000083600181518110151561172857fe5b906020019060200201818152505060006117418461200c565b9050600084600081518110151561175457fe5b90602001906020020181815250507ffffffffffffffffffffffffffffffffffffffffffffffffff21f494c589c000084600181518110151561179257fe5b906020019060200201818152505060006117ab8561200c565b90507f728be0a3b52a4e813602d313f081be0c767bd532ebadde4aa06ff2e3aa2676bc8484848442604051808681526020018581526020018481526020018381526020018281526020019550505050505060405180910390a1505050505050505092915050565b6000600b8281548110151561182357fe5b90600052602060002001549050919050565b61183d612adb565b15156118b1576040517f08c379a00000000000000000000000000000000000000000000000000000000081526004018080602001828103825260208152602001807f4f776e61626c653a2063616c6c6572206973206e6f7420746865206f776e657281525060200191505060405180910390fd5b600060028111156118be57fe5b600860009054906101000a900460ff1660028111156118d957fe5b148061190a5750600160028111156118ed57fe5b600860009054906101000a900460ff16600281111561190857fe5b145b1515611961576040517f08c379a0000000000000000000000000000000000000000000000000000000008152600401808060200182810382526023815260200180613cbe6023913960400191505060405180910390fd5b60008090505b600554811015611bbc57600061197c82611812565b9050600260009054906101000a900473ffffffffffffffffffffffffffffffffffffffff1673ffffffffffffffffffffffffffffffffffffffff1663f242432a306119c5612ab2565b84600260009054906101000a900473ffffffffffffffffffffffffffffffffffffffff1673ffffffffffffffffffffffffffffffffffffffff1662fdd58e30886040518363ffffffff167c0100000000000000000000000000000000000000000000000000000000028152600401808373ffffffffffffffffffffffffffffffffffffffff1673ffffffffffffffffffffffffffffffffffffffff1681526020018281526020019250505060206040518083038186803b158015611a8857600080fd5b505afa158015611a9c573d6000803e3d6000fd5b505050506040513d6020811015611ab257600080fd5b81019080805190602001909291905050506040518563ffffffff167c0100000000000000000000000000000000000000000000000000000000028152600401808573ffffffffffffffffffffffffffffffffffffffff1673ffffffffffffffffffffffffffffffffffffffff1681526020018473ffffffffffffffffffffffffffffffffffffffff1673ffffffffffffffffffffffffffffffffffffffff1681526020018381526020018281526020018060200182810382526000815260200160200195505050505050600060405180830381600087803b158015611b9657600080fd5b505af1158015611baa573d6000803e3d6000fd5b50505050508080600101915050611967565b506002600860006101000a81548160ff02191690836002811115611bdc57fe5b02179055507f6e18b1b14477b5922c6efa82206ed0e3b73c2500e8d1528c9a6e17554ea1255460405160405180910390a1565b6000611c19612adb565b1515611c8d576040517f08c379a00000000000000000000000000000000000000000000000000000000081526004018080602001828103825260208152602001807f4f776e61626c653a2063616c6c6572206973206e6f7420746865206f776e657281525060200191505060405180910390fd5b600360009054906101000a900473ffffffffffffffffffffffffffffffffffffffff1673ffffffffffffffffffffffffffffffffffffffff166370a08231306040518263ffffffff167c0100000000000000000000000000000000000000000000000000000000028152600401808273ffffffffffffffffffffffffffffffffffffffff1673ffffffffffffffffffffffffffffffffffffffff16815260200191505060206040518083038186803b158015611d4857600080fd5b505afa158015611d5c573d6000803e3d6000fd5b505050506040513d6020811015611d7257600080fd5b81019080805190602001909291905050509050600360009054906101000a900473ffffffffffffffffffffffffffffffffffffffff1673ffffffffffffffffffffffffffffffffffffffff1663a9059cbb611dcb612ab2565b836040518363ffffffff167c0100000000000000000000000000000000000000000000000000000000028152600401808373ffffffffffffffffffffffffffffffffffffffff1673ffffffffffffffffffffffffffffffffffffffff16815260200182815260200192505050602060405180830381600087803b158015611e5157600080fd5b505af1158015611e65573d6000803e3d6000fd5b505050506040513d6020811015611e7b57600080fd5b81019080805190602001909291905050501515611e9757600080fd5b7fce1d35d26fbf6b3cc5cd924de10b5a52b08e484129ea7d93abc48d739fffe5b9816040518082815260200191505060405180910390a190565b611ed9612adb565b1515611f4d576040517f08c379a00000000000000000000000000000000000000000000000000000000081526004018080602001828103825260208152602001807f4f776e61626c653a2063616c6c6572206973206e6f7420746865206f776e657281525060200191505060405180910390fd5b600073ffffffffffffffffffffffffffffffffffffffff166000809054906101000a900473ffffffffffffffffffffffffffffffffffffffff1673ffffffffffffffffffffffffffffffffffffffff167f8be0079c531659141344cd1fd0a4f28419497f9722a3daafe3b4186f6b6457e060405160405180910390a360008060006101000a81548173ffffffffffffffffffffffffffffffffffffffff021916908373ffffffffffffffffffffffffffffffffffffffff160217905550565b6000600554825114151561201f57600080fd5b60606005546040519080825280602002602001820160405280156120525781602001602082028038833980820191505090505b50905060008090505b6005548110156121d2576000600260009054906101000a900473ffffffffffffffffffffffffffffffffffffffff1673ffffffffffffffffffffffffffffffffffffffff1662fdd58e306120ae85611812565b6040518363ffffffff167c0100000000000000000000000000000000000000000000000000000000028152600401808373ffffffffffffffffffffffffffffffffffffffff1673ffffffffffffffffffffffffffffffffffffffff1681526020018281526020019250505060206040518083038186803b15801561213157600080fd5b505afa158015612145573d6000803e3d6000fd5b505050506040513d602081101561215b57600080fd5b810190808051906020019092919050505090506000811215151561217e57600080fd5b6121a881868481518110151561219057fe5b9060200190602002015161363d90919063ffffffff16565b83838151811015156121b657fe5b906020019060200201818152505050808060010191505061205b565b50600073__Fixed192x64Math_______________________63137bf798680100000000000000006005540260016040518363ffffffff167c01000000000000000000000000000000000000000000000000000000000281526004018083815260200182600281111561224057fe5b60ff1681526020019250505060206040518083038186803b15801561226457600080fd5b505af4158015612278573d6000803e3d6000fd5b505050506040513d602081101561228e57600080fd5b810190808051906020019092919050505090506000806122b2838560006001613679565b509150915073__Fixed192x64Math_______________________63137bf7988360016040518363ffffffff167c01000000000000000000000000000000000000000000000000000000000281526004018083815260200182600281111561231557fe5b60ff1681526020019250505060206040518083038186803b15801561233957600080fd5b505af415801561234d573d6000803e3d6000fd5b505050506040513d602081101561236357600080fd5b8101908080519060200190929190505050945061238981866131b390919063ffffffff16565b94506123c6600754846123ae680100000000000000008961392290919063ffffffff16565b8115156123b757fe5b0561392290919063ffffffff16565b94506000851315806123ed5750846801000000000000000080878115156123e957fe5b0502145b1561240e57680100000000000000008581151561240657fe5b059450612429565b6001680100000000000000008681151561242457fe5b050194505b50505050919050565b61243a612adb565b15156124ae576040517f08c379a00000000000000000000000000000000000000000000000000000000081526004018080602001828103825260208152602001807f4f776e61626c653a2063616c6c6572206973206e6f7420746865206f776e657281525060200191505060405180910390fd5b60008060028111156124bc57fe5b600860009054906101000a900460ff1660028111156124d757fe5b1415156124e357600080fd5b6001600860006101000a81548160ff0219169083600281111561250257fe5b02179055507fbb11914e7a395f00cf0920fe85f50088bd8d7681529fb0bd3c27ccb45a8bcd8f60405160405180910390a150565b61253e612adb565b15156125b2576040517f08c379a00000000000000000000000000000000000000000000000000000000081526004018080602001828103825260208152602001807f4f776e61626c653a2063616c6c6572206973206e6f7420746865206f776e657281525060200191505060405180910390fd5b60018060028111156125c057fe5b600860009054906101000a900460ff1660028111156125db57fe5b1415156125e757600080fd5b60008214151515612660576040517f08c379a000000000000000000000000000000000000000000000000000000000815260040180806020018281038252601f8152602001807f66756e64696e67206368616e6765206d757374206265206e6f6e2d7a65726f0081525060200191505060405180910390fd5b600082131561292e57600360009054906101000a900473ffffffffffffffffffffffffffffffffffffffff1673ffffffffffffffffffffffffffffffffffffffff166323b872dd3330856040518463ffffffff167c0100000000000000000000000000000000000000000000000000000000028152600401808473ffffffffffffffffffffffffffffffffffffffff1673ffffffffffffffffffffffffffffffffffffffff1681526020018373ffffffffffffffffffffffffffffffffffffffff1673ffffffffffffffffffffffffffffffffffffffff1681526020018281526020019350505050602060405180830381600087803b15801561276257600080fd5b505af1158015612776573d6000803e3d6000fd5b505050506040513d602081101561278c57600080fd5b810190808051906020019092919050505080156128c75750600360009054906101000a900473ffffffffffffffffffffffffffffffffffffffff1673ffffffffffffffffffffffffffffffffffffffff1663095ea7b3600260009054906101000a900473ffffffffffffffffffffffffffffffffffffffff16846040518363ffffffff167c0100000000000000000000000000000000000000000000000000000000028152600401808373ffffffffffffffffffffffffffffffffffffffff1673ffffffffffffffffffffffffffffffffffffffff16815260200182815260200192505050602060405180830381600087803b15801561288b57600080fd5b505af115801561289f573d6000803e3d6000fd5b505050506040513d60208110156128b557600080fd5b81019080805190602001909291905050505b15156128d257600080fd5b6128db826131ef565b6128f08260075461399690919063ffffffff16565b6007819055507fc55e9a33fb8b1de5318b5c7b96a32937e54006c82000b2c468ed1fb9f73f6799826040518082815260200191505060405180910390a15b6000821215612aae5761294382600003613419565b61295b82600003600754613a2090919063ffffffff16565b600781905550600360009054906101000a900473ffffffffffffffffffffffffffffffffffffffff1673ffffffffffffffffffffffffffffffffffffffff1663a9059cbb6129a7612ab2565b846000036040518363ffffffff167c0100000000000000000000000000000000000000000000000000000000028152600401808373ffffffffffffffffffffffffffffffffffffffff1673ffffffffffffffffffffffffffffffffffffffff16815260200182815260200192505050602060405180830381600087803b158015612a3057600080fd5b505af1158015612a44573d6000803e3d6000fd5b505050506040513d6020811015612a5a57600080fd5b81019080805190602001909291905050501515612a7657600080fd5b7fc55e9a33fb8b1de5318b5c7b96a32937e54006c82000b2c468ed1fb9f73f6799826040518082815260200191505060405180910390a15b5050565b60008060009054906101000a900473ffffffffffffffffffffffffffffffffffffffff16905090565b60008060009054906101000a900473ffffffffffffffffffffffffffffffffffffffff1673ffffffffffffffffffffffffffffffffffffffff163373ffffffffffffffffffffffffffffffffffffffff1614905090565b600860019054906101000a900473ffffffffffffffffffffffffffffffffffffffff1681565b6000670de0b6b3a764000067ffffffffffffffff16600660009054906101000a900467ffffffffffffffff1667ffffffffffffffff168302811515612b9957fe5b049050919050565b600360009054906101000a900473ffffffffffffffffffffffffffffffffffffffff1681565b60006060600554604051908082528060200260200182016040528015612bfc5781602001602082028038833980820191505090505b50905060008090505b600554811015612d56576000600260009054906101000a900473ffffffffffffffffffffffffffffffffffffffff1673ffffffffffffffffffffffffffffffffffffffff1662fdd58e30612c5885611812565b6040518363ffffffff167c0100000000000000000000000000000000000000000000000000000000028152600401808373ffffffffffffffffffffffffffffffffffffffff1673ffffffffffffffffffffffffffffffffffffffff1681526020018281526020019250505060206040518083038186803b158015612cdb57600080fd5b505afa158015612cef573d6000803e3d6000fd5b505050506040513d6020811015612d0557600080fd5b8101908080519060200190929190505050600003905060008113151515612d2b57600080fd5b808383815181101515612d3a57fe5b9060200190602002018181525050508080600101915050612c05565b50600073__Fixed192x64Math_______________________63137bf7986801000000000000000084510260026040518363ffffffff167c010000000000000000000000000000000000000000000000000000000002815260040180838152602001826002811115612dc357fe5b60ff1681526020019250505060206040518083038186803b158015612de757600080fd5b505af4158015612dfb573d6000803e3d6000fd5b505050506040513d6020811015612e1157600080fd5b81019080805190602001909291905050509050600080612e348385886002613679565b92505091506801000000000000000082811515612e4d57fe5b0481811515612e5857fe5b04945050505050919050565b60003073ffffffffffffffffffffffffffffffffffffffff168973ffffffffffffffffffffffffffffffffffffffff161415612ec55763bc197c817c0100000000000000000000000000000000000000000000000000000000029050612ee9565b60007c01000000000000000000000000000000000000000000000000000000000290505b98975050505050505050565b600860009054906101000a900460ff1681565b60075481565b600481815481101515612f1d57fe5b906000526020600020016000915090505481565b60055481565b600660009054906101000a900467ffffffffffffffff1681565b612f59612adb565b1515612fcd576040517f08c379a00000000000000000000000000000000000000000000000000000000081526004018080602001828103825260208152602001807f4f776e61626c653a2063616c6c6572206973206e6f7420746865206f776e657281525060200191505060405180910390fd5b6001806002811115612fdb57fe5b600860009054906101000a900460ff166002811115612ff657fe5b14151561300257600080fd5b81600660006101000a81548167ffffffffffffffff021916908367ffffffffffffffff1602179055507f43acfe4f4a14c012959016586aee3b318a0a30e17bb8edae05a58d46c80b4199600660009054906101000a900467ffffffffffffffff16604051808267ffffffffffffffff1667ffffffffffffffff16815260200191505060405180910390a15050565b60003073ffffffffffffffffffffffffffffffffffffffff168773ffffffffffffffffffffffffffffffffffffffff1614156130f15763f23a6e617c0100000000000000000000000000000000000000000000000000000000029050613115565b60007c01000000000000000000000000000000000000000000000000000000000290505b9695505050505050565b613127612adb565b151561319b576040517f08c379a00000000000000000000000000000000000000000000000000000000081526004018080602001828103825260208152602001807f4f776e61626c653a2063616c6c6572206973206e6f7420746865206f776e657281525060200191505060405180910390fd5b6131a481613aab565b50565b670de0b6b3a764000081565b60008183019050600082121580156131cb5750828112155b806131e157506000821280156131e057508281125b5b15156131e957fe5b92915050565b600060016004805490500390505b60008112151561341557606061322b60098381548110151561321b57fe5b9060005260206000200154613bf1565b905060008090505b600a8381548110151561324257fe5b906000526020600020018054905081101561340557600260009054906101000a900473ffffffffffffffffffffffffffffffffffffffff1673ffffffffffffffffffffffffffffffffffffffff166372ce4275600360009054906101000a900473ffffffffffffffffffffffffffffffffffffffff16600a868154811015156132c757fe5b90600052602060002001848154811015156132de57fe5b90600052602060002001546004878154811015156132f857fe5b906000526020600020015486896040518663ffffffff167c0100000000000000000000000000000000000000000000000000000000028152600401808673ffffffffffffffffffffffffffffffffffffffff1673ffffffffffffffffffffffffffffffffffffffff16815260200185815260200184815260200180602001838152602001828103825284818151815260200191508051906020019060200280838360005b838110156133b757808201518184015260208101905061339c565b505050509050019650505050505050600060405180830381600087803b1580156133e057600080fd5b505af11580156133f4573d6000803e3d6000fd5b505050508080600101915050613233565b50508080600190039150506131fd565b5050565b60008090505b60048054905081101561363957606061345060098381548110151561344057fe5b9060005260206000200154613bf1565b905060008090505b600a8381548110151561346757fe5b906000526020600020018054905081101561362a57600260009054906101000a900473ffffffffffffffffffffffffffffffffffffffff1673ffffffffffffffffffffffffffffffffffffffff16639e7212ad600360009054906101000a900473ffffffffffffffffffffffffffffffffffffffff16600a868154811015156134ec57fe5b906000526020600020018481548110151561350357fe5b906000526020600020015460048781548110151561351d57fe5b906000526020600020015486896040518663ffffffff167c0100000000000000000000000000000000000000000000000000000000028152600401808673ffffffffffffffffffffffffffffffffffffffff1673ffffffffffffffffffffffffffffffffffffffff16815260200185815260200184815260200180602001838152602001828103825284818151815260200191508051906020019060200280838360005b838110156135dc5780820151818401526020810190506135c1565b505050509050019650505050505050600060405180830381600087803b15801561360557600080fd5b505af1158015613619573d6000803e3d6000fd5b505050508080600101915050613458565b5050808060010191505061341f565b5050565b60008183039050600082121580156136555750828113155b8061366b575060008212801561366a57508281135b5b151561367357fe5b92915050565b60008060008087121580156136915750600060075412155b151561369c57600080fd5b73__Fixed192x64Math_______________________63ccc13814876040518263ffffffff167c01000000000000000000000000000000000000000000000000000000000281526004018080602001828103825283818151815260200191508051906020019060200280838360005b8381101561372557808201518184015260208101905061370a565b505050509050019250505060206040518083038186803b15801561374857600080fd5b505af415801561375c573d6000803e3d6000fd5b505050506040513d602081101561377257600080fd5b8101908080519060200190929190505050915060075461379b888461392290919063ffffffff16565b8115156137a457fe5b0591506137c368b800000000000000008361363d90919063ffffffff16565b9150600080600090505b87518160ff1610156139165773__Fixed192x64Math_______________________631d58012361383f866007546138278e8e8860ff1681518110151561380f57fe5b9060200190602002015161392290919063ffffffff16565b81151561383057fe5b0561363d90919063ffffffff16565b886040518363ffffffff167c01000000000000000000000000000000000000000000000000000000000281526004018083815260200182600281111561388157fe5b60ff1681526020019250505060206040518083038186803b1580156138a557600080fd5b505af41580156138b9573d6000803e3d6000fd5b505050506040513d60208110156138cf57600080fd5b810190808051906020019092919050505091508660ff168160ff1614156138f4578192505b613907828661399690919063ffffffff16565b945080806001019150506137cd565b50509450945094915050565b6000808314156139355760009050613990565b81830290507fffffffffffffffffffffffffffffffffffffffffffffffffffffffffffffffff83141580613971575060ff60019060020a028214155b8015613987575081838281151561398457fe5b05145b151561398f57fe5b5b92915050565b6000808284019050838110151515613a16576040517f08c379a000000000000000000000000000000000000000000000000000000000815260040180806020018281038252601b8152602001807f536166654d6174683a206164646974696f6e206f766572666c6f77000000000081525060200191505060405180910390fd5b8091505092915050565b6000828211151515613a9a576040517f08c379a000000000000000000000000000000000000000000000000000000000815260040180806020018281038252601e8152602001807f536166654d6174683a207375627472616374696f6e206f766572666c6f77000081525060200191505060405180910390fd5b600082840390508091505092915050565b600073ffffffffffffffffffffffffffffffffffffffff168173ffffffffffffffffffffffffffffffffffffffff1614151515613b33576040517f08c379a0000000000000000000000000000000000000000000000000000000008152600401808060200182810382526026815260200180613c6b6026913960400191505060405180910390fd5b8073ffffffffffffffffffffffffffffffffffffffff166000809054906101000a900473ffffffffffffffffffffffffffffffffffffffff1673ffffffffffffffffffffffffffffffffffffffff167f8be0079c531659141344cd1fd0a4f28419497f9722a3daafe3b4186f6b6457e060405160405180910390a3806000806101000a81548173ffffffffffffffffffffffffffffffffffffffff021916908373ffffffffffffffffffffffffffffffffffffffff16021790555050565b606081604051908082528060200260200182016040528015613c225781602001602082028038833980820191505090505b50905060008090505b82811015613c64578060019060020a028282815181101515613c4957fe5b90602001906020020181815250508080600101915050613c2b565b5091905056fe4f776e61626c653a206e6577206f776e657220697320746865207a65726f20616464726573736f6e6c792077686974656c6973746564207573657273206d61792063616c6c20746869732066756e6374696f6e54686973204d61726b65742068617320616c7265616479206265656e20636c6f736564a165627a7a723058207797c7b19d5addc74af08ae2a72d9144c5dbdff663a85017b710cc814986fcef0029",
  "source": "pragma solidity ^0.5.1;\n\nimport { IERC20 } from \"openzeppelin-solidity/contracts/token/ERC20/IERC20.sol\";\nimport { ConditionalTokens } from \"@gnosis.pm/conditional-tokens-contracts/contracts/ConditionalTokens.sol\";\nimport { CTHelpers } from \"@gnosis.pm/conditional-tokens-contracts/contracts/CTHelpers.sol\";\nimport { ConstructedCloneFactory } from \"@gnosis.pm/util-contracts/contracts/ConstructedCloneFactory.sol\";\nimport { LMSRMarketMaker } from \"./LMSRMarketMaker.sol\";\nimport { Whitelist } from \"@gnosis.pm/conditional-tokens-market-makers/contracts/Whitelist.sol\";\nimport { ERC1155TokenReceiver } from \"@gnosis.pm/conditional-tokens-contracts/contracts/ERC1155/ERC1155TokenReceiver.sol\";\n\ncontract LMSRMarketMakerData {\n    address internal _owner;\n    event OwnershipTransferred(address indexed previousOwner, address indexed newOwner);\n\n\n    bytes4 internal constant _INTERFACE_ID_ERC165 = 0x01ffc9a7;\n    mapping(bytes4 => bool) internal _supportedInterfaces;\n\n\n    uint64 constant FEE_RANGE = 10**18;\n    event AMMCreated(uint initialFunding);\n    ConditionalTokens internal pmSystem;\n    IERC20 internal collateralToken;\n    bytes32[] internal conditionIds;\n    uint internal atomicOutcomeSlotCount;\n    uint64 internal fee;\n    uint internal funding;\n    Stage internal stage;\n    Whitelist internal whitelist;\n\n    uint[] internal outcomeSlotCounts;\n    bytes32[][] internal collectionIds;\n    uint[] internal positionIds;\n\n    enum Stage {\n        Running,\n        Paused,\n        Closed\n    }\n}\n\ncontract LMSRMarketMakerFactory is ConstructedCloneFactory, LMSRMarketMakerData {\n    event LMSRMarketMakerCreation(address indexed creator, LMSRMarketMaker lmsrMarketMaker, ConditionalTokens pmSystem, IERC20 collateralToken, bytes32[] conditionIds, uint64 fee, uint funding);\n\n    LMSRMarketMaker public implementationMaster;\n\n    constructor() public {\n        implementationMaster = new LMSRMarketMaker();\n    }\n\n    function cloneConstructor(bytes calldata consData) external {\n        (\n            ConditionalTokens _pmSystem,\n            IERC20 _collateralToken,\n            bytes32[] memory _conditionIds,\n            uint64 _fee,\n            Whitelist _whitelist\n        ) = abi.decode(consData, (ConditionalTokens, IERC20, bytes32[], uint64, Whitelist));\n\n        _owner = msg.sender;\n        emit OwnershipTransferred(address(0), _owner);\n\n        _supportedInterfaces[_INTERFACE_ID_ERC165] = true;\n        _supportedInterfaces[\n            ERC1155TokenReceiver(0).onERC1155Received.selector ^\n            ERC1155TokenReceiver(0).onERC1155BatchReceived.selector\n        ] = true;\n\n        // Validate inputs\n        require(address(_pmSystem) != address(0) && _fee < FEE_RANGE);\n        pmSystem = _pmSystem;\n        collateralToken = _collateralToken;\n        conditionIds = _conditionIds;\n        fee = _fee;\n        whitelist = _whitelist;\n\n        atomicOutcomeSlotCount = 1;\n        outcomeSlotCounts = new uint[](conditionIds.length);\n        for (uint i = 0; i < conditionIds.length; i++) {\n            uint outcomeSlotCount = pmSystem.getOutcomeSlotCount(conditionIds[i]);\n            atomicOutcomeSlotCount *= outcomeSlotCount;\n            outcomeSlotCounts[i] = outcomeSlotCount;\n        }\n        require(atomicOutcomeSlotCount > 1, \"conditions must be valid\");\n\n        collectionIds = new bytes32[][](conditionIds.length);\n        _recordCollectionIDsForAllConditions(conditionIds.length, bytes32(0));\n\n        stage = Stage.Paused;\n        emit AMMCreated(funding);\n    }\n\n    function _recordCollectionIDsForAllConditions(uint conditionsLeft, bytes32 parentCollectionId) private {\n        if(conditionsLeft == 0) {\n            positionIds.push(CTHelpers.getPositionId(collateralToken, parentCollectionId));\n            return;\n        }\n\n        conditionsLeft--;\n\n        uint outcomeSlotCount = outcomeSlotCounts[conditionsLeft];\n\n        collectionIds[conditionsLeft].push(parentCollectionId);\n        for(uint i = 0; i < outcomeSlotCount; i++) {\n            _recordCollectionIDsForAllConditions(\n                conditionsLeft,\n                CTHelpers.getCollectionId(\n                    parentCollectionId,\n                    conditionIds[conditionsLeft],\n                    1 << i\n                )\n            );\n        }\n    }\n\n    function createLMSRMarketMaker(ConditionalTokens pmSystem, IERC20 collateralToken, bytes32[] calldata conditionIds, uint64 fee, Whitelist whitelist, uint funding)\n        external\n        returns (LMSRMarketMaker lmsrMarketMaker)\n    {\n        lmsrMarketMaker = LMSRMarketMaker(createClone(address(implementationMaster), abi.encode(pmSystem, collateralToken, conditionIds, fee, whitelist)));\n        collateralToken.transferFrom(msg.sender, address(this), funding);\n        collateralToken.approve(address(lmsrMarketMaker), funding);\n        lmsrMarketMaker.changeFunding(int(funding));\n        lmsrMarketMaker.resume();\n        lmsrMarketMaker.transferOwnership(msg.sender);\n        emit LMSRMarketMakerCreation(msg.sender, lmsrMarketMaker, pmSystem, collateralToken, conditionIds, fee, funding);\n    }\n}\n",
  "sourcePath": "/Users/alex/alice/impact-signalling/contracts/LMSRMarketMakerFactory.sol",
  "compiler": {
    "name": "solc",
    "version": "0.5.2+commit.1df8f40c.Emscripten.clang"
  },
  "schemaVersion": "3.0.10",
  "updatedAt": "2019-11-23T10:14:19.665Z",
  "devdoc": {
    "methods": {}
  },
  "userdoc": {
    "methods": {}
  }
}