{
  "contractName": "SignallingOrchestrator",
  "abi": [
    {
      "constant": true,
      "inputs": [],
      "name": "marketMakerFactory",
      "outputs": [
        {
          "name": "",
          "type": "address"
        }
      ],
      "payable": false,
      "stateMutability": "view",
      "type": "function"
    },
    {
      "constant": true,
      "inputs": [],
      "name": "conditionalTokens",
      "outputs": [
        {
          "name": "",
          "type": "address"
        }
      ],
      "payable": false,
      "stateMutability": "view",
      "type": "function"
    },
    {
      "constant": false,
      "inputs": [],
      "name": "renounceOwnership",
      "outputs": [],
      "payable": false,
      "stateMutability": "nonpayable",
      "type": "function"
    },
    {
      "constant": true,
      "inputs": [],
      "name": "oracle",
      "outputs": [
        {
          "name": "",
          "type": "address"
        }
      ],
      "payable": false,
      "stateMutability": "view",
      "type": "function"
    },
    {
      "constant": true,
      "inputs": [],
      "name": "owner",
      "outputs": [
        {
          "name": "",
          "type": "address"
        }
      ],
      "payable": false,
      "stateMutability": "view",
      "type": "function"
    },
    {
      "constant": true,
      "inputs": [],
      "name": "isOwner",
      "outputs": [
        {
          "name": "",
          "type": "bool"
        }
      ],
      "payable": false,
      "stateMutability": "view",
      "type": "function"
    },
    {
      "constant": true,
      "inputs": [],
      "name": "whitelist",
      "outputs": [
        {
          "name": "",
          "type": "address"
        }
      ],
      "payable": false,
      "stateMutability": "view",
      "type": "function"
    },
    {
      "constant": true,
      "inputs": [
        {
          "name": "",
          "type": "uint256"
        }
      ],
      "name": "markets",
      "outputs": [
        {
          "name": "mmAddress",
          "type": "address"
        },
        {
          "name": "project",
          "type": "string"
        },
        {
          "name": "outcome",
          "type": "string"
        }
      ],
      "payable": false,
      "stateMutability": "view",
      "type": "function"
    },
    {
      "constant": true,
      "inputs": [],
      "name": "collateralToken",
      "outputs": [
        {
          "name": "",
          "type": "address"
        }
      ],
      "payable": false,
      "stateMutability": "view",
      "type": "function"
    },
    {
      "constant": false,
      "inputs": [
        {
          "name": "newOwner",
          "type": "address"
        }
      ],
      "name": "transferOwnership",
      "outputs": [],
      "payable": false,
      "stateMutability": "nonpayable",
      "type": "function"
    },
    {
      "inputs": [
        {
          "name": "_oracle",
          "type": "address"
        },
        {
          "name": "_marketMakerFactory",
          "type": "address"
        },
        {
          "name": "_conditionalTokens",
          "type": "address"
        }
      ],
      "payable": false,
      "stateMutability": "nonpayable",
      "type": "constructor"
    },
    {
      "anonymous": false,
      "inputs": [
        {
          "indexed": true,
          "name": "previousOwner",
          "type": "address"
        },
        {
          "indexed": true,
          "name": "newOwner",
          "type": "address"
        }
      ],
      "name": "OwnershipTransferred",
      "type": "event"
    },
    {
      "constant": false,
      "inputs": [
        {
          "name": "_marketMakerFactory",
          "type": "address"
        }
      ],
      "name": "setMarketMakerFactory",
      "outputs": [],
      "payable": false,
      "stateMutability": "nonpayable",
      "type": "function"
    },
    {
      "constant": false,
      "inputs": [
        {
          "name": "_questionId",
          "type": "bytes32"
        },
        {
          "name": "funding",
          "type": "uint256"
        },
        {
          "name": "project",
          "type": "string"
        },
        {
          "name": "outcome",
          "type": "string"
        }
      ],
      "name": "createMarket",
      "outputs": [],
      "payable": false,
      "stateMutability": "nonpayable",
      "type": "function"
    },
    {
      "constant": true,
      "inputs": [],
      "name": "getMarketsCount",
      "outputs": [
        {
          "name": "",
          "type": "uint256"
        }
      ],
      "payable": false,
      "stateMutability": "view",
      "type": "function"
    },
    {
      "constant": true,
      "inputs": [
        {
          "name": "marketNr",
          "type": "uint256"
        }
      ],
      "name": "getMarketDetails",
      "outputs": [
        {
          "components": [
            {
              "name": "mmAddress",
              "type": "address"
            },
            {
              "name": "project",
              "type": "string"
            },
            {
              "name": "outcome",
              "type": "string"
            }
          ],
          "name": "",
          "type": "tuple"
        }
      ],
      "payable": false,
      "stateMutability": "view",
      "type": "function"
    },
    {
      "constant": false,
      "inputs": [
        {
          "name": "user",
          "type": "address"
        },
        {
          "name": "stipend",
          "type": "uint256"
        }
      ],
      "name": "onBoard",
      "outputs": [],
      "payable": false,
      "stateMutability": "nonpayable",
      "type": "function"
    },
    {
      "constant": true,
      "inputs": [
        {
          "name": "owner",
          "type": "address"
        },
        {
          "name": "positionId",
          "type": "uint256"
        }
      ],
      "name": "getOutcomeBalance",
      "outputs": [
        {
          "name": "",
          "type": "uint256"
        }
      ],
      "payable": false,
      "stateMutability": "view",
      "type": "function"
    }
  ],
  "bytecode": "0x60806040526001600760006101000a81548167ffffffffffffffff021916908367ffffffffffffffff1602179055503480156200003b57600080fd5b5060405160608062004af183398101806040526200005d919081019062000393565b336000806101000a81548173ffffffffffffffffffffffffffffffffffffffff021916908373ffffffffffffffffffffffffffffffffffffffff1602179055506000809054906101000a900473ffffffffffffffffffffffffffffffffffffffff1673ffffffffffffffffffffffffffffffffffffffff16600073ffffffffffffffffffffffffffffffffffffffff167f8be0079c531659141344cd1fd0a4f28419497f9722a3daafe3b4186f6b6457e060405160405180910390a3600073ffffffffffffffffffffffffffffffffffffffff168373ffffffffffffffffffffffffffffffffffffffff16141515156200015657600080fd5b600073ffffffffffffffffffffffffffffffffffffffff168273ffffffffffffffffffffffffffffffffffffffff16141515156200019357600080fd5b82600560006101000a81548173ffffffffffffffffffffffffffffffffffffffff021916908373ffffffffffffffffffffffffffffffffffffffff16021790555081600460006101000a81548173ffffffffffffffffffffffffffffffffffffffff021916908373ffffffffffffffffffffffffffffffffffffffff16021790555080600160006101000a81548173ffffffffffffffffffffffffffffffffffffffff021916908373ffffffffffffffffffffffffffffffffffffffff160217905550620002606200032f565b604051809103906000f0801580156200027d573d6000803e3d6000fd5b50600360006101000a81548173ffffffffffffffffffffffffffffffffffffffff021916908373ffffffffffffffffffffffffffffffffffffffff160217905550620002c862000340565b604051809103906000f080158015620002e5573d6000803e3d6000fd5b50600260006101000a81548173ffffffffffffffffffffffffffffffffffffffff021916908373ffffffffffffffffffffffffffffffffffffffff16021790555050505062000459565b604051611cf4806200237f83390190565b604051610a7e806200407383390190565b60006200035f82516200041d565b905092915050565b600062000375825162000431565b905092915050565b60006200038b825162000445565b905092915050565b600080600060608486031215620003a957600080fd5b6000620003b98682870162000351565b9350506020620003cc868287016200037d565b9250506040620003df8682870162000367565b9150509250925092565b6000620003f682620003fd565b9050919050565b600073ffffffffffffffffffffffffffffffffffffffff82169050919050565b60006200042a82620003fd565b9050919050565b60006200043e82620003e9565b9050919050565b60006200045282620003e9565b9050919050565b611f1680620004696000396000f3fe608060405234801561001057600080fd5b506004361061011d576000357c0100000000000000000000000000000000000000000000000000000000900480638f32d59b116100b4578063b1283e7711610083578063b1283e7714610282578063b2016bd4146102b4578063f2fde38b146102d2578063fe73eb74146102ee5761011d565b80638f32d59b146101fa5780639391d6dc1461021857806393e59dc114610234578063b06c1ba3146102525761011d565b80635bd9e299116100f05780635bd9e29914610196578063715018a6146101b45780637dc0d1d0146101be5780638da5cb5b146101dc5761011d565b806310eb5ecb1461012257806327fa35c31461013e5780632de9ee461461015c5780633acfbc951461017a575b600080fd5b61013c60048036036101379190810190611626565b61031e565b005b610146610562565b6040516101539190611c62565b60405180910390f35b61016461056f565b6040516101719190611bca565b60405180910390f35b610194600480360361018f919081019061168b565b610595565b005b61019e610b26565b6040516101ab9190611b47565b60405180910390f35b6101bc610b4c565b005b6101c6610c54565b6040516101d39190611a2f565b60405180910390f35b6101e4610c7a565b6040516101f19190611a2f565b60405180910390f35b610202610ca3565b60405161020f9190611b11565b60405180910390f35b610232600480360361022d919081019061171e565b610cfa565b005b61023c610dc3565b6040516102499190611be5565b60405180910390f35b61026c60048036036102679190810190611770565b610de9565b6040516102799190611c40565b60405180910390f35b61029c60048036036102979190810190611770565b610fbb565b6040516102ab93929190611a81565b60405180910390f35b6102bc611144565b6040516102c99190611b2c565b60405180910390f35b6102ec60048036036102e791908101906115fd565b61116a565b005b61030860048036036103039190810190611626565b6111bf565b6040516103159190611c62565b60405180910390f35b610326610ca3565b1515610367576040517f08c379a000000000000000000000000000000000000000000000000000000000815260040161035e90611c20565b60405180910390fd5b600360009054906101000a900473ffffffffffffffffffffffffffffffffffffffff1673ffffffffffffffffffffffffffffffffffffffff166340c10f1983836040518363ffffffff167c01000000000000000000000000000000000000000000000000000000000281526004016103e0929190611ac6565b602060405180830381600087803b1580156103fa57600080fd5b505af115801561040e573d6000803e3d6000fd5b505050506040513d601f19601f820116820180604052506104329190810190611662565b50606060016040519080825280602002602001820160405280156104655781602001602082028038833980820191505090505b5090508281600081518110151561047857fe5b9060200190602002019073ffffffffffffffffffffffffffffffffffffffff16908173ffffffffffffffffffffffffffffffffffffffff1681525050600260009054906101000a900473ffffffffffffffffffffffffffffffffffffffff1673ffffffffffffffffffffffffffffffffffffffff16637f649783826040518263ffffffff167c010000000000000000000000000000000000000000000000000000000002815260040161052b9190611aef565b600060405180830381600087803b15801561054557600080fd5b505af1158015610559573d6000803e3d6000fd5b50505050505050565b6000600680549050905090565b600460009054906101000a900473ffffffffffffffffffffffffffffffffffffffff1681565b61059d610ca3565b15156105de576040517f08c379a00000000000000000000000000000000000000000000000000000000081526004016105d590611c20565b60405180910390fd5b600160009054906101000a900473ffffffffffffffffffffffffffffffffffffffff1673ffffffffffffffffffffffffffffffffffffffff1663d96ee754600560009054906101000a900473ffffffffffffffffffffffffffffffffffffffff168660026040518463ffffffff167c010000000000000000000000000000000000000000000000000000000002815260040161067c93929190611a4a565b600060405180830381600087803b15801561069657600080fd5b505af11580156106aa573d6000803e3d6000fd5b50505050606060016040519080825280602002602001820160405280156106e05781602001602082028038833980820191505090505b509050610711600560009054906101000a900473ffffffffffffffffffffffffffffffffffffffff16866002611291565b81600081518110151561072057fe5b9060200190602002018181525050600360009054906101000a900473ffffffffffffffffffffffffffffffffffffffff1673ffffffffffffffffffffffffffffffffffffffff166340c10f1930866040518363ffffffff167c01000000000000000000000000000000000000000000000000000000000281526004016107a7929190611ac6565b602060405180830381600087803b1580156107c157600080fd5b505af11580156107d5573d6000803e3d6000fd5b505050506040513d601f19601f820116820180604052506107f99190810190611662565b50600360009054906101000a900473ffffffffffffffffffffffffffffffffffffffff1673ffffffffffffffffffffffffffffffffffffffff1663095ea7b3600460009054906101000a900473ffffffffffffffffffffffffffffffffffffffff16866040518363ffffffff167c0100000000000000000000000000000000000000000000000000000000028152600401610895929190611ac6565b602060405180830381600087803b1580156108af57600080fd5b505af11580156108c3573d6000803e3d6000fd5b505050506040513d601f19601f820116820180604052506108e79190810190611662565b506000600460009054906101000a900473ffffffffffffffffffffffffffffffffffffffff1673ffffffffffffffffffffffffffffffffffffffff16637c8b2c07600160009054906101000a900473ffffffffffffffffffffffffffffffffffffffff16600360009054906101000a900473ffffffffffffffffffffffffffffffffffffffff1685600760009054906101000a900467ffffffffffffffff16600260009054906101000a900473ffffffffffffffffffffffffffffffffffffffff168b6040518763ffffffff167c01000000000000000000000000000000000000000000000000000000000281526004016109e796959493929190611b62565b602060405180830381600087803b158015610a0157600080fd5b505af1158015610a15573d6000803e3d6000fd5b505050506040513d601f19601f82011682018060405250610a399190810190611747565b905060066060604051908101604052808373ffffffffffffffffffffffffffffffffffffffff168152602001868152602001858152509080600181540180825580915050906001820390600052602060002090600302016000909192909190915060008201518160000160006101000a81548173ffffffffffffffffffffffffffffffffffffffff021916908373ffffffffffffffffffffffffffffffffffffffff1602179055506020820151816001019080519060200190610afd92919061143e565b506040820151816002019080519060200190610b1a92919061143e565b50505050505050505050565b600160009054906101000a900473ffffffffffffffffffffffffffffffffffffffff1681565b610b54610ca3565b1515610b95576040517f08c379a0000000000000000000000000000000000000000000000000000000008152600401610b8c90611c20565b60405180910390fd5b600073ffffffffffffffffffffffffffffffffffffffff166000809054906101000a900473ffffffffffffffffffffffffffffffffffffffff1673ffffffffffffffffffffffffffffffffffffffff167f8be0079c531659141344cd1fd0a4f28419497f9722a3daafe3b4186f6b6457e060405160405180910390a360008060006101000a81548173ffffffffffffffffffffffffffffffffffffffff021916908373ffffffffffffffffffffffffffffffffffffffff160217905550565b600560009054906101000a900473ffffffffffffffffffffffffffffffffffffffff1681565b60008060009054906101000a900473ffffffffffffffffffffffffffffffffffffffff16905090565b60008060009054906101000a900473ffffffffffffffffffffffffffffffffffffffff1673ffffffffffffffffffffffffffffffffffffffff163373ffffffffffffffffffffffffffffffffffffffff1614905090565b610d02610ca3565b1515610d43576040517f08c379a0000000000000000000000000000000000000000000000000000000008152600401610d3a90611c20565b60405180910390fd5b600073ffffffffffffffffffffffffffffffffffffffff168173ffffffffffffffffffffffffffffffffffffffff1614151515610d7f57600080fd5b80600460006101000a81548173ffffffffffffffffffffffffffffffffffffffff021916908373ffffffffffffffffffffffffffffffffffffffff16021790555050565b600260009054906101000a900473ffffffffffffffffffffffffffffffffffffffff1681565b610df16114be565b600682815481101515610e0057fe5b9060005260206000209060030201606060405190810160405290816000820160009054906101000a900473ffffffffffffffffffffffffffffffffffffffff1673ffffffffffffffffffffffffffffffffffffffff1673ffffffffffffffffffffffffffffffffffffffff168152602001600182018054600181600116156101000203166002900480601f016020809104026020016040519081016040528092919081815260200182805460018160011615610100020316600290048015610f095780601f10610ede57610100808354040283529160200191610f09565b820191906000526020600020905b815481529060010190602001808311610eec57829003601f168201915b50505050508152602001600282018054600181600116156101000203166002900480601f016020809104026020016040519081016040528092919081815260200182805460018160011615610100020316600290048015610fab5780601f10610f8057610100808354040283529160200191610fab565b820191906000526020600020905b815481529060010190602001808311610f8e57829003601f168201915b5050505050815250509050919050565b600681815481101515610fca57fe5b90600052602060002090600302016000915090508060000160009054906101000a900473ffffffffffffffffffffffffffffffffffffffff1690806001018054600181600116156101000203166002900480601f01602080910402602001604051908101604052809291908181526020018280546001816001161561010002031660029004801561109c5780601f106110715761010080835404028352916020019161109c565b820191906000526020600020905b81548152906001019060200180831161107f57829003601f168201915b505050505090806002018054600181600116156101000203166002900480601f01602080910402602001604051908101604052809291908181526020018280546001816001161561010002031660029004801561113a5780601f1061110f5761010080835404028352916020019161113a565b820191906000526020600020905b81548152906001019060200180831161111d57829003601f168201915b5050505050905083565b600360009054906101000a900473ffffffffffffffffffffffffffffffffffffffff1681565b611172610ca3565b15156111b3576040517f08c379a00000000000000000000000000000000000000000000000000000000081526004016111aa90611c20565b60405180910390fd5b6111bc8161130e565b50565b6000600160009054906101000a900473ffffffffffffffffffffffffffffffffffffffff1673ffffffffffffffffffffffffffffffffffffffff1662fdd58e84846040518363ffffffff167c0100000000000000000000000000000000000000000000000000000000028152600401611239929190611ac6565b60206040518083038186803b15801561125157600080fd5b505afa158015611265573d6000803e3d6000fd5b505050506040513d601f19601f820116820180604052506112899190810190611799565b905092915050565b6000838383604051602001808473ffffffffffffffffffffffffffffffffffffffff1673ffffffffffffffffffffffffffffffffffffffff166c0100000000000000000000000002815260140183815260200182815260200193505050506040516020818303038152906040528051906020012090509392505050565b600073ffffffffffffffffffffffffffffffffffffffff168173ffffffffffffffffffffffffffffffffffffffff1614151515611380576040517f08c379a000000000000000000000000000000000000000000000000000000000815260040161137790611c00565b60405180910390fd5b8073ffffffffffffffffffffffffffffffffffffffff166000809054906101000a900473ffffffffffffffffffffffffffffffffffffffff1673ffffffffffffffffffffffffffffffffffffffff167f8be0079c531659141344cd1fd0a4f28419497f9722a3daafe3b4186f6b6457e060405160405180910390a3806000806101000a81548173ffffffffffffffffffffffffffffffffffffffff021916908373ffffffffffffffffffffffffffffffffffffffff16021790555050565b828054600181600116156101000203166002900490600052602060002090601f016020900481019282601f1061147f57805160ff19168380011785556114ad565b828001600101855582156114ad579182015b828111156114ac578251825591602001919060010190611491565b5b5090506114ba91906114f6565b5090565b606060405190810160405280600073ffffffffffffffffffffffffffffffffffffffff16815260200160608152602001606081525090565b61151891905b808211156115145760008160009055506001016114fc565b5090565b90565b60006115278235611d91565b905092915050565b600061153b8251611da3565b905092915050565b600061154f8235611daf565b905092915050565b60006115638235611db9565b905092915050565b60006115778251611dcb565b905092915050565b600082601f830112151561159257600080fd5b81356115a56115a082611caa565b611c7d565b915080825260208301602083018583830111156115c157600080fd5b6115cc838284611e89565b50505092915050565b60006115e18235611ddd565b905092915050565b60006115f58251611ddd565b905092915050565b60006020828403121561160f57600080fd5b600061161d8482850161151b565b91505092915050565b6000806040838503121561163957600080fd5b60006116478582860161151b565b9250506020611658858286016115d5565b9150509250929050565b60006020828403121561167457600080fd5b60006116828482850161152f565b91505092915050565b600080600080608085870312156116a157600080fd5b60006116af87828801611543565b94505060206116c0878288016115d5565b935050604085013567ffffffffffffffff8111156116dd57600080fd5b6116e98782880161157f565b925050606085013567ffffffffffffffff81111561170657600080fd5b6117128782880161157f565b91505092959194509250565b60006020828403121561173057600080fd5b600061173e84828501611557565b91505092915050565b60006020828403121561175957600080fd5b60006117678482850161156b565b91505092915050565b60006020828403121561178257600080fd5b6000611790848285016115d5565b91505092915050565b6000602082840312156117ab57600080fd5b60006117b9848285016115e9565b91505092915050565b6117cb81611d2b565b82525050565b60006117dc82611cf0565b8084526020840193506117ee83611cd6565b60005b82811015611820576118048683516117c2565b61180d82611d11565b91506020860195506001810190506117f1565b50849250505092915050565b600061183782611cfb565b80845260208401935061184983611ce3565b60005b8281101561187b5761185f868351611896565b61186882611d1e565b915060208601955060018101905061184c565b50849250505092915050565b61189081611d3d565b82525050565b61189f81611d49565b82525050565b6118ae81611de7565b82525050565b6118bd81611e0b565b82525050565b6118cc81611e2f565b82525050565b6118db81611e53565b82525050565b6118ea81611e77565b82525050565b60006118fb82611d06565b80845261190f816020860160208601611e98565b61191881611ecb565b602085010191505092915050565b6000602682527f4f776e61626c653a206e6577206f776e657220697320746865207a65726f206160208301527f64647265737300000000000000000000000000000000000000000000000000006040830152606082019050919050565b6000602082527f4f776e61626c653a2063616c6c6572206973206e6f7420746865206f776e65726020830152604082019050919050565b60006060830160008301516119d260008601826117c2565b50602083015184820360208601526119ea82826118f0565b91505060408301518482036040860152611a0482826118f0565b9150508091505092915050565b611a1a81611d73565b82525050565b611a2981611d7d565b82525050565b6000602082019050611a4460008301846117c2565b92915050565b6000606082019050611a5f60008301866117c2565b611a6c6020830185611896565b611a7960408301846118e1565b949350505050565b6000606082019050611a9660008301866117c2565b8181036020830152611aa881856118f0565b90508181036040830152611abc81846118f0565b9050949350505050565b6000604082019050611adb60008301856117c2565b611ae86020830184611a11565b9392505050565b60006020820190508181036000830152611b0981846117d1565b905092915050565b6000602082019050611b266000830184611887565b92915050565b6000602082019050611b4160008301846118a5565b92915050565b6000602082019050611b5c60008301846118b4565b92915050565b600060c082019050611b7760008301896118b4565b611b8460208301886118a5565b8181036040830152611b96818761182c565b9050611ba56060830186611a20565b611bb260808301856118d2565b611bbf60a0830184611a11565b979650505050505050565b6000602082019050611bdf60008301846118c3565b92915050565b6000602082019050611bfa60008301846118d2565b92915050565b60006020820190508181036000830152611c1981611926565b9050919050565b60006020820190508181036000830152611c3981611983565b9050919050565b60006020820190508181036000830152611c5a81846119ba565b905092915050565b6000602082019050611c776000830184611a11565b92915050565b6000604051905081810181811067ffffffffffffffff82111715611ca057600080fd5b8060405250919050565b600067ffffffffffffffff821115611cc157600080fd5b601f19601f8301169050602081019050919050565b6000602082019050919050565b6000602082019050919050565b600081519050919050565b600081519050919050565b600081519050919050565b6000602082019050919050565b6000602082019050919050565b6000611d3682611d53565b9050919050565b60008115159050919050565b6000819050919050565b600073ffffffffffffffffffffffffffffffffffffffff82169050919050565b6000819050919050565b600067ffffffffffffffff82169050919050565b6000611d9c82611d53565b9050919050565b60008115159050919050565b6000819050919050565b6000611dc482611d2b565b9050919050565b6000611dd682611d2b565b9050919050565b6000819050919050565b6000611df282611df9565b9050919050565b6000611e0482611d53565b9050919050565b6000611e1682611e1d565b9050919050565b6000611e2882611d53565b9050919050565b6000611e3a82611e41565b9050919050565b6000611e4c82611d53565b9050919050565b6000611e5e82611e65565b9050919050565b6000611e7082611d53565b9050919050565b6000611e8282611d73565b9050919050565b82818337600083830152505050565b60005b83811015611eb6578082015181840152602081019050611e9b565b83811115611ec5576000848401525b50505050565b6000601f19601f830116905091905056fea265627a7a72305820f604d42543d1560680c7936b4f8749926f5fb0370c03c9733b0e8989f46827566c6578706572696d656e74616cf5003760806040526040805190810160405280601381526020017f54657374436f6c6c61746572616c546f6b656e00000000000000000000000000815250600490805190602001906200005192919062000365565b506002600560006101000a81548160ff021916908360ff1602179055506040805190810160405280600381526020017f434f4c000000000000000000000000000000000000000000000000000000000081525060069080519060200190620000bb92919062000365565b506040805190810160405280600781526020017f434f4c20312e3000000000000000000000000000000000000000000000000000815250600790805190602001906200010992919062000365565b5062000124336200012a640100000000026401000000009004565b62000414565b6200014e8160036200019464010000000002620015e5179091906401000000009004565b8073ffffffffffffffffffffffffffffffffffffffff167f6ae172837ea30b801fbfcdd4108aa1d5bf8ff775444fd70256b44e6bf3dfc3f660405160405180910390a250565b620001af828262000283640100000000026401000000009004565b15151562000225576040517f08c379a000000000000000000000000000000000000000000000000000000000815260040180806020018281038252601f8152602001807f526f6c65733a206163636f756e7420616c72656164792068617320726f6c650081525060200191505060405180910390fd5b60018260000160008373ffffffffffffffffffffffffffffffffffffffff1673ffffffffffffffffffffffffffffffffffffffff16815260200190815260200160002060006101000a81548160ff0219169083151502179055505050565b60008073ffffffffffffffffffffffffffffffffffffffff168273ffffffffffffffffffffffffffffffffffffffff16141515156200030e576040517f08c379a000000000000000000000000000000000000000000000000000000000815260040180806020018281038252602281526020018062001cd26022913960400191505060405180910390fd5b8260000160008373ffffffffffffffffffffffffffffffffffffffff1673ffffffffffffffffffffffffffffffffffffffff16815260200190815260200160002060009054906101000a900460ff16905092915050565b828054600181600116156101000203166002900490600052602060002090601f016020900481019282601f10620003a857805160ff1916838001178555620003d9565b82800160010185558215620003d9579182015b82811115620003d8578251825591602001919060010190620003bb565b5b509050620003e89190620003ec565b5090565b6200041191905b808211156200040d576000816000905550600101620003f3565b5090565b90565b6118ae80620004246000396000f3fe608060405234801561001057600080fd5b506004361061011d576000357c01000000000000000000000000000000000000000000000000000000009004806370a08231116100b4578063a457c2d711610083578063a457c2d71461054b578063a9059cbb146105b1578063aa271e1a14610617578063dd62ed3e146106735761011d565b806370a082311461042257806395d89b411461047a578063983b2d56146104fd57806398650275146105415761011d565b8063313ce567116100f0578063313ce567146102af57806339509351146102d357806340c10f191461033957806354fd4d501461039f5761011d565b806306fdde0314610122578063095ea7b3146101a557806318160ddd1461020b57806323b872dd14610229575b600080fd5b61012a6106eb565b6040518080602001828103825283818151815260200191508051906020019080838360005b8381101561016a57808201518184015260208101905061014f565b50505050905090810190601f1680156101975780820380516001836020036101000a031916815260200191505b509250505060405180910390f35b6101f1600480360360408110156101bb57600080fd5b81019080803573ffffffffffffffffffffffffffffffffffffffff16906020019092919080359060200190929190505050610789565b604051808215151515815260200191505060405180910390f35b6102136107a0565b6040518082815260200191505060405180910390f35b6102956004803603606081101561023f57600080fd5b81019080803573ffffffffffffffffffffffffffffffffffffffff169060200190929190803573ffffffffffffffffffffffffffffffffffffffff169060200190929190803590602001909291905050506107aa565b604051808215151515815260200191505060405180910390f35b6102b761085b565b604051808260ff1660ff16815260200191505060405180910390f35b61031f600480360360408110156102e957600080fd5b81019080803573ffffffffffffffffffffffffffffffffffffffff1690602001909291908035906020019092919050505061086e565b604051808215151515815260200191505060405180910390f35b6103856004803603604081101561034f57600080fd5b81019080803573ffffffffffffffffffffffffffffffffffffffff16906020019092919080359060200190929190505050610913565b604051808215151515815260200191505060405180910390f35b6103a7610989565b6040518080602001828103825283818151815260200191508051906020019080838360005b838110156103e75780820151818401526020810190506103cc565b50505050905090810190601f1680156104145780820380516001836020036101000a031916815260200191505b509250505060405180910390f35b6104646004803603602081101561043857600080fd5b81019080803573ffffffffffffffffffffffffffffffffffffffff169060200190929190505050610a27565b6040518082815260200191505060405180910390f35b610482610a6f565b6040518080602001828103825283818151815260200191508051906020019080838360005b838110156104c25780820151818401526020810190506104a7565b50505050905090810190601f1680156104ef5780820380516001836020036101000a031916815260200191505b509250505060405180910390f35b61053f6004803603602081101561051357600080fd5b81019080803573ffffffffffffffffffffffffffffffffffffffff169060200190929190505050610b0d565b005b610549610b79565b005b6105976004803603604081101561056157600080fd5b81019080803573ffffffffffffffffffffffffffffffffffffffff16906020019092919080359060200190929190505050610b84565b604051808215151515815260200191505060405180910390f35b6105fd600480360360408110156105c757600080fd5b81019080803573ffffffffffffffffffffffffffffffffffffffff16906020019092919080359060200190929190505050610c29565b604051808215151515815260200191505060405180910390f35b6106596004803603602081101561062d57600080fd5b81019080803573ffffffffffffffffffffffffffffffffffffffff169060200190929190505050610c40565b604051808215151515815260200191505060405180910390f35b6106d56004803603604081101561068957600080fd5b81019080803573ffffffffffffffffffffffffffffffffffffffff169060200190929190803573ffffffffffffffffffffffffffffffffffffffff169060200190929190505050610c5d565b6040518082815260200191505060405180910390f35b60048054600181600116156101000203166002900480601f0160208091040260200160405190810160405280929190818152602001828054600181600116156101000203166002900480156107815780601f1061075657610100808354040283529160200191610781565b820191906000526020600020905b81548152906001019060200180831161076457829003601f168201915b505050505081565b6000610796338484610ce4565b6001905092915050565b6000600254905090565b60006107b7848484610edf565b610850843361084b85600160008a73ffffffffffffffffffffffffffffffffffffffff1673ffffffffffffffffffffffffffffffffffffffff16815260200190815260200160002060003373ffffffffffffffffffffffffffffffffffffffff1673ffffffffffffffffffffffffffffffffffffffff1681526020019081526020016000205461117f90919063ffffffff16565b610ce4565b600190509392505050565b600560009054906101000a900460ff1681565b6000610909338461090485600160003373ffffffffffffffffffffffffffffffffffffffff1673ffffffffffffffffffffffffffffffffffffffff16815260200190815260200160002060008973ffffffffffffffffffffffffffffffffffffffff1673ffffffffffffffffffffffffffffffffffffffff1681526020019081526020016000205461120a90919063ffffffff16565b610ce4565b6001905092915050565b600061091e33610c40565b1515610975576040517f08c379a00000000000000000000000000000000000000000000000000000000081526004018080602001828103825260308152602001806117c76030913960400191505060405180910390fd5b61097f8383611294565b6001905092915050565b60078054600181600116156101000203166002900480601f016020809104026020016040519081016040528092919081815260200182805460018160011615610100020316600290048015610a1f5780601f106109f457610100808354040283529160200191610a1f565b820191906000526020600020905b815481529060010190602001808311610a0257829003601f168201915b505050505081565b60008060008373ffffffffffffffffffffffffffffffffffffffff1673ffffffffffffffffffffffffffffffffffffffff168152602001908152602001600020549050919050565b60068054600181600116156101000203166002900480601f016020809104026020016040519081016040528092919081815260200182805460018160011615610100020316600290048015610b055780601f10610ada57610100808354040283529160200191610b05565b820191906000526020600020905b815481529060010190602001808311610ae857829003601f168201915b505050505081565b610b1633610c40565b1515610b6d576040517f08c379a00000000000000000000000000000000000000000000000000000000081526004018080602001828103825260308152602001806117c76030913960400191505060405180910390fd5b610b7681611451565b50565b610b82336114ab565b565b6000610c1f3384610c1a85600160003373ffffffffffffffffffffffffffffffffffffffff1673ffffffffffffffffffffffffffffffffffffffff16815260200190815260200160002060008973ffffffffffffffffffffffffffffffffffffffff1673ffffffffffffffffffffffffffffffffffffffff1681526020019081526020016000205461117f90919063ffffffff16565b610ce4565b6001905092915050565b6000610c36338484610edf565b6001905092915050565b6000610c5682600361150590919063ffffffff16565b9050919050565b6000600160008473ffffffffffffffffffffffffffffffffffffffff1673ffffffffffffffffffffffffffffffffffffffff16815260200190815260200160002060008373ffffffffffffffffffffffffffffffffffffffff1673ffffffffffffffffffffffffffffffffffffffff16815260200190815260200160002054905092915050565b600073ffffffffffffffffffffffffffffffffffffffff168373ffffffffffffffffffffffffffffffffffffffff1614151515610d6c576040517f08c379a000000000000000000000000000000000000000000000000000000000815260040180806020018281038252602481526020018061185f6024913960400191505060405180910390fd5b600073ffffffffffffffffffffffffffffffffffffffff168273ffffffffffffffffffffffffffffffffffffffff1614151515610df4576040517f08c379a00000000000000000000000000000000000000000000000000000000081526004018080602001828103825260228152602001806117a56022913960400191505060405180910390fd5b80600160008573ffffffffffffffffffffffffffffffffffffffff1673ffffffffffffffffffffffffffffffffffffffff16815260200190815260200160002060008473ffffffffffffffffffffffffffffffffffffffff1673ffffffffffffffffffffffffffffffffffffffff168152602001908152602001600020819055508173ffffffffffffffffffffffffffffffffffffffff168373ffffffffffffffffffffffffffffffffffffffff167f8c5be1e5ebec7d5bd14f71427d1e84f3dd0314c0f7b2291e5b200ac8c7c3b925836040518082815260200191505060405180910390a3505050565b600073ffffffffffffffffffffffffffffffffffffffff168373ffffffffffffffffffffffffffffffffffffffff1614151515610f67576040517f08c379a000000000000000000000000000000000000000000000000000000000815260040180806020018281038252602581526020018061183a6025913960400191505060405180910390fd5b600073ffffffffffffffffffffffffffffffffffffffff168273ffffffffffffffffffffffffffffffffffffffff1614151515610fef576040517f08c379a00000000000000000000000000000000000000000000000000000000081526004018080602001828103825260238152602001806117826023913960400191505060405180910390fd5b611040816000808673ffffffffffffffffffffffffffffffffffffffff1673ffffffffffffffffffffffffffffffffffffffff1681526020019081526020016000205461117f90919063ffffffff16565b6000808573ffffffffffffffffffffffffffffffffffffffff1673ffffffffffffffffffffffffffffffffffffffff168152602001908152602001600020819055506110d3816000808573ffffffffffffffffffffffffffffffffffffffff1673ffffffffffffffffffffffffffffffffffffffff1681526020019081526020016000205461120a90919063ffffffff16565b6000808473ffffffffffffffffffffffffffffffffffffffff1673ffffffffffffffffffffffffffffffffffffffff168152602001908152602001600020819055508173ffffffffffffffffffffffffffffffffffffffff168373ffffffffffffffffffffffffffffffffffffffff167fddf252ad1be2c89b69c2b068fc378daa952ba7f163c4a11628f55a4df523b3ef836040518082815260200191505060405180910390a3505050565b60008282111515156111f9576040517f08c379a000000000000000000000000000000000000000000000000000000000815260040180806020018281038252601e8152602001807f536166654d6174683a207375627472616374696f6e206f766572666c6f77000081525060200191505060405180910390fd5b600082840390508091505092915050565b600080828401905083811015151561128a576040517f08c379a000000000000000000000000000000000000000000000000000000000815260040180806020018281038252601b8152602001807f536166654d6174683a206164646974696f6e206f766572666c6f77000000000081525060200191505060405180910390fd5b8091505092915050565b600073ffffffffffffffffffffffffffffffffffffffff168273ffffffffffffffffffffffffffffffffffffffff1614151515611339576040517f08c379a000000000000000000000000000000000000000000000000000000000815260040180806020018281038252601f8152602001807f45524332303a206d696e7420746f20746865207a65726f20616464726573730081525060200191505060405180910390fd5b61134e8160025461120a90919063ffffffff16565b6002819055506113a5816000808573ffffffffffffffffffffffffffffffffffffffff1673ffffffffffffffffffffffffffffffffffffffff1681526020019081526020016000205461120a90919063ffffffff16565b6000808473ffffffffffffffffffffffffffffffffffffffff1673ffffffffffffffffffffffffffffffffffffffff168152602001908152602001600020819055508173ffffffffffffffffffffffffffffffffffffffff16600073ffffffffffffffffffffffffffffffffffffffff167fddf252ad1be2c89b69c2b068fc378daa952ba7f163c4a11628f55a4df523b3ef836040518082815260200191505060405180910390a35050565b6114658160036115e590919063ffffffff16565b8073ffffffffffffffffffffffffffffffffffffffff167f6ae172837ea30b801fbfcdd4108aa1d5bf8ff775444fd70256b44e6bf3dfc3f660405160405180910390a250565b6114bf8160036116c290919063ffffffff16565b8073ffffffffffffffffffffffffffffffffffffffff167fe94479a9f7e1952cc78f2d6baab678adc1b772d936c6583def489e524cb6669260405160405180910390a250565b60008073ffffffffffffffffffffffffffffffffffffffff168273ffffffffffffffffffffffffffffffffffffffff161415151561158e576040517f08c379a00000000000000000000000000000000000000000000000000000000081526004018080602001828103825260228152602001806118186022913960400191505060405180910390fd5b8260000160008373ffffffffffffffffffffffffffffffffffffffff1673ffffffffffffffffffffffffffffffffffffffff16815260200190815260200160002060009054906101000a900460ff16905092915050565b6115ef8282611505565b151515611664576040517f08c379a000000000000000000000000000000000000000000000000000000000815260040180806020018281038252601f8152602001807f526f6c65733a206163636f756e7420616c72656164792068617320726f6c650081525060200191505060405180910390fd5b60018260000160008373ffffffffffffffffffffffffffffffffffffffff1673ffffffffffffffffffffffffffffffffffffffff16815260200190815260200160002060006101000a81548160ff0219169083151502179055505050565b6116cc8282611505565b1515611723576040517f08c379a00000000000000000000000000000000000000000000000000000000081526004018080602001828103825260218152602001806117f76021913960400191505060405180910390fd5b60008260000160008373ffffffffffffffffffffffffffffffffffffffff1673ffffffffffffffffffffffffffffffffffffffff16815260200190815260200160002060006101000a81548160ff021916908315150217905550505056fe45524332303a207472616e7366657220746f20746865207a65726f206164647265737345524332303a20617070726f766520746f20746865207a65726f20616464726573734d696e746572526f6c653a2063616c6c657220646f6573206e6f74206861766520746865204d696e74657220726f6c65526f6c65733a206163636f756e7420646f6573206e6f74206861766520726f6c65526f6c65733a206163636f756e7420697320746865207a65726f206164647265737345524332303a207472616e736665722066726f6d20746865207a65726f206164647265737345524332303a20617070726f76652066726f6d20746865207a65726f2061646472657373a165627a7a7230582040c94b83fd710c996621f80e9daf44ecf0bdbad9ebffdef71d2e09c4d68191230029526f6c65733a206163636f756e7420697320746865207a65726f20616464726573736080604052336000806101000a81548173ffffffffffffffffffffffffffffffffffffffff021916908373ffffffffffffffffffffffffffffffffffffffff1602179055506000809054906101000a900473ffffffffffffffffffffffffffffffffffffffff1673ffffffffffffffffffffffffffffffffffffffff16600073ffffffffffffffffffffffffffffffffffffffff167f8be0079c531659141344cd1fd0a4f28419497f9722a3daafe3b4186f6b6457e060405160405180910390a36109af806100cf6000396000f3fe608060405234801561001057600080fd5b506004361061009a576000357c0100000000000000000000000000000000000000000000000000000000900480637f649783116100785780637f6497831461017e5780638da5cb5b146101f75780638f32d59b14610241578063f2fde38b146102635761009a565b80633af32abf1461009f578063548db174146100fb578063715018a614610174575b600080fd5b6100e1600480360360208110156100b557600080fd5b81019080803573ffffffffffffffffffffffffffffffffffffffff1690602001909291905050506102a7565b604051808215151515815260200191505060405180910390f35b6101726004803603602081101561011157600080fd5b810190808035906020019064010000000081111561012e57600080fd5b82018360208201111561014057600080fd5b8035906020019184602083028401116401000000008311171561016257600080fd5b90919293919293905050506102c7565b005b61017c61044e565b005b6101f56004803603602081101561019457600080fd5b81019080803590602001906401000000008111156101b157600080fd5b8201836020820111156101c357600080fd5b803590602001918460208302840111640100000000831117156101e557600080fd5b9091929391929390505050610589565b005b6101ff61070f565b604051808273ffffffffffffffffffffffffffffffffffffffff1673ffffffffffffffffffffffffffffffffffffffff16815260200191505060405180910390f35b610249610738565b604051808215151515815260200191505060405180910390f35b6102a56004803603602081101561027957600080fd5b81019080803573ffffffffffffffffffffffffffffffffffffffff16906020019092919050505061078f565b005b60016020528060005260406000206000915054906101000a900460ff1681565b6102cf610738565b1515610343576040517f08c379a00000000000000000000000000000000000000000000000000000000081526004018080602001828103825260208152602001807f4f776e61626c653a2063616c6c6572206973206e6f7420746865206f776e657281525060200191505060405180910390fd5b60008090505b828290508110156103e357600060016000858585818110151561036857fe5b9050602002013573ffffffffffffffffffffffffffffffffffffffff1673ffffffffffffffffffffffffffffffffffffffff1673ffffffffffffffffffffffffffffffffffffffff16815260200190815260200160002060006101000a81548160ff0219169083151502179055508080600101915050610349565b507f980469cd56680c471176aaf1931063250267d2044b92e69bd162f7f4bafba861828260405180806020018281038252848482818152602001925060200280828437600081840152601f19601f820116905080830192505050935050505060405180910390a15050565b610456610738565b15156104ca576040517f08c379a00000000000000000000000000000000000000000000000000000000081526004018080602001828103825260208152602001807f4f776e61626c653a2063616c6c6572206973206e6f7420746865206f776e657281525060200191505060405180910390fd5b600073ffffffffffffffffffffffffffffffffffffffff166000809054906101000a900473ffffffffffffffffffffffffffffffffffffffff1673ffffffffffffffffffffffffffffffffffffffff167f8be0079c531659141344cd1fd0a4f28419497f9722a3daafe3b4186f6b6457e060405160405180910390a360008060006101000a81548173ffffffffffffffffffffffffffffffffffffffff021916908373ffffffffffffffffffffffffffffffffffffffff160217905550565b610591610738565b1515610605576040517f08c379a00000000000000000000000000000000000000000000000000000000081526004018080602001828103825260208152602001807f4f776e61626c653a2063616c6c6572206973206e6f7420746865206f776e657281525060200191505060405180910390fd5b60008090505b828290508110156106a4576001806000858585818110151561062957fe5b9050602002013573ffffffffffffffffffffffffffffffffffffffff1673ffffffffffffffffffffffffffffffffffffffff1673ffffffffffffffffffffffffffffffffffffffff16815260200190815260200160002060006101000a81548160ff021916908315150217905550808060010191505061060b565b507f571817b02d15d247d0d4961fca494acd141f951ca62623d639cbbcd882a5290d828260405180806020018281038252848482818152602001925060200280828437600081840152601f19601f820116905080830192505050935050505060405180910390a15050565b60008060009054906101000a900473ffffffffffffffffffffffffffffffffffffffff16905090565b60008060009054906101000a900473ffffffffffffffffffffffffffffffffffffffff1673ffffffffffffffffffffffffffffffffffffffff163373ffffffffffffffffffffffffffffffffffffffff1614905090565b610797610738565b151561080b576040517f08c379a00000000000000000000000000000000000000000000000000000000081526004018080602001828103825260208152602001807f4f776e61626c653a2063616c6c6572206973206e6f7420746865206f776e657281525060200191505060405180910390fd5b61081481610817565b50565b600073ffffffffffffffffffffffffffffffffffffffff168173ffffffffffffffffffffffffffffffffffffffff161415151561089f576040517f08c379a000000000000000000000000000000000000000000000000000000000815260040180806020018281038252602681526020018061095e6026913960400191505060405180910390fd5b8073ffffffffffffffffffffffffffffffffffffffff166000809054906101000a900473ffffffffffffffffffffffffffffffffffffffff1673ffffffffffffffffffffffffffffffffffffffff167f8be0079c531659141344cd1fd0a4f28419497f9722a3daafe3b4186f6b6457e060405160405180910390a3806000806101000a81548173ffffffffffffffffffffffffffffffffffffffff021916908373ffffffffffffffffffffffffffffffffffffffff1602179055505056fe4f776e61626c653a206e6577206f776e657220697320746865207a65726f2061646472657373a165627a7a72305820386bff1ce5765b8f7e592d73662081dd0c3a72bc43c185c9364d8a69d5821a360029",
  "source": "pragma solidity ^0.5.2;\npragma experimental ABIEncoderV2;\n\nimport './LMSRMarketMakerFactory.sol';\nimport '@gnosis.pm/conditional-tokens-market-makers/contracts/Whitelist.sol';\nimport '@gnosis.pm/conditional-tokens-contracts/contracts/ConditionalTokens.sol';\nimport '@gnosis.pm/conditional-tokens-contracts/contracts/CTHelpers.sol';\nimport './CollateralToken.sol';\n\n\ncontract SignallingOrchestrator is Ownable {\n\n    struct MarketDetails {\n        // uint256 ratio;\n        address mmAddress;\n        string project;\n        string outcome;\n    }\n\n    ConditionalTokens public conditionalTokens;\n    Whitelist public whitelist;\n    CollateralToken public collateralToken;\n    LMSRMarketMakerFactory public marketMakerFactory;\n    address public oracle;\n    MarketDetails[] public markets;\n\n    uint64 FEE_FACTOR = 1;\n\n    constructor(address _oracle, LMSRMarketMakerFactory _marketMakerFactory, ConditionalTokens _conditionalTokens) public {\n        require(address(_oracle) != address(0));\n        require(address(_marketMakerFactory) != address(0));\n\n        oracle = _oracle;\n        marketMakerFactory = _marketMakerFactory;\n        conditionalTokens = _conditionalTokens;\n\n        collateralToken = new CollateralToken();\n        whitelist = new Whitelist();\n    }\n\n    function setMarketMakerFactory(LMSRMarketMakerFactory _marketMakerFactory) public onlyOwner {\n        require(address(_marketMakerFactory) != address(0));\n        marketMakerFactory = _marketMakerFactory;\n    }\n\n    function createMarket(bytes32 _questionId, uint256 funding, string memory project, string memory outcome) public onlyOwner {\n        conditionalTokens.prepareCondition(oracle, _questionId, 2);\n        bytes32[] memory conditions = new bytes32[](1);\n        conditions[0] = CTHelpers.getConditionId(oracle, _questionId, 2);\n\n        collateralToken.mint(address(this), funding);\n        collateralToken.approve(address(marketMakerFactory), funding);\n\n        address mm = address(marketMakerFactory.createLMSRMarketMaker(\n            conditionalTokens,\n            collateralToken,\n            conditions,\n            FEE_FACTOR,\n            whitelist,\n            funding));\n\n        markets.push(MarketDetails(mm, project, outcome));\n    }\n\n    function getMarketsCount() public view returns(uint256) {\n        return markets.length;\n    }\n\n    function getMarketDetails(uint256 marketNr) public view returns(MarketDetails memory) {\n        return markets[marketNr];\n    }\n\n    function onBoard(address user, uint256 stipend) public onlyOwner {\n        collateralToken.mint(user, stipend);\n        address[] memory users = new address[](1);\n        users[0] = user;\n        whitelist.addToWhitelist(users);\n    }\n\n    function getOutcomeBalance(address owner, uint256 positionId) public view returns(uint256) {\n      return conditionalTokens.balanceOf(owner, positionId);\n    }\n\n}\n",
  "sourcePath": "/Users/alex/alice/impact-signalling/contracts/SignallingOrchestrator.sol",
  "compiler": {
    "name": "solc",
    "version": "0.5.2+commit.1df8f40c.Emscripten.clang"
  },
  "schemaVersion": "3.0.10",
  "updatedAt": "2019-11-23T10:14:19.700Z",
  "devdoc": {
    "methods": {
      "isOwner()": {
        "details": "Returns true if the caller is the current owner."
      },
      "owner()": {
        "details": "Returns the address of the current owner."
      },
      "renounceOwnership()": {
        "details": "Leaves the contract without owner. It will not be possible to call `onlyOwner` functions anymore. Can only be called by the current owner.     * > Note: Renouncing ownership will leave the contract without an owner, thereby removing any functionality that is only available to the owner."
      },
      "transferOwnership(address)": {
        "details": "Transfers ownership of the contract to a new account (`newOwner`). Can only be called by the current owner."
      }
    }
  },
  "userdoc": {
    "methods": {}
  }
}