{
  "contractName": "SimpleMonitoringService",
  "abi": [
    {
      "constant": true,
      "inputs": [
        {
          "name": "",
          "type": "uint256"
        }
      ],
      "name": "providers",
      "outputs": [
        {
          "name": "account",
          "type": "address"
        },
        {
          "name": "weeklyFee",
          "type": "uint256"
        },
        {
          "name": "stake",
          "type": "uint256"
        },
        {
          "name": "status",
          "type": "uint8"
        }
      ],
      "payable": false,
      "stateMutability": "view",
      "type": "function"
    },
    {
      "constant": true,
      "inputs": [
        {
          "name": "",
          "type": "uint256"
        }
      ],
      "name": "requests",
      "outputs": [
        {
          "name": "protocol",
          "type": "uint8"
        },
        {
          "name": "target",
          "type": "address"
        },
        {
          "name": "variable",
          "type": "string"
        },
        {
          "name": "condition",
          "type": "uint8"
        },
        {
          "name": "value",
          "type": "uint256"
        },
        {
          "name": "messageType",
          "type": "uint8"
        },
        {
          "name": "messageTarget",
          "type": "string"
        },
        {
          "name": "client",
          "type": "address"
        },
        {
          "name": "providerId",
          "type": "uint256"
        },
        {
          "name": "from",
          "type": "uint256"
        },
        {
          "name": "deposited",
          "type": "uint256"
        },
        {
          "name": "collected",
          "type": "uint256"
        }
      ],
      "payable": false,
      "stateMutability": "view",
      "type": "function"
    },
    {
      "constant": true,
      "inputs": [],
      "name": "test",
      "outputs": [
        {
          "name": "",
          "type": "uint8"
        }
      ],
      "payable": false,
      "stateMutability": "view",
      "type": "function"
    },
    {
      "anonymous": false,
      "inputs": [
        {
          "indexed": true,
          "name": "provider",
          "type": "address"
        },
        {
          "indexed": true,
          "name": "providerId",
          "type": "uint256"
        },
        {
          "indexed": false,
          "name": "weeklyFee",
          "type": "uint256"
        }
      ],
      "name": "ServiceProviderAdded",
      "type": "event"
    },
    {
      "anonymous": false,
      "inputs": [
        {
          "indexed": true,
          "name": "client",
          "type": "address"
        },
        {
          "indexed": true,
          "name": "requestId",
          "type": "uint256"
        },
        {
          "indexed": true,
          "name": "providerId",
          "type": "uint256"
        },
        {
          "indexed": false,
          "name": "targetContract",
          "type": "address"
        },
        {
          "indexed": false,
          "name": "deposit",
          "type": "uint256"
        }
      ],
      "name": "MonitoringRequestAdded",
      "type": "event"
    },
    {
      "anonymous": false,
      "inputs": [
        {
          "indexed": true,
          "name": "client",
          "type": "address"
        },
        {
          "indexed": true,
          "name": "requestId",
          "type": "uint256"
        },
        {
          "indexed": true,
          "name": "providerId",
          "type": "uint256"
        }
      ],
      "name": "MonitoringRequestCancelled",
      "type": "event"
    },
    {
      "anonymous": false,
      "inputs": [
        {
          "indexed": true,
          "name": "collector",
          "type": "address"
        },
        {
          "indexed": true,
          "name": "requestId",
          "type": "uint256"
        },
        {
          "indexed": true,
          "name": "providerId",
          "type": "uint256"
        },
        {
          "indexed": false,
          "name": "fee",
          "type": "uint256"
        }
      ],
      "name": "FeeCollected",
      "type": "event"
    },
    {
      "constant": false,
      "inputs": [
        {
          "name": "weeklyFee",
          "type": "uint256"
        }
      ],
      "name": "registerServiceProvider",
      "outputs": [],
      "payable": true,
      "stateMutability": "payable",
      "type": "function"
    },
    {
      "constant": false,
      "inputs": [
        {
          "name": "protocol",
          "type": "uint8"
        },
        {
          "name": "target",
          "type": "address"
        },
        {
          "name": "variable",
          "type": "string"
        },
        {
          "name": "condition",
          "type": "uint8"
        },
        {
          "name": "value",
          "type": "uint256"
        },
        {
          "name": "messageType",
          "type": "uint8"
        },
        {
          "name": "messageTarget",
          "type": "string"
        },
        {
          "name": "providerId",
          "type": "uint256"
        }
      ],
      "name": "registerMonitoringRequest",
      "outputs": [],
      "payable": true,
      "stateMutability": "payable",
      "type": "function"
    },
    {
      "constant": false,
      "inputs": [
        {
          "name": "requestId",
          "type": "uint256"
        }
      ],
      "name": "collectFee",
      "outputs": [],
      "payable": false,
      "stateMutability": "nonpayable",
      "type": "function"
    },
    {
      "constant": true,
      "inputs": [
        {
          "name": "requestId",
          "type": "uint256"
        }
      ],
      "name": "calculateFee",
      "outputs": [
        {
          "name": "",
          "type": "uint256"
        }
      ],
      "payable": false,
      "stateMutability": "view",
      "type": "function"
    },
    {
      "constant": false,
      "inputs": [
        {
          "name": "requestId",
          "type": "uint256"
        }
      ],
      "name": "cancelRequest",
      "outputs": [],
      "payable": false,
      "stateMutability": "nonpayable",
      "type": "function"
    },
    {
      "constant": true,
      "inputs": [
        {
          "name": "requestId",
          "type": "uint256"
        }
      ],
      "name": "isRequestFunded",
      "outputs": [
        {
          "name": "",
          "type": "bool"
        }
      ],
      "payable": false,
      "stateMutability": "view",
      "type": "function"
    },
    {
      "constant": true,
      "inputs": [],
      "name": "getRequestsCount",
      "outputs": [
        {
          "name": "",
          "type": "uint256"
        }
      ],
      "payable": false,
      "stateMutability": "view",
      "type": "function"
    },
    {
      "constant": true,
      "inputs": [
        {
          "name": "requestId",
          "type": "uint256"
        }
      ],
      "name": "getRequestDetails",
      "outputs": [
        {
          "components": [
            {
              "name": "protocol",
              "type": "uint8"
            },
            {
              "name": "target",
              "type": "address"
            },
            {
              "name": "variable",
              "type": "string"
            },
            {
              "name": "condition",
              "type": "uint8"
            },
            {
              "name": "value",
              "type": "uint256"
            },
            {
              "name": "messageType",
              "type": "uint8"
            },
            {
              "name": "messageTarget",
              "type": "string"
            },
            {
              "name": "client",
              "type": "address"
            },
            {
              "name": "providerId",
              "type": "uint256"
            },
            {
              "name": "from",
              "type": "uint256"
            },
            {
              "name": "deposited",
              "type": "uint256"
            },
            {
              "name": "collected",
              "type": "uint256"
            }
          ],
          "name": "",
          "type": "tuple"
        }
      ],
      "payable": false,
      "stateMutability": "view",
      "type": "function"
    },
    {
      "constant": true,
      "inputs": [],
      "name": "getProvidersCount",
      "outputs": [
        {
          "name": "",
          "type": "uint256"
        }
      ],
      "payable": false,
      "stateMutability": "view",
      "type": "function"
    }
  ],
  "bytecode": "0x608060405234801561001057600080fd5b50611d57806100206000396000f3fe6080604052600436106100c4576000357c01000000000000000000000000000000000000000000000000000000009004806381d12c581161008157806381d12c58146101d257806399a5d7471461021a578063a969ff0a14610257578063bfafedef14610280578063f34d4c63146102ab578063f8a8fd6d146102e8576100c4565b806323367e5e146100c957806324abdb42146100e55780633015394c146101015780633410452a1461012a57806350f3fc81146101555780635ebea84014610195575b600080fd5b6100e360048036036100de9190810190611619565b610313565b005b6100ff60048036036100fa9190810190611537565b61048b565b005b34801561010d57600080fd5b5061012860048036036101239190810190611619565b6107cd565b005b34801561013657600080fd5b5061013f610939565b60405161014c9190611afc565b60405180910390f35b34801561016157600080fd5b5061017c60048036036101779190810190611619565b610946565b60405161018c9493929190611917565b60405180910390f35b3480156101a157600080fd5b506101bc60048036036101b79190810190611619565b6109b2565b6040516101c9919061195c565b60405180910390f35b3480156101de57600080fd5b506101f960048036036101f49190810190611619565b610a0d565b6040516102119c9b9a99989796959493929190611992565b60405180910390f35b34801561022657600080fd5b50610241600480360361023c9190810190611619565b610c13565b60405161024e9190611afc565b60405180910390f35b34801561026357600080fd5b5061027e60048036036102799190810190611619565b610d17565b005b34801561028c57600080fd5b50610295610ea6565b6040516102a29190611afc565b60405180910390f35b3480156102b757600080fd5b506102d260048036036102cd9190810190611619565b610eb2565b6040516102df9190611ada565b60405180910390f35b3480156102f457600080fd5b506102fd611194565b60405161030a9190611977565b60405180910390f35b670de0b6b3a7640000341015151561032a57600080fd5b60006080604051908101604052803373ffffffffffffffffffffffffffffffffffffffff16815260200183815260200134815260200160018081111561036c57fe5b8152509080600181540180825580915050906001820390600052602060002090600402016000909192909190915060008201518160000160006101000a81548173ffffffffffffffffffffffffffffffffffffffff021916908373ffffffffffffffffffffffffffffffffffffffff160217905550602082015181600101556040820151816002015560608201518160030160006101000a81548160ff0219169083600181111561041957fe5b021790555050505061043a60016000805490506111a790919063ffffffff16565b3373ffffffffffffffffffffffffffffffffffffffff167f507b2b71d9a8530e97320a0f4ea739b94f8dd2a54a85baf137bf3b9dc5629425836040516104809190611afc565b60405180910390a350565b610493610ea6565b811015156104a057600080fd5b600073ffffffffffffffffffffffffffffffffffffffff168773ffffffffffffffffffffffffffffffffffffffff16141515156104dc57600080fd5b600080828154811015156104ec57fe5b906000526020600020906004020190508060010154341015151561050f57600080fd5b6001610180604051908101604052808b600081111561052a57fe5b81526020018a73ffffffffffffffffffffffffffffffffffffffff16815260200189815260200188600281111561055d57fe5b815260200187815260200186600181111561057457fe5b81526020018581526020013373ffffffffffffffffffffffffffffffffffffffff16815260200184815260200142815260200134815260200160008152509080600181540180825580915050906001820390600052602060002090600b02016000909192909190915060008201518160000160006101000a81548160ff0219169083600081111561060157fe5b021790555060208201518160000160016101000a81548173ffffffffffffffffffffffffffffffffffffffff021916908373ffffffffffffffffffffffffffffffffffffffff160217905550604082015181600101908051906020019061066992919061132a565b5060608201518160020160006101000a81548160ff0219169083600281111561068e57fe5b02179055506080820151816003015560a08201518160040160006101000a81548160ff021916908360018111156106c157fe5b021790555060c08201518160050190805190602001906106e292919061132a565b5060e08201518160060160006101000a81548173ffffffffffffffffffffffffffffffffffffffff021916908373ffffffffffffffffffffffffffffffffffffffff16021790555061010082015181600701556101208201518160080155610140820151816009015561016082015181600a015550505081610772600180805490506111a790919063ffffffff16565b3373ffffffffffffffffffffffffffffffffffffffff167f40e05c0e1362fbacb29e26999ace9c9627c70aff9a4fa003a4923c27af8221288b346040516107ba9291906118ee565b60405180910390a4505050505050505050565b6107d6816109b2565b15156107e157600080fd5b60006001828154811015156107f257fe5b90600052602060002090600b02019050600080826007015481548110151561081657fe5b906000526020600020906004020190508160060160009054906101000a900473ffffffffffffffffffffffffffffffffffffffff1673ffffffffffffffffffffffffffffffffffffffff163373ffffffffffffffffffffffffffffffffffffffff1614151561088457600080fd5b60006108a1826001015484600901546111a790919063ffffffff16565b90503373ffffffffffffffffffffffffffffffffffffffff166108fc829081150290604051600060405180830381858888f193505050501580156108e9573d6000803e3d6000fd5b508260070154843373ffffffffffffffffffffffffffffffffffffffff167ff406e432616139810d1e739f29c8f290abff06aa26644ee0c17ec7016bfd5b7460405160405180910390a450505050565b6000600180549050905090565b60008181548110151561095557fe5b90600052602060002090600402016000915090508060000160009054906101000a900473ffffffffffffffffffffffffffffffffffffffff16908060010154908060020154908060030160009054906101000a900460ff16905084565b6000806001838154811015156109c457fe5b90600052602060002090600b0201905060008082600701548154811015156109e857fe5b9060005260206000209060040201905080600101548260090154101592505050919050565b600181815481101515610a1c57fe5b90600052602060002090600b02016000915090508060000160009054906101000a900460ff16908060000160019054906101000a900473ffffffffffffffffffffffffffffffffffffffff1690806001018054600181600116156101000203166002900480601f016020809104026020016040519081016040528092919081815260200182805460018160011615610100020316600290048015610b015780601f10610ad657610100808354040283529160200191610b01565b820191906000526020600020905b815481529060010190602001808311610ae457829003601f168201915b5050505050908060020160009054906101000a900460ff16908060030154908060040160009054906101000a900460ff1690806005018054600181600116156101000203166002900480601f016020809104026020016040519081016040528092919081815260200182805460018160011615610100020316600290048015610bcb5780601f10610ba057610100808354040283529160200191610bcb565b820191906000526020600020905b815481529060010190602001808311610bae57829003601f168201915b5050505050908060060160009054906101000a900473ffffffffffffffffffffffffffffffffffffffff169080600701549080600801549080600901549080600a015490508c565b600080600183815481101515610c2557fe5b90600052602060002090600b020190506000808260070154815481101515610c4957fe5b906000526020600020906004020190506000610c76826001015484600a01546111ff90919063ffffffff16565b90506000610ca6610c9362093a808461125f90919063ffffffff16565b85600801546112d390919063ffffffff16565b90506000610cbd82426111a790919063ffffffff16565b90506000610cd762093a80836111ff90919063ffffffff16565b90506000610cf286600101548361125f90919063ffffffff16565b90508660090154811115610d0857866009015490505b80975050505050505050919050565b6000600182815481101515610d2857fe5b90600052602060002090600b020190506000808260070154815481101515610d4c57fe5b906000526020600020906004020190508060000160009054906101000a900473ffffffffffffffffffffffffffffffffffffffff1673ffffffffffffffffffffffffffffffffffffffff163373ffffffffffffffffffffffffffffffffffffffff16141515610dba57600080fd5b6000610dc584610c13565b9050610dde8184600a01546112d390919063ffffffff16565b83600a0181905550610dfd8184600901546111a790919063ffffffff16565b83600901819055503373ffffffffffffffffffffffffffffffffffffffff166108fc829081150290604051600060405180830381858888f19350505050158015610e4b573d6000803e3d6000fd5b508260070154843373ffffffffffffffffffffffffffffffffffffffff167f7e4199a81d431b89a16814e8730ae102c7b9b30c1a661bc67be86f4b185b173384604051610e989190611afc565b60405180910390a450505050565b60008080549050905090565b610eba6113aa565b600182815481101515610ec957fe5b90600052602060002090600b020161018060405190810160405290816000820160009054906101000a900460ff166000811115610f0257fe5b6000811115610f0d57fe5b81526020016000820160019054906101000a900473ffffffffffffffffffffffffffffffffffffffff1673ffffffffffffffffffffffffffffffffffffffff1673ffffffffffffffffffffffffffffffffffffffff168152602001600182018054600181600116156101000203166002900480601f0160208091040260200160405190810160405280929190818152602001828054600181600116156101000203166002900480156110005780601f10610fd557610100808354040283529160200191611000565b820191906000526020600020905b815481529060010190602001808311610fe357829003601f168201915b505050505081526020016002820160009054906101000a900460ff16600281111561102757fe5b600281111561103257fe5b8152602001600382015481526020016004820160009054906101000a900460ff16600181111561105e57fe5b600181111561106957fe5b8152602001600582018054600181600116156101000203166002900480601f0160208091040260200160405190810160405280929190818152602001828054600181600116156101000203166002900480156111065780601f106110db57610100808354040283529160200191611106565b820191906000526020600020905b8154815290600101906020018083116110e957829003601f168201915b505050505081526020016006820160009054906101000a900473ffffffffffffffffffffffffffffffffffffffff1673ffffffffffffffffffffffffffffffffffffffff1673ffffffffffffffffffffffffffffffffffffffff168152602001600782015481526020016008820154815260200160098201548152602001600a820154815250509050919050565b600260009054906101000a900460ff1681565b60008282111515156111ee576040517f08c379a00000000000000000000000000000000000000000000000000000000081526004016111e590611a7a565b60405180910390fd5b600082840390508091505092915050565b60008082111515611245576040517f08c379a000000000000000000000000000000000000000000000000000000000815260040161123c90611a9a565b60405180910390fd5b6000828481151561125257fe5b0490508091505092915050565b60008083141561127257600090506112cd565b6000828402905082848281151561128557fe5b041415156112c8576040517f08c379a00000000000000000000000000000000000000000000000000000000081526004016112bf90611aba565b60405180910390fd5b809150505b92915050565b6000808284019050838110151515611320576040517f08c379a000000000000000000000000000000000000000000000000000000000815260040161131790611a5a565b60405180910390fd5b8091505092915050565b828054600181600116156101000203166002900490600052602060002090601f016020900481019282601f1061136b57805160ff1916838001178555611399565b82800160010185558215611399579182015b8281111561139857825182559160200191906001019061137d565b5b5090506113a69190611458565b5090565b610180604051908101604052806000808111156113c357fe5b8152602001600073ffffffffffffffffffffffffffffffffffffffff16815260200160608152602001600060028111156113f957fe5b8152602001600081526020016000600181111561141257fe5b815260200160608152602001600073ffffffffffffffffffffffffffffffffffffffff168152602001600081526020016000815260200160008152602001600081525090565b61147a91905b8082111561147657600081600090555060010161145e565b5090565b90565b60006114898235611c1b565b905092915050565b600061149d8235611c2d565b905092915050565b60006114b18235611c46565b905092915050565b60006114c58235611c5f565b905092915050565b600082601f83011215156114e057600080fd5b81356114f36114ee82611b44565b611b17565b9150808252602083016020830185838301111561150f57600080fd5b61151a838284611cca565b50505092915050565b600061152f8235611c78565b905092915050565b600080600080600080600080610100898b03121561155457600080fd5b60006115628b828c016114b9565b98505060206115738b828c0161147d565b975050604089013567ffffffffffffffff81111561159057600080fd5b61159c8b828c016114cd565b96505060606115ad8b828c01611491565b95505060806115be8b828c01611523565b94505060a06115cf8b828c016114a5565b93505060c089013567ffffffffffffffff8111156115ec57600080fd5b6115f88b828c016114cd565b92505060e06116098b828c01611523565b9150509295985092959890939650565b60006020828403121561162b57600080fd5b600061163984828501611523565b91505092915050565b61164b81611b7b565b82525050565b61165a81611b8d565b82525050565b61166981611c82565b82525050565b61167881611c94565b82525050565b61168781611ca6565b82525050565b61169681611cb8565b82525050565b60006116a782611b70565b8084526116bb816020860160208601611cd9565b6116c481611d0c565b602085010191505092915050565b6000601b82527f536166654d6174683a206164646974696f6e206f766572666c6f7700000000006020830152604082019050919050565b6000601e82527f536166654d6174683a207375627472616374696f6e206f766572666c6f7700006020830152604082019050919050565b6000601a82527f536166654d6174683a206469766973696f6e206279207a65726f0000000000006020830152604082019050919050565b6000602182527f536166654d6174683a206d756c7469706c69636174696f6e206f766572666c6f60208301527f77000000000000000000000000000000000000000000000000000000000000006040830152606082019050919050565b6000610180830160008301516117ed600086018261167e565b5060208301516118006020860182611642565b5060408301518482036040860152611818828261169c565b915050606083015161182d6060860182611660565b50608083015161184060808601826118df565b5060a083015161185360a086018261166f565b5060c083015184820360c086015261186b828261169c565b91505060e083015161188060e0860182611642565b506101008301516118956101008601826118df565b506101208301516118aa6101208601826118df565b506101408301516118bf6101408601826118df565b506101608301516118d46101608601826118df565b508091505092915050565b6118e881611c11565b82525050565b60006040820190506119036000830185611642565b61191060208301846118df565b9392505050565b600060808201905061192c6000830187611642565b61193960208301866118df565b61194660408301856118df565b611953606083018461168d565b95945050505050565b60006020820190506119716000830184611651565b92915050565b600060208201905061198c6000830184611660565b92915050565b6000610180820190506119a8600083018f61167e565b6119b5602083018e611642565b81810360408301526119c7818d61169c565b90506119d6606083018c611660565b6119e3608083018b6118df565b6119f060a083018a61166f565b81810360c0830152611a02818961169c565b9050611a1160e0830188611642565b611a1f6101008301876118df565b611a2d6101208301866118df565b611a3b6101408301856118df565b611a496101608301846118df565b9d9c50505050505050505050505050565b60006020820190508181036000830152611a73816116d2565b9050919050565b60006020820190508181036000830152611a9381611709565b9050919050565b60006020820190508181036000830152611ab381611740565b9050919050565b60006020820190508181036000830152611ad381611777565b9050919050565b60006020820190508181036000830152611af481846117d4565b905092915050565b6000602082019050611b1160008301846118df565b92915050565b6000604051905081810181811067ffffffffffffffff82111715611b3a57600080fd5b8060405250919050565b600067ffffffffffffffff821115611b5b57600080fd5b601f19601f8301169050602081019050919050565b600081519050919050565b6000611b8682611bf1565b9050919050565b60008115159050919050565b6000600382101515611ba757fe5b819050919050565b6000600282101515611bbd57fe5b819050919050565b6000600182101515611bd357fe5b819050919050565b6000600282101515611be957fe5b819050919050565b600073ffffffffffffffffffffffffffffffffffffffff82169050919050565b6000819050919050565b6000611c2682611bf1565b9050919050565b6000600382101515611c3e57600080fd5b819050919050565b6000600282101515611c5757600080fd5b819050919050565b6000600182101515611c7057600080fd5b819050919050565b6000819050919050565b6000611c8d82611b99565b9050919050565b6000611c9f82611baf565b9050919050565b6000611cb182611bc5565b9050919050565b6000611cc382611bdb565b9050919050565b82818337600083830152505050565b60005b83811015611cf7578082015181840152602081019050611cdc565b83811115611d06576000848401525b50505050565b6000601f19601f830116905091905056fea265627a7a7230582066f14d4f5356d5cbf1ff13db135a730f1a843aa6a77490c4d3b73c652d4656276c6578706572696d656e74616cf50037",
  "source": "/*\nThe contract implements a simple protocol to manage the service for smart contract monitoring.\n\nA service provider register a service offer specifying a weekly fee for notifying customers about smart contracts changes.\n\nA client may submit a MonitoringRequest calling a provider to deliver notification in a specific format\nwhen the given contract parameter matches a certain condition.\n\nThe protocol is intentionally a minimal implementation that secures the parties by:\n\n1) Requiring a service provider to put a stake that will secure future claims\n2) Giving the right to cancel a service subscription by a customer not satisfied by the quality\n3) In case of cancellation, part of the stake will be send to the customer slashing misbehaving service provider and compensating customer\n4) To prevent sybil attacks a customer may cancel the service only after the first paid week is over\n\nThe protocol doesn't implement any 3rd party validation of the service performance as the due diligence\ncould be done thanks to the transparent blockchain transaction history of previous actions\nand the honest performance is incentivised by the crypto-economic mechanism of staking/slashing and fee setup.\n\n*/\n\nimport 'openzeppelin-solidity/contracts/math/SafeMath.sol';\n\npragma solidity ^0.5.2;\npragma experimental ABIEncoderV2;\n\ncontract SimpleMonitoringService {\n  using SafeMath for uint256;\n\n\n  //ENUMS\n  enum Protocol { GNOSIS_PREDICTION_MARKET }\n  enum Condition { GREATER_THAN, EQUAL, LESS_THAN}\n  enum MessageType { EMAIL, SMS }\n  enum Status {CANCELLED, ACTIVE}\n\n\n  //CONSTANTS\n  uint256 constant MIN_STAKE = 1 ether;\n  uint256 constant SLASH_PERCENTAGE = 1;\n\n\n  //EVENTS\n  event ServiceProviderAdded(address indexed provider, uint256 indexed providerId, uint256 weeklyFee);\n  event MonitoringRequestAdded(address indexed client, uint256 indexed requestId, uint256 indexed providerId, address targetContract, uint256 deposit);\n  event MonitoringRequestCancelled(address indexed client, uint256 indexed requestId, uint256 indexed providerId);\n  event FeeCollected(address indexed collector, uint256 indexed requestId, uint256 indexed providerId, uint256 fee);\n\n\n  //STRUCTS\n  struct MonitoringRequest {\n    Protocol protocol;\n    address target;\n    string variable;\n    Condition condition;\n    uint256 value;\n    MessageType messageType;\n    string messageTarget;\n\n    address client;\n    uint256 providerId;\n    uint256 from;\n    uint256 deposited;\n    uint256 collected;\n  }\n\n  struct ServiceProvider {\n    address account;\n    uint256 weeklyFee;\n    uint256 stake;\n    Status status;\n  }\n\n\n  //STATE\n  ServiceProvider[] public providers;\n  MonitoringRequest[] public requests;\n  Condition public test;\n\n  function registerServiceProvider(uint256 weeklyFee) public payable {\n    require(msg.value >= MIN_STAKE);\n    providers.push(ServiceProvider(msg.sender, weeklyFee, msg.value, Status.ACTIVE));\n\n    emit ServiceProviderAdded(msg.sender, providers.length.sub(1), weeklyFee);\n  }\n\n\n  function registerMonitoringRequest(\n    Protocol protocol,\n    address target,\n    string memory variable,\n    Condition condition,\n    uint256 value,\n    MessageType messageType,\n    string memory messageTarget,\n    uint256 providerId) public payable {\n\n    require(providerId < getProvidersCount());\n    require(target != address(0));\n\n    ServiceProvider storage provider = providers[providerId];\n    require(msg.value >= provider.weeklyFee);\n\n    requests.push(MonitoringRequest(\n      protocol,\n      target,\n      variable,\n      condition,\n      value,\n      messageType,\n      messageTarget,\n      msg.sender,\n      providerId,\n      now,\n      msg.value,\n      0\n    ));\n\n    emit MonitoringRequestAdded(msg.sender, requests.length.sub(1), providerId, target, msg.value);\n  }\n\n\n  function collectFee(uint256 requestId) public {\n    MonitoringRequest storage request = requests[requestId];\n    ServiceProvider storage provider = providers[request.providerId];\n    require(msg.sender == provider.account);\n\n    uint256 fee = calculateFee(requestId);\n\n    request.collected = request.collected.add(fee);\n    request.deposited = request.deposited.sub(fee);\n    msg.sender.transfer(fee);\n\n    emit FeeCollected(msg.sender, requestId, request.providerId, fee);\n  }\n\n  function calculateFee(uint256 requestId) public view returns(uint256) {\n    MonitoringRequest storage request = requests[requestId];\n    ServiceProvider storage provider = providers[request.providerId];\n\n\n    uint256 offset = request.collected.div(provider.weeklyFee);\n    uint256 unpaidFrom = request.from.add(offset.mul(1 weeks));\n    uint256 elapsed = now.sub(unpaidFrom);\n    uint256 fullWeeks = elapsed.div(1 weeks);\n\n    uint fee = fullWeeks.mul(provider.weeklyFee);\n    if (fee > request.deposited) {\n      fee = request.deposited;\n    }\n\n    return fee;\n  }\n\n  function cancelRequest(uint256 requestId) public {\n    require(isRequestFunded(requestId));\n\n    MonitoringRequest storage request = requests[requestId];\n    ServiceProvider storage provider = providers[request.providerId];\n    require(msg.sender == request.client);\n\n    uint256 refund = request.deposited.sub(provider.weeklyFee);\n    msg.sender.transfer(refund);\n    emit MonitoringRequestCancelled(msg.sender, requestId, request.providerId);\n\n  }\n\n  function isRequestFunded(uint256 requestId) public view returns(bool) {\n    MonitoringRequest storage request = requests[requestId];\n    ServiceProvider storage provider = providers[request.providerId];\n    return request.deposited >= provider.weeklyFee;\n  }\n\n  function getRequestsCount() public view returns(uint256) {\n    return requests.length;\n  }\n\n  function getRequestDetails(uint256 requestId) public view returns(MonitoringRequest memory) {\n    return requests[requestId];\n  }\n\n  function getProvidersCount() public view returns(uint256) {\n    return providers.length;\n  }\n\n}\n",
  "sourcePath": "/Users/alex/alice/impact-signalling/contracts/SimpleMonitoringService.sol",
  "compiler": {
    "name": "solc",
    "version": "0.5.2+commit.1df8f40c.Emscripten.clang"
  },
  "schemaVersion": "3.0.10",
  "updatedAt": "2019-11-23T10:14:49.717Z",
  "devdoc": {
    "methods": {}
  },
  "userdoc": {
    "methods": {}
  }
}